:100000000C94DC010C94651F0C948C1F0C94FA1E4C
:100010000C941F1F0C9471060C9425180C94040268
:100020000C9404020C9404020C9404020C94040238
:100030000C9404020C941B1A0C9404020C940402F9
:100040000C94B41F0C9404020C9404020C9404024B
:100050000C9404020C9404020C9404020C94040208
:100060000C94101B0C940402084AD73B3BCE016E43
:1000700084BCBFFDC12F3D6C74319ABD56833DDAFF
:100080003D00C77F11BED9E4BB4C3E916BAAAABE0E
:10009000000000803F05A84CCDB2D44EB93836A937
:1000A000020C50B9918688083CA6AAAA2ABE000074
:1000B00000803F00696F742E316E63652E6E65742B
:1000C0000041542B43495053454E443D0041542B6D
:1000D00043495053544154555300434C4F534520CA
:1000E0004F4B0041542B434950434C4F5345004321
:1000F0004F4E4E454354204F4B002200222C2200ED
:1001000041542B43495053544152543D225544507D
:10011000222C220041542B43495052584745543D0C
:10012000300041542B4349504D55583D3000534801
:100130005554204F4B0041542B434950534855547C
:100140000041542B434744434F4E543D312C2249E8
:1001500050222C002B434744434F4E543A20004139
:10016000542B434744434F4E543F002B4347415485
:10017000543A200041542B43474154543F004154CA
:100180002B43474154543D300041542B534150427E
:10019000523D302C310053485554204F4B004154B0
:1001A0002B434950534855540041542B434949432C
:1001B000520041542B53415042523D312C310041A9
:1001C000542B53415042523D332C312C2250574432
:1001D000222C0041542B53415042523D332C312CA0
:1001E0002255534552222C0041542B435354543D25
:1001F000220041542B53415042523D332C312C228A
:1002000041504E222C0041542B53415042523D3319
:100210002C312C22434F4E54595045222C2247500A
:100220005253220041542B4349504D4F44453D30D9
:100230000053485554204F4B0041542B43495053D1
:10024000485554002B4353513A200041542B4353FB
:1002500051002B435245473A200041542B4352450D
:10026000473F002B43475245473A200041542B4318
:10027000475245473F0041542B47534E0041542BB2
:10028000434E45544C494748543D300041542B435C
:100290005347533D320041542B434E45544C49473C
:1002A00048543D310041542B4350534D533D004180
:1002B000542B4353434C4B3D0041542B434E4D5024
:1002C0003D0041542B4346554E3D002B4342433A9B
:1002D000200041542B4342430053494D37303030C6
:1002E000470053494D37303030450053494D373082
:1002F0003030430053494D37303030410041542BAA
:10030000435648553D300041544530004154453036
:1003100000415400415400415400415400415400F4
:100320004154004154004F4B00464F4E41000000E5
:100330005EBCE2613FDD83C29C7E20A3FD1F4100C5
:100340009D23BE46DB65F88C11AF32CA57E97400B5
:10035000000009000302000004050800000000007E
:10036000000000000000010204081020408001028B
:1003700004081020010204081020408040040404F6
:10038000040404040402020202020203030303033E
:1003900003020203000000002300260029000000E1
:1003A0000000250028002B0000000000240027008A
:1003B0002A00960CC81AD90C11241FBECFEFD8E022
:1003C000DEBFCDBF11E0A0E0B1E0E0EDF9E502C095
:1003D00005900D92AC3FB107D9F725E0ACEFB1E045
:1003E00001C01D92A337B207E1F711E0CBEDD1E0D8
:1003F00004C02197FE010E94A827C93DD107C9F773
:100400000E9492230C94DB2C0C94000090E080E07E
:1004100008950E94FE1F6093700270937102809392
:100420007202909373028091700290917102A09178
:100430007202B091730240916C0250916D02609112
:100440006E0270916F02841B950BA60BB70B853F54
:100450009140A105B105C8F08091700290917102A0
:10046000A0917202B091730280936C0290936D021E
:10047000A0936E02B0936F028091100190911101D0
:100480000196909311018093100108950C94C52C4E
:100490000C94CD2C60E08AE00E941E2168EB7BE08A
:1004A00080E090E00E942F2061E08AE00E941E21FF
:1004B00060E47FE180E090E00C942F20682F8FE0D3
:1004C00090E00E94480268EC70E080E090E00E94BA
:1004D0002F200E944A0260E177E280E090E00E94D3
:1004E0002F2088E19BE00FB6F894A89580936000D8
:1004F0000FBE9093600008958091880290918902C8
:10050000A0918A02B0918B020196A11DB11D80932A
:10051000880290938902A0938A02B0938B02809103
:10052000880290918902A0918A02B0918B02893C45
:100530009105A105B10558F0109288021092890228
:1005400010928A0210928B0282E00C945E0208954F
:1005500060E08AE00E941E2164E670E080E090E0A6
:100560000E942F2061E08AE00C941E218DE892E029
:100570000E94521791E0811101C090E0892F0895E7
:100580000F931F9368EB7BE080E090E00E942F20A8
:1005900060E875E281EB93E00E949A1D61EB73E0E5
:1005A0008DE892E00E945A1281110DC068E873E153
:1005B00080E090E00E942F2060E875E281EB93E0FC
:1005C0000E949A1DEBCF6CE371E081EB93E00E94F7
:1005D000D12108E813E120E430E043E061E08DE858
:1005E00092E00E948A146CE271E080E090E00E9448
:1005F0002F2060E08DE892E00E94201568EB7BE000
:1006000080E090E00E942F2061E08DE892E00E945F
:10061000201530E020E050E040E064EB70E08DE831
:1006200092E00E94C11668EC70E080E090E00E94C9
:100630002F20609136018DE892E00E943A1564EF18
:1006400071E080E090E00E942F2061E08DE892E070
:100650000E94541568EC70E080E090E00E942F202A
:1006600080913601863241F428E431E045E061E0D2
:100670008DE892E00E94411468EC70E080E090E028
:100680000E942F2060E08DE892E00E946E1568ECD9
:1006900070E080E090E01F910F910C942F20CF929A
:1006A000DF92EF92FF92CF930E94FE1F6B017C01BD
:1006B000C0E00E94B602811130C00E94B6020E94C2
:1006C000FE1F6C197D098E099F0960347F418105E9
:1006D000910568F50E94FE1F6C197D098E099F091E
:1006E00060327E448105910520F30E94B60281119B
:1006F000E0CFC130F1F60E944A020E94A80268EBE6
:100700007BE080E090E00E942F200E94C0020E94C7
:10071000FE1F6B017C01C0E0CCCF61E08DE892E070
:10072000CF91FF90EF90DF90CF900C94A4150E9492
:10073000B6028111CFCFC111CDCF0E94C002C1E05E
:10074000B8CF109251021092500210925A02109299
:100750005B0210925C0210925D02109253021092A2
:100760005202109249021092480280E090E0A6ECFA
:10077000B2E480930C0190930D01A0930E01B0930D
:100780000F018093080190930901A0930A01B0938F
:100790000B011092440210924502109246021092F0
:1007A00047021092400210924102109242021092AF
:1007B000430210928C0210920602109205021092CF
:1007C0000402109203021092110110921001109273
:1007D000FF011092FE01E4E5F2E086E0DF011D92E8
:1007E0008A95E9F708950F931F93CF93DF9390E0D5
:1007F00080E00E944602813099F409E111E0D0E0E6
:10080000C0E02196CE010E944602F80181938F013B
:10081000C830D105B1F7DF91CF911F910F910895A5
:1008200065E272E08DE892E00E949F1168EC70E052
:1008300080E090E00E942F20A5E2B2E0E7E0F2E045
:10084000EF018D91082E000C990BC0978993999315
:1008500082E0A533B807A9F73091230209E111E03E
:10086000D80190E080E04AE087309105D1F43093E0
:10087000200101963496119688309105A9F761E020
:1008800090E080E00E944802D0E0C0E0F801619171
:100890008F012196CE010E944802C830D105B1F7E0
:1008A000BACF50812281549F200D11242C93E1CF87
:1008B00014BE809160008861809360001092600097
:1008C00080E1809381001092800083E08093150482
:1008D00084E294EF9093170480931604909387001A
:1008E0008093860083E1809381008CE792E090936F
:1008F00014048093130481E080936F0061E086E02C
:100900000E94E22061E080E10E94E22061E08AE052
:100910000E94E22060E086E00E941E2161E080E10A
:100920000E941E2160E08AE00E941E2161E08DE0AD
:100930000E94E22061E08DE00E941E2168EE73E0DB
:1009400080E090E00E942F2060E08DE00E941E2158
:1009500064E670E080E090E00E942F2061E08091EA
:1009600017010E94E22061E0809115010E94E220BF
:1009700061E0809117010E941E2161E080911501C4
:100980000E941E2164E670E080E090E00E942F202B
:100990008AEE93E00E94C00E8BE090E00E94460237
:1009A0008F3F11F0813019F481E0809301028AE0D9
:1009B00090E00E944602811113C042E050E069E0DD
:1009C00072E081E00E94451F81E08093000289E08F
:1009D00090E00E9446028D3041F48093360109C0B8
:1009E00085EC93E00E94C00EF2CF8230B1F38632E4
:1009F000A1F38EE090E00E9446028A3019F483E071
:100A00008093FC01809168008460809368000E945C
:100A1000C0020E94F3030E944F0380918C02883031
:100A200051F58FE090E00E944602813041F481E56B
:100A300080938C0260E08FE090E00C94480282305A
:100A400021F482E580938C02F5CF833021F483E595
:100A500080938C02EFCF843021F484E580938C0264
:100A6000E9CF853021F485E580938C02E3CF88E5DA
:100A700080938C02DFCF08958091500290915102B3
:100A80000196909351028093500280915E02909162
:100A90005F02092E000CAA0BBB0B40915A02509129
:100AA0005B0260915C0270915D02840F951FA61F2E
:100AB000B71F80935A0290935B02A0935C02B0939D
:100AC0005D020895409158025091590220915602BA
:100AD00030915702841795072CF1309355022093DB
:100AE00054025093570240935602909359028093B8
:100AF00058028091540290915502209156023091F3
:100B00005702820F931F2091580230915902820F91
:100B1000931F63E070E00E9411277093530260936B
:100B200052020895821793074CF030935502209398
:100B300054029093570280935602DBCF20915402C7
:100B40003091550228173907A4F6909355028093E7
:100B50005402CFCF8F929F92AF92BF92CF92DF92EB
:100B6000EF92FF92CF93C1E0C09360020E94FE1FFC
:100B7000609380027093810280938202909383023B
:100B800010928402109285021092860210928702BF
:100B9000CCBB80916D00806280936D0060911301E9
:100BA00070911401072E000C880B990B0E942F20C6
:100BB00010926D008091840290918502A09186022E
:100BC000B0918702892B8A2B8B2BE9F410925F025C
:100BD00010925E0280915E0290915F028835924091
:100BE0000CF05EC00E943C0580915E0290915F0215
:100BF000CF91FF90EF90DF90CF90BF90AF909F90FC
:100C00008F900C94620560917C0270917D028091BE
:100C10007E0290917F02C0907802D0907902E0909D
:100C20007A02F0907B026C197D098E099F090E945F
:100C30002D256B017C01C0923402D0923502E092E6
:100C40003602F092370260918402709185028091A1
:100C50008602909187020E942D254B015C01A7011D
:100C6000960160E070EA8CE095E40E9485249B0187
:100C7000AC01C501B4010E9452262AE335E74EE5D6
:100C80005FE30E94522620E030E040E251E40E94FF
:100C900052260E94F72470935F0260935E029ACFFF
:100CA000CF91FF90EF90DF90CF90BF90AF909F904B
:100CB0008F9008952091500230915102032E000C24
:100CC000440B550B60915A0270915B0280915C025B
:100CD00090915D020E94472730933F0220933E028D
:100CE00008951F920F920FB60F9211242F933F93E6
:100CF0004F935F936F937F938F939F93AF93BF9324
:100D0000EF93FF930E94FE1F60937402709375022D
:100D1000809376029093770280916002813099F5FA
:100D20008091740290917502A0917602B091770241
:100D30008093800290938102A0938202B0938302F9
:100D4000109260028091740290917502A0917602D7
:100D5000B09177028093780290937902A0937A02FF
:100D6000B0937B02FF91EF91BF91AF919F918F91D3
:100D70007F916F915F914F913F912F910F900FBE97
:100D80000F901F9018958091740290917502A09118
:100D90007602B09177024091800250918102609179
:100DA000820270918302841B950BA60BB70B4097B0
:100DB000A105B105B8F28091840290918502A091BD
:100DC0008602B09187020196A11DB11D8093840215
:100DD00090938502A0938602B0938702809174025B
:100DE00090917502A0917602B09177028093800273
:100DF00090938102A0938202B09383028091740247
:100E000090917502A0917602B091770280937C0256
:100E100090937D02A0937E02B0937F02A3CF209196
:100E20004402309145024091460250914702609140
:100E300040027091410280914202909143020E94CF
:100E400021242BED3FE049E450E40E94852420E07A
:100E500030E044E353E40E9452260E94F72477FDD9
:100E600005C07093490260934802089568597E4F07
:100E7000F8CF4F925F926F927F928F929F92AF9234
:100E8000BF92CF92DF92EF92FF9260914A027091EF
:100E90004B02072E000C880B990B0E942F2520E097
:100EA00030E044E353E40E9485242BED3FE049E425
:100EB00050E40E9452266B017C010E9480242B0189
:100EC0003C0120E030E040E45FE360914402709137
:100ED000450280914602909147020E9452264B01A2
:100EE0005C0120E030E040E85EE3C301B2010E9413
:100EF00052269B01AC01C501B4010E94A22360935C
:100F00004402709345028093460290934702C701C2
:100F1000B6010E94BF264B015C0120E030E040E4B6
:100F20005FE3609140027091410280914202909192
:100F300043020E9452266B017C0120E030E040E831
:100F40005EE3C501B4010E9452269B01AC01C701BA
:100F5000B6010E94A22360934002709341028093E5
:100F6000420290934302FF90EF90DF90CF90BF90AA
:100F7000AF909F908F907F906F905F904F9008956B
:100F8000AF92BF92CF92DF92EF92FF920F931F9397
:100F900081E10E949B2090934F0280934E02BC01FE
:100FA000990F880B990B1F921F9221E02F9328E62F
:100FB0002F93A12CB12C6501EE24EA9413E0F12EBD
:100FC00000E010E020E030E0A9010E94CC22709304
:100FD0004D0260934C0220910F0430911004C9011E
:100FE000860F971F90934B0280934A020F900F90A9
:100FF0000F900F901F910F91FF90EF90DF90CF9087
:10100000BF90AF900C943907CF93DF93C7E1D1E045
:1010100061E088810E941E2164E670E080E090E03B
:101020000E942F208AEE93E00E94150E6EEE72E071
:1010300080E090E00E942F2060E08AEE93E00E9422
:10104000630F609308017093090180930A019093E4
:101050000B0160E08881DF91CF910C941E21CF932A
:10106000DF93C5E1D1E061E088810E941E216CE23E
:1010700071E080E090E00E942F2085EC93E00E94D8
:10108000150E62E573E080E090E00E942F2060E0A2
:1010900085EC93E00E94630F60930C0170930D0147
:1010A00080930E0190930F0160E08881DF91CF91D2
:1010B0000C941E210E940F070E945A068091120173
:1010C000813059F40E94040883E680932B0164E682
:1010D00070E080E090E00C942F20823079F48091D1
:1010E0000002811102C00E942F0883E680932C0128
:1010F00064E670E080E090E00C942F20833070F084
:101100000E94040880910002811102C00E942F08F1
:1011100064E670E080E090E00C942F2008956AE38C
:1011200072E08DE892E00E9443178823B9F0809125
:101130003A0290913B0264E170E00E94FD267093B8
:101140003D0260933C0260913C0270913D02072E8B
:10115000000C880B990B0E942F25089510923D02D8
:1011600010923C02F0CF4F925F926F927F928F92DB
:101170009F92AF92BF92CF92DF92EF92FF920F9326
:101180001F93CF93DF93CDB7DEB72C970FB6F894AC
:10119000DEBF0FBECDBF8DE892E00E944D128DE8FC
:1011A00092E00E94B917182F8DE892E00E949B17D9
:1011B000813011F4113079F060E08DE892E00E9406
:1011C000A4150E944F0345E85AE16DE471E08DE8F3
:1011D00092E00E9462138DE892E00E94F113811167
:1011E00008C045E85AE16DE471E08DE892E00E94A4
:1011F00062130E94FE1F0091680210916902209103
:101200006A0230916B02601B710B820B930B603D85
:101210007B4F8140910508F012C180916802909146
:101220006902A0916A02B0916B02892B8A2B8B2BE9
:1012300009F405C1809106018F5F809306018091BA
:1012400048029091490264E670E00E941127609381
:1012500021018093220180913E0290913F022AE079
:1012600030E0B9010E94112760932301809324018B
:101270008091520290915302B9010E94112760930C
:101280002501809326018090080190900901A0908B
:101290000A01B0900B0120E030E048EC52E4C501B7
:1012A000B4010E9452266B017C0120E030E0A901CC
:1012B0000E94452618160CF43DC1C701B60190588E
:1012C00020E030E048EC52E40E9485240E94FE2495
:1012D00060932801C701B6010E94F7249B0177FFA4
:1012E00004C022273327261B370BC90164E670E0B0
:1012F0000E9411278093290140900C0150900D010C
:1013000060900E0170900F0120E030E048EC52E454
:10131000C301B2010E9452266B017C0120E030E043
:10132000A9010E94452618160CF407C1C701B60191
:10133000905820E030E048EC52E40E9485240E945E
:10134000FE2460932B01C701B6010E94F7249B0184
:1013500077FF04C022273327261B370BC90164E619
:1013600070E00E94112780932C0180913C028093B1
:101370002D018091380280932E018091500280933C
:101380002F0180918C0280933001809167028093BD
:10139000310120E030E0A901C501B4010E944526D9
:1013A00018160CF0CDC081E08093270180911001C8
:1013B0009091110197FDC7C020910002213009F0E2
:1013C000C2C09AE090932A0180932B0110922C01C5
:1013D000809103028093320109E09E012F5F3F4F0D
:1013E0004BE169E171E08DE892E00E94F8108823FA
:1013F00009F4DAC12B81422F50E08C8190E03A81D0
:10140000313009F0B0C034E6239F800D911D1124C6
:101410009093100480930F048D81882341F024E67B
:10142000829FC00111249093140180931301698558
:10143000613009F0A5C083E00E945E02ABC00E944B
:10144000FE1F609368027093690280936A02909312
:101450006B028DE892E00E947D1790E09093390234
:10146000809338026CE271E080E090E00E942F20CF
:101470000E948F080E94F72470933D0260933C0203
:101480001092060180910102813009F0D8CE1C86AD
:101490001B8610E000E08B859C850A97F0F58EE0B6
:1014A0000E949B20BC01990F880B990B0E942F254D
:1014B00022E538EB4EE750E40E94522620E030E06F
:1014C0004AE754E40E94852423E333E343E95FE3DE
:1014D0000E94852420E030E04BE654E40E9452262E
:1014E0006B017C01B801110F880B990B0E942F250D
:1014F0009B01AC01C701B6010E94A2230E94F72400
:101500008B018B859C8501969C878B8762E370E0BD
:1015100080E090E00E942F20BECF6B857C85C801C3
:101520000E94FD26CB0165E070E00E94FD266093DD
:10153000670285CEC701B601C3CEC701B601F9CE99
:101540001092270133CF20E030E0A901C301B2019E
:101550000E944526181624F481E080932A0138CF92
:1015600010922A0135CF6CE964039001659F300D1C
:101570001124281B390B3093100420930F044CCFF7
:10158000643689F560E08AE090E00E94480283E0DA
:101590000E945E028E81809312018F8180931104DC
:1015A000388580913C0290913D02343030F4AC019A
:1015B0004B5A51094930510540F02091FD0121302D
:1015C00009F097C0343008F094C024E0288721E067
:1015D0002093FD018F3B91050CF0B0C08E3B91052F
:1015E00009F0AEC09DC0653649F461E08AE090E044
:1015F0000E94480283E00E945E02CCCF6E3649F41E
:1016000062E08BE090E00E94480283E00E945E026C
:10161000C1CF6F3649F461E08BE090E00E94480250
:1016200083E00E945E02B6CF683749F460E08CE048
:1016300090E00E94480283E00E945E02ABCF6937CF
:1016400049F461E08CE090E00E94480283E00E944F
:101650005E02A0CF623849F460E08DE090E00E9425
:10166000480283E00E945E0295CF633849F461E04E
:101670008DE090E00E94480283E00E945E028ACFE3
:10168000683249F46AE08EE090E00E94480283E00C
:101690008093FC017FCF693241F46BE08EE090E0F3
:1016A0000E9448021092FC0175CF663631F482E048
:1016B000809336010E94C0026DCF613731F48DE016
:1016C000809336010E94C00265CF6A3831F486E209
:1016D000809336010E94C0025DCF623029F06D30E8
:1016E00019F0663209F056CF89E090E00E94480276
:1016F000A2CE3830E8F48A3A91053CF48231910563
:1017000034F4223009F06ACF02C0223089F428E094
:10171000288722E02093FD018F3B91050CF45ECFDA
:101720008091FD01823061F481E08093FD0108C069
:101730008F3B91050CF452CF213091F71092FD01AF
:101740008885893028F490910701891380930701D7
:101750008981882359F090E02091070121111FC051
:10176000880F991F90933501809334010E94A10343
:101770002C960FB6F894DEBF0FBECDBFDF91CF9190
:101780001F910F91FF90EF90DF90CF90BF90AF909F
:101790009F908F907F906F905F904F90089590935F
:1017A000350180933401E2CF8DE892E00E94E91385
:1017B000809104028F5F80930402833069F40E9459
:1017C0004A020E94A80268EB7BE080E090E00E9461
:1017D0002F200E94C002CCCF843050F285E00E94BE
:1017E0005E02C6CF0E945A080C94B3080E94AA0554
:1017F0000E94C00780910701813009F05EC030E08F
:1018000020E050E040E066E070E082E194E00E9479
:10181000D7170E945A0661E08DE00E941E2162E304
:1018200070E080E090E00E942F2060E08DE00E9458
:101830001E2120918C028091500290915102223001
:1018400011F0253019F483309105ECF42091340126
:1018500030913501409111046AE0469FA0011124A6
:1018600060913E0270913F02641775071CF0821769
:1018700093074CF4220F331F8217930724F4853FFC
:1018800091400CF444C060E086E00E941E2164E6B2
:1018900070E080E090E00E942F2081EB93E00E94B6
:1018A000AB1C68EE73E080E090E00E942F200E9465
:1018B000F20B61E086E00C941E21823059F430E096
:1018C00020E050E040E067E070E082E194E00E94B8
:1018D000D7179FCF9DEF980F943058F430E020E059
:1018E00050E040E068E070E082E194E00E94D717A9
:1018F00090CF873008F48DCF30E020E050E040E01A
:1019000069E070E082E194E00E94D71782CF809175
:10191000020281110AC0F894109288021092890282
:1019200010928A0210928B0278940895CF9364E00B
:1019300081E094E00E945D1961E074E08AEE93E03A
:101940000E94FB0C63E08CED93E00E945D196CED4E
:1019500073E085EC93E00E94FB0CE1EBF3E0138273
:10196000128288EE93E0A0E0B0E084839583A683A2
:10197000B7838AEE91E091838083C8E0C48789E0D1
:101980008587138A128A63E68DE892E00E94CA0F67
:10199000EDE8F2E08EE591E091838083C58784B71E
:1019A00080938C026AEF71E081E692E0CF910C9413
:1019B0007C2381E692E00C940D23FB018081883228
:1019C00029F030F4803111F0823231F481E0089551
:1019D0008B33E1F38234D1F380E00895FC01728708
:1019E000618717821086108289E0838381E0848377
:1019F000858386830895FC01168A158A11820C94CA
:101A0000EE0CCF93DF93EB0167E0CE010E94041A46
:101A100091E02F81281390E0892FDF91CF910895D5
:101A2000EF92FF920F931F93CF93DF938C017B0173
:101A3000D42FFC01818592850E945019C0E041E0BD
:101A4000B701F801818592850E948019882329F0C9
:101A5000DC1729F0CF5FDC1790F780E006C0B701F4
:101A6000C8010E94010D8823A9F3DF91CF911F9136
:101A70000F91FF90EF900895EF92FF920F931F93B5
:101A8000CF93DF938C01EB017A01FC018185928574
:101A90000E943C18882311F1BE01F80181859285CE
:101AA0000E942D1940E06EEBF801818592850E941D
:101AB000DD18E701F9E0EF0EF11CF8018185928550
:101AC0000E9411198993CE15DF05B9F7F8018185B8
:101AD00092850E943C1891E0813009F090E0892FB6
:101AE000DF91CF911F910F91FF90EF9008950F9389
:101AF0001F93CF93DF93EC018B0189859A850E9418
:101B00003C1889859A8501151105C9F40E944C1964
:101B100040E064EB89859A850E94DD1889859A8565
:101B20000E94B218182F89859A850E943C1881E07E
:101B3000111180E0DF91CF911F910F910895B801AD
:101B40000E942D19E5CFFC01818592850E94B21873
:101B500091E0813009F090E0892F08958950833019
:101B600048F4E82FF0E0EE0FFF1FE459FE4F8081AC
:101B7000918108958EEE92E00895FC012181222347
:101B800021F060E082810C941E210895FC012181E6
:101B9000222321F061E082810C941E210895CF92CE
:101BA000DF92EF92FF920F931F93CF93DF93EC019D
:101BB000862F9D819923D1F09881911117C00E94A1
:101BC000FE1F6B017C01CE010E94A30D811124C078
:101BD0000E94FE1F6C197D098E099F096E3E72409E
:101BE00081059105C8F40E94B31FEDCF0E94AE0D90
:101BF0008C01CE010E94BD0DB80190E080E00E94F2
:101C00002F20CE01DF91CF911F910F91FF90EF9088
:101C1000DF90CF900C94C60DDF91CF911F910F9163
:101C2000FF90EF90DF90CF900895CF93DF93EC017A
:101C300089859A850E943C1889859A850E944C194D
:101C4000488164E489859A850E94DD188C81882307
:101C500031F06B81CE01DF91CF910C94CF0DDF91EC
:101C6000CF910895FA01218130E0322F2227330FDE
:101C7000330F330F808148E0849FC0011124282B4B
:101C8000392BDB018C918031D1F467816623B9F067
:101C900070E08681AB01481B5109CA019695982FC7
:101CA0008827979587950E9411276052710953E004
:101CB000220F331F5A95E1F72078260F371FC901ED
:101CC0000895FB01460F571FE417F50729F081918E
:101CD0008823D1F380E0089581E008950F931F9346
:101CE000CF93DF938C01EA010E943C0D982F88234B
:101CF00081F049E050E0BE01C8010E94610E8111EF
:101D000007C068E0CE010E94041A91E028852813DC
:101D100090E0892FDF91CF911F910F910895CF937C
:101D2000DF93CDB7DEB729970FB6F894DEBF0FBEAD
:101D3000CDBFFB012081203199F0AE014F5F5F4F95
:101D40000E946E0E882331F08D818F33A9F020F42C
:101D50008F31A1F080E007C08F3521F08F37D1F7A8
:101D60008CE001C08BE029960FB6F894DEBF0FBE61
:101D7000CDBFDF91CF9108958AE0F5CF89E0F3CF11
:101D80000F931F93CF93DF93CDB7DEB728970FB68E
:101D9000F894DEBF0FBECDBF8C01FC01818592851A
:101DA0000E945019F8011782108641E0BE016F5F52
:101DB0007F4FF801818592850E948019882391F1D7
:101DC000BE016F5F7F4FC8010E94010D882369F338
:101DD000F80187818F5F8783BE016F5F7F4FC801E6
:101DE0000E94DD0C882309F3F80180858F5F8087CE
:101DF000808181110BC0BE016F5F7F4FC8010E94BF
:101E0000770D882319F081E0F8018083BE016F5FB0
:101E10007F4FC8010E948F0EF8019381981728F612
:101E20008383C3CF28960FB6F894DEBF0FBECDBF15
:101E3000DF91CF911F910F910895EF92FF920F9331
:101E40001F93CF93DF93CDB7DEB729970FB6F894E2
:101E5000DEBF0FBECDBF8C017B01AE014F5F5F4F78
:101E60000E946E0E8823A1F0AE014F5F5F4FB70155
:101E7000C8010E94320E29960FB6F894DEBF0FBE3D
:101E8000CDBFDF91CF911F910F91FF90EF900895FB
:101E900080E894EEF0CF0E941D0F813824EE920767
:101EA0006CF0BC01990F880B990B0E942F2520E044
:101EB00030E040E05CE30E945226089560E070E06C
:101EC0008EEF92EC08950F931F93CF93DF93CDB7CE
:101ED000DEB728970FB6F894DEBF0FBECDBF8C01DA
:101EE000462FBE016F5F7F4F0E94100D882389F03F
:101EF000BE016F5F7F4FC8010E944B0F28960FB63F
:101F0000F894DEBF0FBECDBFDF91CF911F910F912F
:101F1000089560E070E08EEF92ECF0CF8E5D9E4F02
:101F2000DC018D919C91DC01ED91FC910084F185A7
:101F3000E02D09948E5D9E4FDC018D919C91DC011A
:101F4000ED91FC910190F081E02D09948E5D9E4F02
:101F5000DC018D919C91DC01ED91FC910284F38573
:101F6000E02D09948E5D9E4FDC018D919C91DC01EA
:101F7000ED91FC910484F585E02D09948E5D9E4FD2
:101F8000DC018D919C91DC01ED91FC910680F78143
:101F9000E02D0994FC011382128288EE93E0A0E008
:101FA000B0E084839583A683B78386EC91E0918328
:101FB00080836487DF01A95EBE4F8EE293E01196B5
:101FC0009C938E93129611961C921E9212961196C5
:101FD0001C921E92179611961C921E9215971C9297
:101FE000119689E293E08D939C93E05EFE4F86E22A
:101FF00093E09183808308950F931F93CF93DF9392
:10200000EC0190E080E08C010F5F1F4F8897D8F4BF
:10201000E881F9810084F185E02DCE010995892BB5
:1020200051F0E881F9810284F385E02DCE01099514
:1020300010E000E0EDCF61E070E080E090E00E9411
:102040002F20C801E0CFDF91CF911F910F9108950C
:10205000BF92CF92DF92EF92FF920F931F93CF9395
:10206000DF938C017B01B42ED0E0C0E06C018EEDDB
:10207000C81A8EEFD80AE114F10491F1CE3FD105D0
:1020800078F5D6018D919C91DC01ED91FC91008455
:10209000F185E02D0995892BC1F0F60180819181B0
:1020A000DC01ED91FC910284F385E02D09958D30E2
:1020B00041F38A3021F4209721F3BB2089F0F80105
:1020C000EC0FFD1F86872196DCCFB1E0EB1AF108FB
:1020D00039F061E070E080E090E00E942F20CBCFEB
:1020E000F801EC0FFD1F16868C2FDF91CF911F9109
:1020F0000F91FF90EF90DF90CF90BF9008950F93D6
:102100001F93CF93DF93EC018B01BA0140E00E9453
:102110002810B801CE010E960E94BD2921E0892B1E
:1021200009F020E0822FDF91CF911F910F91089548
:102130008F929F92AF92BF92CF92DF92EF92FF92D7
:102140000F931F93CF93DF938C017B01D0E0C0E00E
:10215000C42ED12C4C018EED881A8EEF980AE11412
:10216000F10491F1CC15DD0578F55E01A3EFAA1A13
:10217000AEEFBA0AA00EB11EF40180819181DC019C
:10218000ED91FC910084F185E02D0995892B89F072
:10219000F40180819181DC01ED91FC910284F38551
:1021A000E02D0995F50181935F012196CC16DD069E
:1021B00019F7F1E0EF1AF10839F061E070E080E022
:1021C00090E00E942F20CBCF0C0F1D1FF801E35F82
:1021D000FE4F10828C2FDF91CF911F910F91FF90B6
:1021E000EF90DF90CF90BF90AF909F908F90089529
:1021F000AF92BF92CF92DF92EF92FF920F931F9315
:10220000CF93DF93EC016B01142F79015C018EED0C
:10221000A81A8EEFB80A61EC70E0D5018D919C91FF
:102220000E9488214AE050E0612FF5018081918170
:102230000E94B42240E064EF71E0CE010E942810B9
:102240008E858E3391F5D5018D919C91412F50E073
:10225000DC01ED91FC910280F381E02DB60109953E
:1022600040E068E873E1CE010E942810402F60EA48
:102270007FE0CE010E949810C35FDE4FF70110E0AF
:10228000CF018E199F098017910740F489918038FA
:1022900019F410823196F4CF8083FCCFF70180814E
:1022A000882319F08181843060F080E0DF91CF9144
:1022B0001F910F91FF90EF90DF90CF90BF90AF9064
:1022C000089581E0F3CFEF92FF920F931F93CF9386
:1022D000DF93EC017B018A010E94FC0FFE01EE5DA1
:1022E000FE4FB701808191810E94D12140E0B80169
:1022F000CE01DF91CF911F910F91FF90EF900C9441
:102300002810EF92FF920F931F93CF93DF93EC016E
:102310007B018A010E94FC0FFE01EE5DFE4FB701BA
:10232000808191810E94BF2140E0B801CE01DF9100
:10233000CF911F910F91FF90EF900C9428100F9365
:102340001F93CF93DF938C01EB0144EF51E066E7DD
:1023500072E00E948111B801625F7F4F4FE050E050
:10236000CE010E940D2A1F8640E064EF71E0C80193
:102370000E942810FE0101900020E9F7CF0101978B
:102380008C1BDF91CF911F910F9108958F929F9297
:10239000AF92BF92CF92DF92EF92FF920F931F9373
:1023A000CF93DF93EC016B0149015A010E94FC0FAE
:1023B0007E018EEDE81A8EEFF80AB601F7018081F2
:1023C00091810E9488212AE030E0B501A401F70143
:1023D000808191810E948E2240E0B801CE01DF9180
:1023E000CF911F910F91FF90EF90DF90CF90BF9012
:1023F000AF909F908F900C942810AF92BF92CF9285
:10240000DF92EF92FF920F931F93CF93DF938C0194
:102410005B016A0179010E94FC0FE801CE5DDE4F8D
:10242000B501888199810E94882162E28881998121
:102430000E94B421B601888199810E94882162E2BC
:10244000888199810E94E82140E0B701C801DF91AD
:10245000CF911F910F91FF90EF90DF90CF90BF90A1
:10246000AF900C9428100F931F93CF93DF93EC0140
:102470008A01A9010E948111882341F0B801CE018F
:102480000E960E94BD2921E0892B09F020E0822FC1
:10249000DF91CF911F910F910895FC01E05EFE4FF7
:1024A0004081518124EF31E063E273E00E943312F6
:1024B00081E00895CF92DF92EF92FF920F931F93E6
:1024C000CF93DF93EC017C018EEDE81A8EEFF80AD2
:1024D000D7016D937C938EE0C82ED12C8E01005EC7
:1024E0001E4FF70180819181DC01ED91FC91008408
:1024F000F185E02D0995892B59F0F70180819181B3
:10250000DC01ED91FC910284F385E02D0995E9CF82
:10251000F8014081518124EF31E060E273E0CE01A7
:102520000E94331281115DC0D7018D919C91DC0115
:10253000ED91FC910084F185E02D0995892B59F0EE
:10254000F70180819181DC01ED91FC910284F3859A
:10255000E02D0995E9CF24EF31E04AE153E06DE148
:1025600073E0CE010E94331281113BC064EF71E031
:1025700080E090E00E942F20B1E0CB1AD10809F052
:10258000B0CFF8014081518124EF31E067E173E081
:10259000CE010E94331264E670E080E090E00E9479
:1025A0002F20D8014D915C9124EF31E064E173E07C
:1025B000CE010E94331264E670E080E090E00E9459
:1025C0002F20F8014081518124EF31E061E173E077
:1025D000CE010E94331264E670E080E090E00E9439
:1025E0002F20F8014081518124EF31E06CE073E04D
:1025F000CE010E94331264E670E080E090E00E9419
:102600002F20D8014D915C9124EF31E067E073E019
:10261000CE010E943312D82E882379F18C8583361F
:1026200051F0F8014081518124EF31E06DEF72E00B
:10263000CE010E94331264E670E080E090E00E94D8
:102640002F20CE010E94FC0F62E771E0D7018D912F
:102650009C910E94D12141E064EF71E0CE010E9483
:1026600028108E01025F1F4F64EF72E0C8010E94C4
:10267000CF29892B61F088E08D878D2DDF91CF9157
:102680001F910F91FF90EF90DF90CF9008956BEE28
:1026900072E0C8010E94CF29892B11F089E0ECCFAC
:1026A00062EE72E0C8010E94CF29892B11F08AE006
:1026B000E3CF69ED72E0C8010E94CF29892BE9F2CE
:1026C0008BE0DACFAF92BF92CF92DF92EF92FF9280
:1026D0000F931F93CF93DF93EC015B016A010E947C
:1026E000FC0F28E833E14EE251E066E371E0CE01F1
:1026F0000E943312882309F460C07E0180EEE81A3C
:102700008EEFF80AF7014081518124EF31E062E257
:1027100071E0CE010E943312882309F44EC0F70104
:102720004081518124EF31E064E171E0CE010E94EB
:102730003312882309F441C060E071E08E010E5D20
:102740001E4FF801808191810E948821B501F80116
:10275000808191810E94AC216CEF70E0F801808152
:1027600091810E9488214AE050E0B601F801808101
:1027700091810E94C6226AEF70E0F8018081918108
:102780000E94BF21F7016081718140E157E2CE01D3
:102790000E947F10882389F040E157E26FEE70E0DD
:1027A000CE01DF91CF911F910F91FF90EF90DF90BD
:1027B000CF90BF90AF900C947F1080E0DF91CF91CD
:1027C0001F910F91FF90EF90DF90CF90BF90AF904F
:1027D000089528EB3BE04AED50E063EE70E00C9486
:1027E0003312CF93DF93EC01FC01E05EFE4F40819A
:1027F000518128EC30E06DEC70E00E9433128823A8
:10280000E1F040E068EC70E0CE010E9428102E96C6
:1028100066E771E0CE010E94FD29892B91F061E805
:1028200071E0CE010E94FD29892B69F06CE871E00E
:10283000CE010E94FD29892B41F080E0DF91CF91EC
:10284000089581E0FBCF85E0F9CF8AE0F7CF0F93C1
:102850001F93CF93DF93EC018A01A9010E946311BA
:10286000882341F0B801CE010E960E94BD2921E0D7
:10287000892B09F020E0822FDF91CF911F910F91DA
:102880000895EF92FF920F931F93CF93DF93CDB7ED
:10289000DEB765970FB6F894DEBF0FBECDBFF90166
:1028A00001900020E9F73197E21BF30B359780F593
:1028B0008C013F932F931F924F931F926F9387E941
:1028C00091E09F938F939E012F5F3F4F79013F933C
:1028D0002F930E94242AF801E05EFE4F408151812F
:1028E00024EF31E0B701C8010E9427140FB6F89415
:1028F000DEBF0FBECDBF65960FB6F894DEBF0FBE2C
:10290000CDBFDF91CF911F910F91FF90EF90089570
:1029100080E0F1CF9F92AF92BF92CF92DF92EF9281
:10292000FF920F931F93CF93DF93CDB7DEB76897D6
:102930000FB6F894DEBF0FBECDBF7C01B42EA22E21
:10294000932E6C0120EEC21A2EEFD20AF6014081BE
:10295000518124EF31E0662309F44DC066E972E04D
:102960000E943312811113C080E068960FB6F8946C
:10297000DEBF0FBECDBFDF91CF911F910F91FF90B2
:10298000EF90DF90CF90BF90AF909F90089564E656
:1029900070E080E090E00E942F20F601408151819C
:1029A00024EF31E06CE872E0C7010E943312882303
:1029B000D9F2BB20C9F21F930F939F92AF921F923F
:1029C000BF928CEA91E09F938F938E010F5F1F4F10
:1029D0001F930F930E94242AF6014081518124EF16
:1029E00031E0B801C7010E9427140FB6F894DEBF8A
:1029F0000FBECDBFBACF6DE772E00E943312B5CFE4
:102A0000CF92DF92EF92FF920F931F93CF93DF93BA
:102A1000EC01680187010E94C611B601CE010E9635
:102A20000E94BD2921E0892B09F020E0822FDF914F
:102A3000CF911F910F91FF90EF90DF90CF9008956D
:102A4000EF92FF920F931F93FC01E05EFE4F008117
:102A50001181262F30E050E040E064EFE62EFF24A5
:102A6000F39462EC72E00E9400151F910F91FF90A9
:102A7000EF900895EF92FF920F931F93FC01E05E99
:102A8000FE4F00811181262F30E050E040E064EFDE
:102A9000E62EFF24F39469EB72E00E9400151F916B
:102AA0000F91FF90EF900895EF92FF920F931F9375
:102AB000FC01E05EFE4F00811181262F30E050E0E6
:102AC00040E064EFE62EFF24F3946FEA72E00E9488
:102AD00000151F910F91FF90EF900895EF92FF92D4
:102AE0000F931F93FC01E05EFE4F00811181262FA2
:102AF00030E050E040E064EFE62EFF24F39465EA16
:102B000072E00E9400151F910F91FF90EF900895C1
:102B1000EF92FF920F931F93CF93DF93EC01790114
:102B200098010E94FD11B701CE010E960E94BD29A9
:102B300021E0892B09F020E0822FDF91CF911F91B6
:102B40000F91FF90EF900895AF92BF92CF92DF92D6
:102B5000EF92FF920F931F93CF93DF93EC0120E24C
:102B60003EE4662309F4EEC041E352E069E372E01B
:102B70000E9433127E0180EEE81A8EEFF80AF70108
:102B80004081518120E137E264E272E0CE010E948F
:102B90003312882309F4CAC0F7014081518120E132
:102BA00037E266E072E0CE010E943312882309F416
:102BB000BDC068EC70E080E090E00E942F206E01C4
:102BC000F9EECF1AFEEFDF0AF6014081518141157F
:102BD000510509F5F7014081518120E335E762EBAA
:102BE00071E0CE010E943312882309F49FC0F701DF
:102BF0004081518120E137E269EA71E0CE01DF9145
:102C0000CF911F910F91FF90EF90DF90CF90BF90E9
:102C1000AF900C943312F7012081318100E117E26B
:102C200062EF71E0CE010E948815882309F47EC00E
:102C3000CE010E94FC0F8E010E5D1E4F68EE71E00A
:102C4000F801808191810E948821F6016081718163
:102C5000F801808191810E9488215E01F7EEAF1A10
:102C6000FEEFBF0AF50180819181892B79F06EEB2F
:102C700071E0F801808191810E94AC21F5016081B1
:102C80007181F801808191810E9488216E01F5EEA9
:102C9000CF1AFEEFDF0AF60180819181892B79F04E
:102CA0006EEB71E0F801808191810E94AC21F60108
:102CB00060817181F801808191810E94882160EC9E
:102CC00071E0F801808191810E94D121F70160813A
:102CD000718140E157E2CE010E947F10882331F1DB
:102CE000F5014081518141155105A1F4F601408162
:102CF00051814115510509F46DCFF70120813181D2
:102D000000E117E26FEB71E0CE010E94881581119E
:102D100061CF0CC0F7012081318100E117E263ED42
:102D200071E0CE010E9488158111E0CF80E0DF9133
:102D3000CF911F910F91FF90EF90DF90CF90BF90B8
:102D4000AF90089546E951E06EE971E00E943312B8
:102D5000882361F38E01005E1E4FF801408151818E
:102D600020E137E269E871E0CE010E943312882346
:102D7000E9F2F8014081518120E137E26EE771E02C
:102D80003DCF0F931F93FC01E95EFE4F718360837B
:102D9000329651834083329631832083FC0125850E
:102DA000283058F0AB01E05EFE4F2081318100E118
:102DB00017E261E471E00E9488151F910F91089558
:102DC000AF92BF92CF92DF92EF92FF920F93CF9389
:102DD000DF935B016A01E22E0E960E94CF29EC017F
:102DE000892B19F1C5010E94C6298C0F9D1FC0E0D7
:102DF0000E2C000CFF08C01741F0B7010E94F22909
:102E0000009799F00196CF5FF6CF0E949F29F601B7
:102E10009183808381E0DF91CF910F91FF90EF90BC
:102E2000DF90CF90BF90AF90089580E0F4CFAF9245
:102E3000BF92CF92DF92EF920F931F93CF93DF93C6
:102E4000EC016A015901102F0E2D44EF51E00E9450
:102E50008111212FA501B601CE010E94E016182F85
:102E6000882331F040E064EF71E0CE010E94281029
:102E7000812FDF91CF911F910F91EF90DF90CF9035
:102E8000BF90AF900895EF920F939B0142E0E42E24
:102E90000CE24BEC52E062ED72E00E9417170F91CA
:102EA000EF900895EF920F93CF93DF9300D0CDB7BB
:102EB000DEB7FC012585EE24E3940CE22830A8F06F
:102EC0009E012F5F3F4F43E652E06CE672E00E94A6
:102ED0001717882341F089810F900F90DF91CF91D0
:102EE0000F91EF90089580E0F7CF9E012F5F3F4F45
:102EF00042E552E06AE572E0EACFEF920F93CF939A
:102F0000DF9300D0CDB7DEB7E12C0CE29E012F5F3E
:102F10003F4F44E452E06BE472E00E9417178823AD
:102F200041F089810F900F90DF91CF910F91EF9039
:102F3000089580E0F7CFEF920F93CF93DF9300D007
:102F4000CDB7DEB7E12C0CE29E012F5F3F4F4BE681
:102F500051E064E771E00E941717882341F08981EE
:102F60000F900F90DF91CF910F91EF9008958FEF19
:102F7000F7CFEF920F93CF93DF9300D0CDB7DEB7AB
:102F8000E12C0CE29E012F5F3F4F44E551E06FE5DD
:102F900071E00E941717882341F089810F900F90EC
:102FA000DF91CF910F91EF9008958FEFF7CF4115FB
:102FB000510529F4EAE7F0E080818F7780836A3059
:102FC0007105B9F0CB01880F991F880F991F807286
:102FD00067706860682B88E10FB6F894A8958093B5
:102FE00060000FBE60936000E0E6F0E080818064E6
:102FF0008083232BD9F483B7817F846083BFF894C7
:1030000083B7816083BF85B7806685BF8F7D85BFAD
:103010007894889583B78E7F83BF7894452B29F465
:10302000EAE7F0E0808180688083089583B7817F3C
:10303000846083BFF89483B7816083BF7894889558
:1030400083B78E7F83BF7894E9CF1F920F920FB61C
:103050000F9211248F930FB6F894A8958091600079
:10306000886180936000109260000FBE8F910F9076
:103070000FBE0F901F901895FF920F931F93CF9341
:10308000DF93FC011081C181D281F8948981012FE5
:1030900000958023898378948DE7F82EFA94FF2099
:1030A00061F182E090E00E94682088818123B1F381
:1030B000F8948A8180238A838981812B89837894FB
:1030C00080EE91E00E946820F894898180238983B2
:1030D00086E490E00E94682088811823C1E009F00E
:1030E000C0E078948AE991E00E9468208C2FDF91FB
:1030F000CF911F910F91FF900895C0E0F7CF1F93DC
:10310000CF93DF93FC011081C181D281912F9095E3
:1031100060FF16C0F8948A8189238A838981812B74
:1031200089838AE090E00E9468208A81182B1A83A4
:10313000789487E390E0DF91CF911F910C94682001
:10314000F8948A8189238A838981812B898381E408
:1031500090E00E9468208A81182B1A83789485E079
:1031600090E0E9CF0F931F93CF93DF93FC01108181
:10317000C181D281F8948981812B89838A81012F31
:10318000009580238A8383E090E00E9468208981F3
:10319000802389838AE090E00E946820C881789427
:1031A00085E390E00E9468201C2381E009F480E020
:1031B000DF91CF911F910F910895DF92EF92FF92CF
:1031C0000F931F93CF93DF93EC01D62EE42E08E0EC
:1031D00010E0FF24F39461E08D2D8F2109F460E06D
:1031E000CE010E947F18FF0C01501109A1F7E110D8
:1031F00010C0F894E981FA819181888180958923B2
:103200008183E981FA8192818881809589238283F3
:103210007894DF91CF911F910F91FF90EF90DF9005
:103220000895EF92FF920F931F93CF93DF937C014A
:1032300008E010E0C0E0D1E0C7010E94B21881119F
:10324000CD2BDD0F01501109B9F78C2FDF91CF91F4
:103250001F910F91FF90EF900895EF92FF920F93BF
:103260001F93CF93DF938C017B0140E065E50E94C3
:10327000DD18E70188E0E80EF11C699140E0C80123
:103280000E94DD18CE15DF05C1F7DF91CF911F91A8
:103290000F91FF90EF90089540E06CEC0C94DD18D6
:1032A000FC011386158614861286118610861782F5
:1032B000168215821482138208951F93CF93DF9391
:1032C000EC01162F60E0812F0E94E220612F70E058
:1032D000FB01EA59FC4FE491E883FB01E358FC4F02
:1032E000E491F0E0EE0FFF1FEC56FC4F85919491B6
:1032F0009A838983CE01DF91CF911F910C9450194D
:10330000BF92CF92DF92EF92FF920F931F93CF93D2
:10331000DF93EC01B62EC72E142F8D85811105C0C9
:10332000CE010E943C1881110EC01B861D861C8692
:1033300080E0DF91CF911F910F91FF90EF90DF9090
:10334000CF90BF90089540E060EF111101C06CEE86
:10335000CE010E94DD1801E0E12CD12C11E0CE015C
:103360000E94B218F82ECE010E94B21891E0F91214
:1033700018C0813099F51134C0F2DB86D11002C03B
:1033800081E08D878B81882381F22396EB2DFC2DA4
:10339000CF01089629912193E817F907D9F781E021
:1033A000C8CFEE2DF0E0F8120FC08B851817A0F4EF
:1033B000DE01AE0FBF1F13968C91802379F4F12CA0
:1033C000193008F41C87D12EEC0FFD1F8381902F3C
:1033D0009095892383830AC08113F1CFFE01EE0DFE
:1033E000F11D8381802B8383FF24F3946F2DCE0105
:1033F0000E947F181F5F000F11F4E39401E087E043
:103400008E1508F0ACCFB7CFDC0180E0615090F0B2
:103410009D919827E92FEF70F0E0E15DFC4F24913A
:10342000E92FE295EF70F0E0E15CFC4FE491822F30
:103430008E27ECCF08951F920F920FB60F92112492
:103440002F933F934F935F936F937F938F939F93AC
:10345000AF93BF93EF93FF93E0911304F0911404A3
:103460000995FF91EF91BF91AF919F918F917F91BE
:103470006F915F914F913F912F910F900FBE0F90E1
:103480001F9018958091470490914804891B990BCF
:10349000089590914804809147042FEF3FEF9817CB
:1034A00048F4E92FF0E0E75BFB4F208130E09F5FBD
:1034B00090934804C9010895E0914804809147041D
:1034C000E81730F4F0E0E75BFB4F808190E008956F
:1034D0008FEF9FEF08950895CF93DF931F92CDB79D
:1034E000DEB76983209124042223F9F0209125047A
:1034F000203258F021E030E0FC013383228390E059
:1035000080E00F90DF91CF91089580912604E82FFD
:10351000F0E0E95DFB4F998190838F5F80932604F3
:103520008093250481E090E0ECCF61E0CE0101962C
:103530000E94D91AF7CFCF92DF92EF92FF920F93AA
:103540001F93CF93DF937C01CB018A012091240448
:10355000222389F0EB016B01C40ED51ECC15DD05CD
:1035600069F06991D701ED91FC910190F081E02D16
:10357000C7010995F3CF642F0E94D91AC801DF91C2
:10358000CF911F910F91FF90EF90DF90CF90089512
:10359000E8E1F4E01382128288EE93E0A0E0B0E06C
:1035A00084839583A683B78388ED91E0918380839C
:1035B000089520918B04260F3327331F21323105C4
:1035C000ECF42091D604FC0190E080E0243069F016
:1035D00082E00895A0918B042191AC0143575B4F89
:1035E000A40FB52FB11D2C930196861798F38091E7
:1035F0008B04680F60938B0480E0089581E0089548
:1036000085ED8093BC008091BC0084FDFCCF1092BE
:10361000D604089585EC8093BC001092D6040895DA
:103620001F920F920FB60F9211242F933F934F9337
:103630005F936F937F938F939F93AF93BF93EF931A
:10364000FF938091B900887F803609F44CC008F060
:103650003FC0883209F4A8C018F5803109F49CC035
:10366000B8F4882309F4F9C0883009F495C0FF91B3
:10367000EF91BF91AF919F918F917F916F915F91EA
:103680004F913F912F910F900FBE0F901F90189563
:10369000883109F489C0803251F78093690415C0DC
:1036A000803409F49EC048F48033B9F38833F9F6C6
:1036B000809369040E940A1BDACF803509F485C023
:1036C000883509F496C0883491F60E94001BCFCF4C
:1036D000883909F48CC038F5883729F050F48836D9
:1036E00011F0803721F683E08093D60410926A04AB
:1036F00057C0883809F47BC0803919F0803809F048
:10370000B6CF80916A04803208F071C0E0916A04FB
:1037100081E08E0F80936A048091BB00F0E0E55950
:10372000FB4F80833DC0803B39F0E0F4803A09F4E0
:1037300079C0883A09F09BCF84E08093D604109238
:103740008C0410928B04E091D104F091D20409957D
:1037500080918B0481110FC081E080938B041092C3
:103760008D0409C0803C09F476C0883C09F473C01C
:10377000883B09F07CCFE0918C0481E08E0F809330
:103780008C04F0E0E357FB4F80818093BB00909165
:103790008C0480918B0429C08091D5048093BB0058
:1037A00085EC8093BC0063CF9091AE048091AD0412
:1037B000981758F5E091AE0481E08E0F8093AE0427
:1037C000F0E0E155FB4F8081E9CFE091AE0481E06C
:1037D0008E0F8093AE048091BB00F0E0E155FB4F6B
:1037E00080839091AE048091AD049817C8F285E86B
:1037F000D8CFE091AE0481E08E0F8093AE0480912B
:10380000BB00F0E0E155FB4F80838091D40481112F
:103810005CCF81E08093D30484EA8093BC00109253
:10382000D60425CF0E940A1B80916A04803230F4AE
:10383000E0916A04F0E0E559FB4F108260916A0460
:1038400070E0E091CF04F091D0048BE694E009950C
:1038500010926A040CCF85ECE0CF1092690435CF4A
:1038600090E080E0089508952091DB048091DC04CD
:10387000821769F030E0F901E352FB4F80812F5F3E
:103880003F4F2F7733272093DB0490E008958FEF8D
:103890009FEF0895CF93DF93DC01809164059091B1
:1038A0006505892B09F445C01C969C911C97EDE693
:1038B000F0E0983078F09E3058F0943130F0963146
:1038C00038F0F0E0E0E0963129F4ECE6F0E002C0F8
:1038D000EBE6F0E05FB7F89410926505109264058E
:1038E000309731F11C962C911C97D0E0C0E0273125
:1038F00010F4C8E6D0E088819BEF283048F02E30E5
:1039000030F09DEF243120F09FEF263108F49EEF38
:103910009823988340811C962C91283068F481E08C
:1039200090E001C0880F2A95EAF780958423808370
:103930005FBFDF91CF9108952E3018F42850330BDC
:10394000EECF263118F42E50330BE9CF8FEB263112
:1039500069F38FEFEBCF0F931F93CF93DF93EC01BE
:103960008091640590916505009711F00E944A1CB2
:1039700060E08C850E94E2208C8590E0FC01EA5991
:10398000FC4FE491E093DA04FC01E358FC4FE4912E
:10399000F0E0EE0FFF1FEC56FC4F859194919F874E
:1039A0008E878D8590E0FC01EA59FC4F249120938D
:1039B000D904FC01E358FC4FE491F0E0EE0FFF1F47
:1039C000E256FC4FA591B491B093D804A093D704CC
:1039D000109719F0EC91E22BEC9361E08D850E9439
:1039E000E2201092B00083E08093B1008C85883093
:1039F00070F08E3008F458C0843130F0863108F40D
:103A000053C0863109F04BC00CE610E002C00DE651
:103A100010E08FEF809360051092DB041092DC04BD
:103A2000E881F9810680F781E02DCE01099588892A
:103A3000998981152BE4920709F440C0C0F58038BC
:103A4000954209F443C04FB7F894F80190812C8552
:103A5000283008F045C081E001C0880F2A95EAF7B8
:103A6000892BF80180839C85F0E0E0E0973110F429
:103A7000E8E6F0E0208184E0983050F081E09E306C
:103A800038F082E0943120F081E0963108F080E057
:103A9000822B8083D0936505C09364054FBFDF916F
:103AA000CF911F910F9108950BE610E0B2CF8231B4
:103AB0002AE7920719F08115964929F68DE080933F
:103AC00063058EE48093610586E007C08AE18093F8
:103AD000630587E2809361058AE080936205B3CF36
:103AE0002E3018F42850330BB6CF263118F42E5050
:103AF000330BB1CF80E4263109F4B2CF80E0B0CFF0
:103B0000603825E2720721F06115EBE47E0789F445
:103B1000FC01208931892617370759F0718B608B9A
:103B200020916405309165058217930711F40C9478
:103B3000AB1C0895CF93DF93EC010E94801DCE0152
:103B4000DF91CF910C94AB1C1092600581E08093C3
:103B50005E0510925D050895E0916405F09165059C
:103B60003097C1F00288F389E02D309709F009946D
:103B70002091DC0430E0A9014F5F5F4F4F7755275C
:103B80009091DB04941731F023523B4FF90180836D
:103B90004093DC040895EF92FF920F931F93CF930D
:103BA000DF93E090B200F090DA04F8229091600583
:103BB0009F3F69F4F11004C00E94A41DE0925F05CC
:103BC000DF91CF911F910F91FF90EF900895C091D9
:103BD0006205CE0D80915F05C81B80916105C89F6D
:103BE000E0011124CD2FDD27C695C69529E0291BBC
:103BF000022F10E00C171D0708F02C2F920F909346
:103C0000600540915E0580915D05F11011C0215065
:103C1000342F330F2F3F19F0842B432FF8CF80938D
:103C20005D0530935E05983048F20E94AC1D13C0CC
:103C30002150330B01C0440F2A95EAF740935E05EB
:103C4000842B80935D05983008F4B8CF0E94AC1D9A
:103C500081E0F81621F00C171D0708F4ADCF8FEFA7
:103C600080936005ABCFCF93DF93EC01309160057B
:103C70003F3F99F1AE85BF858C919091DA048923FD
:103C800061F12091B20099E0931B80916205280FA9
:103C900080915F05281B80916105289F9001112468
:103CA000232F33272695269592171306B0F480917B
:103CB0005D0520915E05915018F0822B220FFBCFFD
:103CC00080935D0520935E05909360050E94AC1D76
:103CD00081E02A893B89232B09F080E0DF91CF9195
:103CE00008959C018091DC049091DB04891B990B61
:103CF00080589F4F60E870E00E941127811105C035
:103D0000C901F8940E94331E789490E00895CF92F0
:103D1000DF92EF92FF920F931F93CF93DF938C016B
:103D2000E62E8091D7049091D804892B09F454C0D1
:103D3000D8011C968C91C4E0883050F0C1E08E30E0
:103D400038F0C2E0843120F0C1E0863108F0C0E0F4
:103D5000CFB6F894D091B2008AE0D82E90E0E091EE
:103D6000D704F091D8048091D904DA94DD2039F198
:103D70009923C1F09081892B8083F0906305809115
:103D8000B2008D1B8F15B0F48BB38C2379F08BB3FD
:103D90008C2B8BBBD8011E96ED91FC9180810E94EB
:103DA000CB1DEDCF908180958923E6CFC8010E947D
:103DB000331EE5CFDF0D9E2D9170E694D0CF90811C
:103DC000892B8083CFBE8091B2008D1B8F1578F434
:103DD000C8010E94331EF7CF90E080E0DF91CF91C1
:103DE0001F910F91FF90EF90DF90CF90089581E0A9
:103DF00090E0F4CF1F920F920FB60F9211242F93E1
:103E00003F934F935F936F937F938F939F93AF9362
:103E1000BF93EF93FF9383B10E94CB1DFF91EF916E
:103E2000BF91AF919F918F917F916F915F914F91D2
:103E30003F912F910F900FBE0F901F9018951F92DA
:103E40000F920FB60F9211242F933F934F935F93CE
:103E50006F937F938F939F93AF93BF93EF93FF9352
:103E600086B10E94CB1DFF91EF91BF91AF919F91C1
:103E70008F917F916F915F914F913F912F910F9013
:103E80000FBE0F901F90189508958230E8F4E82F28
:103E9000F0E0EE0FFF1FE95CFE4F7183608381301D
:103EA00041F0809169008C7F482B40936900E89A2B
:103EB000089580916900837F440F551F440F551F5B
:103EC000482B40936900E99A08951F920F920FB60C
:103ED0000F9211242F933F934F935F936F937F9390
:103EE0008F939F93AF93BF93EF93FF93E09137012D
:103EF000F09138010995FF91EF91BF91AF919F919A
:103F00008F917F916F915F914F913F912F910F9082
:103F10000FBE0F901F9018951F920F920FB60F9221
:103F200011242F933F934F935F936F937F938F93BE
:103F30009F93AF93BF93EF93FF93E0913901F0917B
:103F40003A010995FF91EF91BF91AF919F918F91A8
:103F50007F916F915F914F913F912F910F900FBE85
:103F60000F901F90189508951F920F920FB60F9201
:103F700011242F933F938F939F93AF93BF9380917F
:103F80006B0590916C05A0916D05B0916E05309117
:103F90006A0526E0230F2D3768F129E8230F0396E1
:103FA000A11DB11D20936A0580936B0590936C054C
:103FB000A0936D05B0936E0580916605909167059D
:103FC000A0916805B09169050196A11DB11D80936E
:103FD000660590936705A0936805B0936905BF9146
:103FE000AF919F918F913F912F910F900FBE0F90A6
:103FF0001F9018950296A11DB11DD4CF2FB7F8942C
:1040000060916B0570916C0580916D0590916E05C6
:104010002FBF08953FB7F89480916605909167058A
:10402000A0916805B091690526B5A89B05C02F3FF2
:1040300019F00196A11DB11D3FBFBA2FA92F982FCE
:104040008827BC01CD01620F711D811D911D43E0C8
:10405000660F771F881F991F4A95D1F708958F9291
:104060009F92AF92BF92CF92DF92EF92FF926B013D
:104070007C010E940A204B015C01C114D104E104BF
:10408000F104E9F00E94B31F0E940A20681979091F
:104090008A099B09683E73408105910570F321E010
:1040A000C21AD108E108F10888EE880E83E0981E54
:1040B000A11CB11CC114D104E104F10429F7FF9043
:1040C000EF90DF90CF90BF90AF909F908F9008952A
:1040D000000000008330910528F0880F991F059794
:1040E0000197F1F70895789484B5836084BD85B510
:1040F000836085BDEEE6F0E0808181608083E1E849
:10410000F0E082E08083808181608083E0E8F0E0FD
:10411000808181608083E1EBF0E080818460808336
:10412000E0EBF0E080818160808386E880937A0014
:104130001092C1000895883020F08D3008F48DE091
:104140008E5020913B0190E4299F900111248770AB
:10415000822B80937C0080917A00806480937A0027
:1041600080917A0086FDFCCF809178009091790053
:104170000895843081F028F48230E9F08330F9F03A
:104180000895883071F0893091F08530B9F48091CC
:1041900080008F7D03C0809180008F7780938000A6
:1041A00008958091B0008F778093B000089580913A
:1041B000B0008F7DF9CF84B58F7784BD089584B525
:1041C0008F7DFBCFCF93DF9390E0FC01EA59FC4F4A
:1041D000249183589C4FFC0184918823C9F090E07E
:1041E000880F991FFC01E855FC4FA591B491FC0183
:1041F000E256FC4FC591D49161110DC09FB7F89460
:104200008C91209582238C938881282328839FBFBB
:10421000DF91CF910895623051F49FB7F8943C91AB
:10422000822F809583238C93E8812E2BEFCF8FB73D
:10423000F894EC912E2B2C938FBFEACF1F93CF9342
:10424000DF93282F30E0F901E15BFC4F8491F90105
:10425000EA59FC4FD491F901E358FC4FC491CC23A7
:10426000A9F0162F81110E94B920EC2FF0E0EE0F7B
:10427000FF1FE256FC4FA591B4918FB7F894EC91D3
:10428000111108C0D095DE23DC938FBFDF91CF9151
:104290001F910895DE2BF8CFAF92BF92CF92DF929D
:1042A000EF92FF920F931F93CF93DF936C017B01EB
:1042B0008B01040F151FEB015E01AE18BF08C0177C
:1042C000D10759F06991D601ED91FC910190F081EF
:1042D000E02DC6010995892B79F7C501DF91CF91B2
:1042E0001F910F91FF90EF90DF90CF90BF90AF9014
:1042F0000895FB0101900020E9F73197AF01461BBB
:10430000570BDC01ED91FC910280F381E02D0994C3
:10431000EF92FF920F931F93CF93DF938C017B015A
:10432000D0E0C0E0F701EC0FFD1F6491662361F05F
:10433000D801ED91FC910190F081E02DC801099523
:10434000892B11F02196EECFCE01DF91CF911F91F5
:104350000F91FF90EF9008956115710511F00C9485
:10436000792190E080E00895DC01ED91FC910190CD
:10437000F081E02D099468EF71E00C9479210F939E
:104380001F93CF93DF93EC010E9488218C01CE0113
:104390000E94BB21800F911FDF91CF911F910F9140
:1043A00008950F931F93CF93DF938C01D0E0C0E06B
:1043B0006115710519F00E947921EC01C8010E9474
:1043C000BB218C0F9D1FDF91CF911F910F910895FD
:1043D0000F931F93CF93DF93EC010E94B4218C01C4
:1043E000CE010E94BB21800F911FDF91CF911F91C1
:1043F0000F9108958F929F92AF92BF92EF92FF928A
:104400000F931F93CF93DF93CDB7DEB7A1970FB66E
:10441000F894DEBF0FBECDBF7C01FA01CB0119A21B
:10442000223008F42AE08E010F5D1F4F822E912C5E
:10443000B12CA12CBF01A50194010E942527F901EF
:10444000CA016A300CF5605DD8016E938D01232B93
:10445000242B252B79F790E080E0109721F0BD0107
:10446000C7010E947921A1960FB6F894DEBF0FBE56
:10447000CDBFDF91CF911F910F91FF90EF90BF9033
:10448000AF909F908F900895695CDECFCF92DF92BE
:10449000EF92FF920F931F93CF93DF932115310576
:1044A00081F4DC01ED91FC910190F081E02D642F0D
:1044B000DF91CF911F910F91FF90EF90DF90CF9000
:1044C00009942A30310501F52AE077FF1DC06A0101
:1044D0007B01EC016DE20E94B4218C014427552739
:1044E000BA014C195D096E097F092AE0CE010E94CC
:1044F000FA21800F911FDF91CF911F910F91FF90B3
:10450000EF90DF90CF900895DF91CF911F910F91A1
:10451000FF90EF90DF90CF900C94FA210F931F93B0
:10452000CF93DF93EC010E9446228C01CE010E94C2
:10453000BB21800F911FDF91CF911F910F910895A3
:104540002115310541F4DC01ED91FC910190F081E0
:10455000E02D642F09940C94FA219A01462F50E023
:1045600070E060E00C94A0220F931F93CF93DF9331
:10457000EC010E94AD228C01CE010E94BB21800F74
:10458000911FDF91CF911F910F9108959A01AB0177
:1045900070E060E00C94A0224F925F926F927F9245
:1045A000AF92BF92CF92DF92EF92FF920F931F9341
:1045B000CF93DF93CDB7DEB729013A019B01AC0160
:1045C000241935094609570989899A89AB89BC8913
:1045D000BC01CD016A197B098C099D090E94ED2659
:1045E000A801970124193509460957090E94472750
:1045F000CA01B9016A0D7B1D8C1D9D1DDF91CF91F4
:104600001F910F91FF90EF90DF90CF90BF90AF90F0
:104610007F906F905F904F900895FC018081918111
:104620000C945928CF93DF93EC01888199810097EE
:1046300011F00E945928198218821D821C821B8247
:104640001A82DF91CF9108950F931F93CF93DF9339
:10465000EC018B016F5F7F4F888199810E94E22876
:10466000009751F0998388831B830A8381E0DF914F
:10467000CF911F910F91089580E0F9CFCF93DF93F1
:10468000EC0188819981892B49F08A819B81861769
:10469000970720F081E0DF91CF910895CE010E942D
:1046A00024238823C1F38C819D81892B99F7E8818C
:1046B000F9811082EFCFEF92FF920F931F93CF9368
:1046C000DF93EC017B018A01BA010E943E23811134
:1046D0000BC0CE010E941223CE01DF91CF911F911A
:1046E0000F91FF90EF9008951D830C83B70188818F
:1046F00099810E94062AF0CFFC0111821082138258
:104700001282158214826115710551F0FB0101902E
:104710000020E9F73197AF01461B570B0C945B2340
:10472000089508950E9473200E9491230E945804C6
:10473000C0E0D0E00E94F60B2097E1F30E94000059
:10474000F9CF5058BB27AA270E94B9230C94F7250C
:104750000E94BE2538F00E94C52520F039F49F3F05
:1047600019F426F40C9494250EF4E095E7FB0C94D0
:104770008E25E92F0E941C2658F3BA17620773078B
:104780008407950720F079F4A6F50C943E260EF4E4
:10479000E0950B2EBA2FA02D0B01B90190010C0151
:1047A000CA01A0011124FF27591B99F0593F50F469
:1047B000503E68F11A16F040A22F232F342F4427C1
:1047C000585FF3CF469537952795A795F0405395B9
:1047D000C9F77EF41F16BA0B620B730B840BBAF089
:1047E0009150A1F0FF0FBB1F661F771F881FC2F7F4
:1047F0000EC0BA0F621F731F841F48F48795779508
:104800006795B795F7959E3F08F0B0CF9395880FC1
:1048100008F09927EE0F9795879508950E94BE2579
:1048200060F080E891E009F49EEF0E94C52528F031
:1048300040E851E071F45EEF0CC00C9494250C94A8
:104840003E26E92FE0780E941C2640F3092E052A17
:10485000B1F3261737074807590738F00E2E07F827
:10486000E02569F0E025E0640AC0EF6307F80094F2
:1048700007FADB01B9019D01DC01CA01AD01EF932B
:104880000E949C240E94F7250E9451245F91552389
:1048900039F02BED3FE049E450FD49EC0C94A223A4
:1048A0000895DF93DD27B92FBF7740E85FE3161641
:1048B000170648075B0718F4D92F0E944A269F93D2
:1048C0008F937F936F930E94C726E8E6F0E00E94E3
:1048D00097250E94F7252F913F914F915F910E945C
:1048E0006526DD2351F09058A2EA2AED3FE049EC1D
:1048F0005FE3D0785D270E94B923DF910C94F72500
:104900000E94CE25E3950C9408260E9499240C94CD
:10491000F7250E94C52558F00E94BE2540F029F4D5
:104920005F3F29F00C948E2551110C943F260C9476
:1049300094250E941C2668F39923B1F3552391F323
:10494000951B550BBB27AA2762177307840738F0FE
:104950009F5F5F4F220F331F441FAA1FA9F335D05B
:104960000E2E3AF0E0E832D091505040E695001C0F
:10497000CAF72BD0FE2F29D0660F771F881FBB1FC9
:10498000261737074807AB07B0E809F0BB0B802DA7
:10499000BF01FF2793585F4F3AF09E3F510578F0D3
:1049A0000C948E250C943F265F3FE4F3983ED4F39D
:1049B000869577956795B795F7959F5FC9F7880FA7
:1049C000911D9695879597F90895E1E0660F771FF9
:1049D000881FBB1F621773078407BA0720F0621B8A
:1049E000730B840BBA0BEE1F88F7E09508950E94B5
:1049F000FE246894B1110C943F2608950E94242649
:104A000088F09F5798F0B92F9927B751B0F0E1F08F
:104A1000660F771F881F991F1AF0BA95C9F714C03F
:104A2000B13091F00E943E26B1E008950C943E26EC
:104A3000672F782F8827B85F39F0B93FCCF3869578
:104A400077956795B395D9F73EF4909580957095D5
:104A500061957F4F8F4F9F4F0895E89409C097FB52
:104A60003EF490958095709561957F4F8F4F9F4F45
:104A70009923A9F0F92F96E9BB279395F695879589
:104A800077956795B795F111F8CFFAF4BB0F11F44C
:104A900060FF1BC06F5F7F4F8F4F9F4F16C08823F3
:104AA00011F096E911C0772321F09EE8872F762F29
:104AB00005C0662371F096E8862F70E060E02AF06A
:104AC0009A95660F771F881FDAF7880F9695879556
:104AD00097F90895990F0008550FAA0BE0E8FEEF2B
:104AE00016161706E807F907C0F012161306E407B2
:104AF000F50798F0621B730B840B950B39F40A26AB
:104B000061F0232B242B252B21F408950A2609F488
:104B1000A140A6958FEF811D811D089597F99F678C
:104B200080E870E060E008959FEF80EC0895DF93E7
:104B3000CF931F930F93FF92EF92DF927B018C0133
:104B4000689406C0DA2EEF010E946526FE01E89403
:104B5000A5912591359145915591A6F3EF010E94BC
:104B6000B923FE019701A801DA9469F7DF90EF906D
:104B7000FF900F911F91CF91DF91089500240A9427
:104B80001616170618060906089500240A94121628
:104B900013061406050608950C9494250E942426F5
:104BA000D8F3E894E0E0BB279F57F0F02AED3FE010
:104BB00049EC06C0EE0FBB0F661F771F881F28F059
:104BC000B23A62077307840728F0B25A620B730B7C
:104BD000840BE3959A9572F7803830F49A95BB0F61
:104BE000661F771F881FD2F790480C94CD26092E98
:104BF0000394000C11F4882352F0BB0F40F4BF2B38
:104C000011F460FF04C06F5F7F4F8F4F9F4F089577
:104C1000EF93E0FF07C0A2EA2AED3FE049EC5FEB2B
:104C20000E94B9230E94F7250F90039401FC90582D
:104C3000E5E9F0E00C94D92657FD9058440F551F34
:104C400059F05F3F71F04795880F97FB991F61F00E
:104C50009F3F79F087950895121613061406551F85
:104C6000F2CF4695F1DF08C0161617061806991FF1
:104C7000F1CF86957105610508940895E894BB27E6
:104C800066277727CB0197F908950E946A2508F4D3
:104C90008FEF08959B01AC0160E070E080E89FE336
:104CA0000C9485240E9465260C94F7250E94BE254D
:104CB00038F00E94C52520F0952311F00C948E2524
:104CC0000C94942511240C943F260E941C2670F30A
:104CD000959FC1F3950F50E0551F629FF001729FA1
:104CE000BB27F00DB11D639FAA27F00DB11DAA1FB0
:104CF000649F6627B00DA11D661F829F2227B00DFD
:104D0000A11D621F739FB00DA11D621F839FA00D87
:104D1000611D221F749F3327A00D611D231F849FD7
:104D2000600D211D822F762F6A2F11249F5750402E
:104D30009AF0F1F088234AF0EE0FFF1FBB1F661FA9
:104D4000771F881F91505040A9F79E3F510580F072
:104D50000C948E250C943F265F3FE4F3983ED4F3E9
:104D6000869577956795B795F795E7959F5FC1F716
:104D7000FE2B880F911D9695879597F908959F931F
:104D80000E94CE250F9007FCEE5F0C9408269B0135
:104D9000AC010C9452269F3F31F0915020F487953E
:104DA00077956795B795880F911D9695879597F993
:104DB00008959F938F937F936F93FF93EF939B013E
:104DC000AC010E945226EF91FF910E9497252F91EE
:104DD0003F914F915F910C945226DB018F939F93EB
:104DE0000E946627BF91AF91A29F800D911DA39F46
:104DF000900DB29F900D11240895AA1BBB1B51E189
:104E000007C0AA1FBB1FA617B70710F0A61BB70B3A
:104E1000881F991F5A95A9F780959095BC01CD01DF
:104E2000089597FB072E16F4009407D077FD09D05C
:104E30000E94FD2607FC05D03EF4909581959F4F7A
:104E40000895709561957F4F0895A1E21A2EAA1BCF
:104E5000BB1BFD010DC0AA1FBB1FEE1FFF1FA2172A
:104E6000B307E407F50720F0A21BB30BE40BF50B27
:104E7000661F771F881F991F1A9469F760957095B0
:104E8000809590959B01AC01BD01CF010895052E41
:104E900097FB1EF400940E945E2757FD07D00E94E6
:104EA000252707FC03D04EF40C945E2750954095BF
:104EB000309521953F4F4F4F5F4F089590958095C6
:104EC000709561957F4F8F4F9F4F08950E94AE2739
:104ED000A59F900DB49F900DA49F800D911D11244E
:104EE00008952F923F924F925F926F927F928F928E
:104EF0009F92AF92BF92CF92DF92EF92FF920F9369
:104F00001F93CF93DF93CDB7DEB7CA1BDB0B0FB672
:104F1000F894DEBF0FBECDBF09942A88398848882F
:104F20005F846E847D848C849B84AA84B984C884C5
:104F3000DF80EE80FD800C811B81AA81B981CE0FBC
:104F4000D11D0FB6F894DEBF0FBECDBFED010895A1
:104F5000EE0FFF1F0590F491E02D0994A29FB00180
:104F6000B39FC001A39F700D811D1124911DB29F9D
:104F7000700D811D1124911D08950F931F93CF93E0
:104F8000DF938230910510F482E090E0E0917105AA
:104F9000F091720530E020E0B0E0A0E0309799F4A5
:104FA0002115310509F44AC0281B390B243031057D
:104FB000D8F58A819B816115710589F1FB01938385
:104FC0008283FE0111C04081518102811381481703
:104FD0005907E0F04817590799F4109761F01296B5
:104FE0000C93129713961C933296CF01DF91CF91B9
:104FF0001F910F9108950093710510937205F4CFDE
:105000002115310551F04217530738F0A901DB0192
:105010009A01BD01DF01F801C1CFEF01F9CF9093F3
:10502000720580937105CDCFFE01E20FF31F8193CE
:1050300091932250310939832883D7CF20916F056E
:1050400030917005232B41F420910201309103012E
:105050003093700520936F0520910001309101017C
:105060002115310541F42DB73EB74091040150910F
:105070000501241B350BE0916F05F0917005E217D7
:10508000F307A0F42E1B3F0B2817390778F0AC016B
:105090004E5F5F4F2417350748F04E0F5F1F509348
:1050A000700540936F05819391939FCFF0E0E0E00E
:1050B0009CCFCF93DF930097E9F0FC0132971382E6
:1050C0001282A0917105B0917205ED0130E020E0EF
:1050D0001097A1F420813181820F931F20916F05D9
:1050E000309170052817390709F061C0F0937005F9
:1050F000E0936F05DF91CF910895EA01CE17DF07A6
:10510000E8F54A815B819E0141155105B1F7E9013E
:10511000FB83EA8349915991C40FD51FEC17FD0712
:1051200061F4808191810296840F951FE901998332
:105130008883828193819B838A83F0E0E0E01296EA
:105140008D919C9113970097B9F52D913C911197F2
:10515000CD010296820F931F20916F05309170054B
:105160002817390739F6309751F5109272051092C9
:105170007105B0937005A0936F05BCCFD383C28334
:1051800040815181840F951FC817D90761F44E5F84
:105190005F4F88819981480F591F518340838A81CD
:1051A0009B81938382832115310509F0B0CFF09361
:1051B0007205E09371059ECFFD01DC01C0CF138223
:1051C0001282D7CFB0E0A0E0E8EEF8E20C947327AB
:1051D0008C01009751F4CB010E94BD278C01C801BE
:1051E000CDB7DEB7E0E10C948F27FC01E60FF71F87
:1051F0009C0122503109E217F30708F49DC0D90140
:10520000CD91DC911197C617D70798F0C530D1051D
:1052100030F3CE0104978617970708F3C61BD70B08
:105220002297C193D1936D937C93CF010E9459280B
:10523000D6CF5B01AC1ABD0A4C018C0E9D1EA0910D
:105240007105B0917205512C412CF12CE12C109775
:1052500031F580916F05909170058815990509F0D9
:105260005CC04616570608F058C080910001909126
:105270000101009741F48DB79EB740910401509110
:105280000501841B950BE817F90708F055C0F0934A
:105290007005E0936F05F90171836083A0CF8D9154
:1052A0009C91119712966C90129713967C9013977D
:1052B000A815B90559F56C0142E0C40ED11CCA14F9
:1052C000DB0420F1AC014A195B09DA01129615974B
:1052D00080F06282738251834083D9016D937C9305
:1052E000E114F10471F0D7011396FC93EE93129739
:1052F00076CF22968C0F9D1FF90191838083F30155
:10530000EFCFF0937205E093710569CF4816590607
:1053100008F42C017D01D3019ACFCB010E94BD2757
:105320007C01009749F0AE01B8010E94E929C8014B
:105330000E945928870153CF10E000E050CFFC01B4
:1053400088279927E89421912032E9F3293010F039
:105350002E30C8F32B3241F02D3239F4689404C05A
:105360000E941C2A820F911D219120532A30C0F3E4
:105370001EF4909581959F4F0895FB01DC018D915E
:10538000059080190110D9F3990B0895FC0105903F
:105390000020E9F7809590958E0F9F1F0895FB01DF
:1053A00055915523A9F0BF01DC014D9145174111DD
:1053B000E1F759F4CD010590002049F04D914015D9
:1053C0004111C9F3FB014111EFCF81E090E001975A
:1053D0000895FB01DC0102C001900D924150504044
:1053E000D8F70895FC018191861721F08823D9F719
:1053F000992708953197CF010895FB01DC018D9124
:10540000019080190110D9F3990B0895FB01DC017B
:1054100001900D920020E1F70895FB01DC0141505D
:10542000504048F001900D920020C9F701C01D9234
:1054300041505040E0F708957AE0979F902D879F64
:10544000802D910D11240895AEE0B0E0EAE2FAE279
:105450000C947F270D891E8986E08C831A8309832B
:105460008FEF9FE79E838D83AE01475E5F4F6F890D
:10547000788DCE0101960E94472A2F813885020F30
:10548000131FF80110822E96E4E00C949B27ABE0EA
:10549000B0E0EDE4FAE20C9471277C013B018A0153
:1054A000FC0117821682838181FFC8C1CE0101965B
:1054B0005C01F7019381F30193FD859193FF819145
:1054C0003F01882309F453C1853239F493FD859156
:1054D00093FF81913F01853229F4B70190E00E944A
:1054E000372CE7CF912C212C312CFFE1F31538F02C
:1054F0008B3211F190F4803209F1833229F137FCBB
:105500003CC020ED280F2A3050F536FE20C08AE03E
:10551000989E200D1124922E06C08D3291F080337A
:1055200071F7689430F8F30193FD859193FF8191B1
:105530003F018111DACF21C0689431F8689432F8C4
:10554000F2CF689433F8EFCF689434F8ECCFEAE008
:105550002E9E200D1124222E689435F8E4CF8E3231
:1055600029F436FC04C1689436F8DDCF8C3619F482
:10557000689437F8D8CF8836B1F2982F9F7D95542C
:105580009330E0F08336A1F18337C1F1833509F020
:1055900063C02801F2E04F0E511CF801C080D18099
:1055A000692D70E036FC02C06FEF7FEFC6010E94EC
:1055B000212C4C01689437F882010AC00C5F1F4F00
:1055C000FFE3F98388248394912C6501E89437F8EC
:1055D00033FE2DC0522C8114910471F5552009F42D
:1055E00068CFB70180E290E00E94372C5A94F6CF42
:1055F000F801808189830E5F1F4FE4CF2801F2E01C
:105600004F0E511CF801C080D180692D70E036FC2E
:1056100002C06FEF7FEFC6010E942C2C4C0182016B
:10562000D5CFB70180E290E00E94372C2A9428144D
:10563000190409F0B0F7CECFF60137FC859137FE9B
:1056400081916F01B70190E00E94372C51105A945C
:10565000F1E08F1A9108BFCF843619F0893609F02E
:1056600077C0F80137FE6BC06081718182819381C0
:105670000C5F1F4FF32DFF763F2E97FF09C09095CB
:105680008095709561957F4F8F4F9F4F689437F845
:105690002AE030E0A5010E94672CC82ECA188C2C85
:1056A000432C36FE0CC0E89440F8C91440F434FE94
:1056B00005C032FC03C0F32DFE7E4F2E892C44FE24
:1056C00095C0FE01EC0DF11D8081803309F087C08B
:1056D000242D297E422E842D8870582E43FC95C09F
:1056E00040FE8FC09C2C821418F42C0C922C98181D
:1056F00044FE91C0B70180E390E00E94372C42FE47
:1057000009C088E790E041FE02C088E590E0B7015B
:105710000E94372CC91408F48AC0CA94D12C9FEF78
:10572000C91AD90ACA0CDB1CF60182916F01B701B4
:1057300090E00E94372CAC14BD04B1F74FCF6081CC
:105740007181072E000C880B990B0E5F1F4F92CFB3
:10575000D32CE894D4F82AE030E0853739F1232DB2
:10576000297FD22E8F3601F148F48835A9F0F70150
:10577000868197812B96E2E10C948D27803749F042
:105780008837A9F7D4FE02C06894D2F820E130E04F
:105790000DC06894D4F8F6CF34FE03C0822F866023
:1057A000D82E20E132E002C028E030E0F801D7FE38
:1057B0000FC060817181828193810C5F1F4FA501B1
:1057C0000E94672CC82ECA183D2CE89437F867CF82
:1057D0006081718190E080E00E5F1F4FF0CF42FC4E
:1057E00002C0839478CF8394839475CF842D867878
:1057F00009F471CFF6CFB70180E290E00E94372C18
:1058000083948214C0F3512C73CF522C58188214F5
:1058100008F46ECFF8CF842D867809F47BCF8BE225
:1058200041FE80E247FC8DE2B70190E071CFB70105
:1058300080E390E00E94372C9A946CCF8FEF9FEF1B
:1058400099CFFC010590615070400110D8F7809508
:1058500090958E0F9F1F0895FC016150704001903C
:105860000110D8F7809590958E0F9F1F08950F9384
:105870001F93CF93DF93182F092FEB018B8181FDAD
:1058800009C01FEF0FEF812F902FDF91CF911F9154
:105890000F91089582FF14C02E813F818C819D81DC
:1058A000281739073CF4E881F981CF0101969983E3
:1058B000888310838E819F8101969F838E83E3CF9F
:1058C000E885F985812F0995892BA1F3DACFFA01B3
:1058D000AA27283051F1203181F1E8946F936E7F2F
:1058E0006E5F7F4F8F4F9F4FAF4FB1E03ED0B4E020
:1058F0003CD0670F781F891F9A1FA11D680F791F61
:105900008A1F911DA11D6A0F711D811D911DA11D71
:1059100020D009F468943F912AE0269F1124301981
:10592000305D3193DEF6CF010895462F4770405D1C
:105930004193B3E00FD0C9F7F6CF462F4F70405DCB
:105940004A3318F0495D31FD4052419302D0A9F726
:10595000EACFB4E0A6959795879577956795BA9520
:10596000C9F700976105710508959B01AC010A2EE6
:1059700006945795479537952795BA95C9F7620FBD
:10598000731F841F951FA01D0895F999FECF92BD26
:1059900081BDF89A992780B50895262FF999FECFF1
:1059A0001FBA92BD81BD20BD0FB6F894FA9AF99A3C
:1059B0000FBE0196089511E0CBEDD1E004C0FE01C9
:1059C0000E94A8272196CC3DD107C9F7F894FFCFB4
:1059D0000000730580000A020000C6420000C642B3
:1059E000FFFF01FC080C000B000B0B0B0B0B0B0B50
:1059F00001000000000000000000000000000000A6
:105A0000000000000A0002441F00000141542B4323
:105A100049504D55583D3000313030310076657475
:105A2000657263656B2E636F6D00000000009A0F56
:105A30004C210602BE0F8E0FA60FB20F5E00BC00F7
:105A4000770141544900434F4E4E454354204F4B3C
:105A50000055445020434C4F53454400504450207F
:105A600044454143543A0041542B43454452585312
:105A70003D25692C25692C222573220041542B5386
:105A80004C4544533D25692C25692C256900222C61
:105A90002200000000009A0F4C210602BE0F8E0F5C
:105AA000A60FB20F000000006C1A9B1A06026B1AB8
:105AB000421A491A5C1A00000000871E4C21060297
:0C5AC000331C711E341C301C0D0A000049
:00000001FF
