:100000000C94DC010C94DF1E0C94061F0C9404026B
:100010000C9404020C9485050C942E180C94040284
:100020000C9404020C9404020C94B41D0C94171D3F
:100030000C945E1E0C94241A0C9404020C9404027A
:100040000C942E1F0C9404020C9404020C940402D1
:100050000C9404020C9404020C9404020C94040208
:100060000C94191B0C940402084AD73B3BCE016E3A
:1000700084BCBFFDC12F3D6C74319ABD56833DDAFF
:100080003D00C77F11BED9E4BB4C3E916BAAAABE0E
:10009000000000803F05A84CCDB2D44EB93836A937
:1000A000020C50B9918688083CA6AAAA2ABE000074
:1000B00000803F00696F742E316E63652E6E65742B
:1000C0000041542B43495053454E443D0041542B6D
:1000D00043495053544154555300434C4F534520CA
:1000E0004F4B0041542B434950434C4F5345004321
:1000F0004F4E4E454354204F4B002200222C2200ED
:1001000041542B43495053544152543D225544507D
:10011000222C220041542B43495052584745543D0C
:10012000300041542B4349504D55583D3000534801
:100130005554204F4B0041542B434950534855547C
:100140000041542B434744434F4E543D312C2249E8
:1001500050222C002B434744434F4E543A20004139
:10016000542B434744434F4E543F002B4347415485
:10017000543A200041542B43474154543F004154CA
:100180002B43474154543D300041542B534150427E
:10019000523D302C310053485554204F4B004154B0
:1001A0002B434950534855540041542B434949432C
:1001B000520041542B53415042523D312C310041A9
:1001C000542B53415042523D332C312C2250574432
:1001D000222C0041542B53415042523D332C312CA0
:1001E0002255534552222C0041542B435354543D25
:1001F000220041542B53415042523D332C312C228A
:1002000041504E222C0041542B53415042523D3319
:100210002C312C22434F4E54595045222C2247500A
:100220005253220041542B4349504D4F44453D30D9
:100230000053485554204F4B0041542B43495053D1
:10024000485554002B4353513A200041542B4353FB
:1002500051002B435245473A200041542B4352450D
:10026000473F002B43475245473A200041542B4318
:10027000475245473F0041542B47534E0041542BB2
:10028000434E45544C494748543D300041542B435C
:100290005347533D320041542B434E45544C49473C
:1002A00048543D310041542B4350534D533D004180
:1002B000542B4353434C4B3D0041542B434E4D5024
:1002C0003D0041542B4346554E3D002B4342433A9B
:1002D000200041542B4342430053494D37303030C6
:1002E000470053494D37303030450053494D373082
:1002F0003030430053494D37303030410041542BAA
:10030000435648553D300041544530004154453036
:1003100000415400415400415400415400415400F4
:100320004154004154004F4B00464F4E41000000E5
:100330005EBCE2613FDD83C29C7E20A3FD1F4100C5
:100340009D23BE46DB65F88C11AF32CA57E97400B5
:10035000000009000302000004050800000000007E
:10036000000000000000010204081020408001028B
:1003700004081020010204081020408040040404F6
:10038000040404040402020202020203030303033E
:1003900003020203000000002300260029000000E1
:1003A0000000250028002B0000000000240027008A
:1003B0002A009E0CD11ADA0C11241FBECFEFD8E010
:1003C000DEBFCDBF11E0A0E0B1E0E4ECF8E502C093
:1003D00005900D92AC3FB107D9F725E0ACEFB1E045
:1003E00001C01D92A038B207E1F711E0CBEDD1E0DA
:1003F00004C02197FE010E942227C93DD107C9F7F9
:100400000E940C230C94552C0C94000090E080E08A
:1004100008950E94781F6093700270937102809318
:100420007202909373028091700290917102A09178
:100430007202B091730240916C0250916D02609112
:100440006E0270916F02841B950BA60BB70B853F54
:100450009140A105B105C8F08091700290917102A0
:10046000A0917202B091730280936C0290936D021E
:10047000A0936E02B0936F028091100190911101D0
:100480000196909311018093100108950C943F2CD4
:100490000C94472C60E08AE00E94982068EB7BE097
:1004A00080E090E00E94A91F61E08AE00E9498200D
:1004B00068EE73E080E090E00C94A91F682F8FE055
:1004C00090E00E94480268EC70E080E090E00E94BA
:1004D000A91F0E944A0260ED77E080E090E00E9450
:1004E000A91F88E19EE00FB6F894A895809360005C
:1004F0000FBE9093600008958091880290918902C8
:10050000A0918A02B0918B020196A11DB11D80932A
:10051000880290938902A0938A02B0938B02809103
:10052000880290918902A0918A02B0918B02893C45
:100530009105A105B10558F0109288021092890228
:1005400010928A0210928B0282E00C945E0208954F
:1005500060E08AE00E94982064E670E080E090E02D
:100560000E94A91F61E08AE00C9498208DE892E037
:100570000E945B1791E0811101C090E0892F0895DE
:100580000F931F9368EB7BE080E090E00E94A91F2F
:1005900061E473E080E090E00E94721C61EB73E024
:1005A0008DE892E00E94631281110DC068E873E14A
:1005B00080E090E00E94A91F61E473E080E090E099
:1005C0000E94721CEBCF6CE371E081EB93E00E9420
:1005D0004B2108E813E120E430E043E061E08DE8DE
:1005E00092E00E9493146CE271E080E090E00E943F
:1005F000A91F60E08DE892E00E94291568EB7BE07E
:1006000080E090E00E94A91F61E08DE892E00E94E6
:10061000291530E020E050E040E064EB70E08DE828
:1006200092E00E94CA1668EC70E080E090E00E94C0
:10063000A91F609136018DE892E00E94431564EF96
:1006400071E080E090E00E94A91F61E08DE892E0F7
:100650000E945D1568EC70E080E090E00E94A91FA8
:1006600080913601863241F428E431E045E061E0D2
:100670008DE892E00E944A1468EC70E080E090E01F
:100680000E94A91F60E08DE892E00E94771568EC57
:1006900070E080E090E01F910F910C94A91FCF9221
:1006A000DF92EF92FF92CF930E94781F6B017C0143
:1006B000C0E00E94B602811128C00E94B6020E94CA
:1006C000781F6C197D098E099F0960317742810579
:1006D000910528F50E94781F6C197D098E099F09E4
:1006E00060327E448105910520F30E94B60281119B
:1006F000E0CFC130F1F60E944A020E94C0020E947F
:10070000781F6B017C01C0E0D4CF61E08DE892E0FE
:10071000CF91FF90EF90DF90CF900C94AD150E9499
:10072000B6028111D7CFC111D5CF0E94C002C1E05E
:10073000C0CF109251021092500210925A021092A1
:100740005B0210925C0210925D02109253021092B2
:100750005202109249021092480280E090E0A6EC0A
:10076000B2E480930C0190930D01A0930E01B0931D
:100770000F018093080190930901A0930A01B0939F
:100780000B01109244021092450210924602109200
:1007900047021092400210924102109242021092BF
:1007A000430210928C0210920602109205021092DF
:1007B0000402109203021092110110921001109283
:1007C000FF011092FE01E4E5F2E086E0DF011D92F8
:1007D0008A95E9F708950F931F93CF93DF9390E0E5
:1007E00080E00E944602813099F409E111E0D0E0F6
:1007F000C0E02196CE010E944602F80181938F014C
:10080000C830D105B1F7DF91CF911F910F910895B5
:1008100065E272E08DE892E00E94A81168EC70E059
:1008200080E090E00E94A91FA5E2B2E0E7E0F2E0DC
:10083000EF018D91082E000C990BC0978993999325
:1008400082E0A533B807A9F73091230209E111E04E
:10085000D80190E080E04AE087309105D1F43093F0
:10086000200101963496119688309105A9F761E030
:1008700090E080E00E944802D0E0C0E0F801619181
:100880008F012196CE010E944802C830D105B1F7F0
:10089000BACF50812281549F200D11242C93E1CF97
:1008A0008091500290915102019690935102809351
:1008B000500280915E0290915F02092E000CAA0BFB
:1008C000BB0B40915A0250915B0260915C027091A7
:1008D0005D02840F951FA61FB71F80935A02909345
:1008E0005B02A0935C02B0935D02089540915802B0
:1008F0005091590220915602309157028417950762
:100900002CF1309355022093540250935702409398
:10091000560290935902809358028091540290910C
:1009200055022091560230915702820F931F209159
:10093000580230915902820F931F63E070E00E94C9
:100940008B26709353026093520208958217930787
:100950004CF03093550220935402909357028093A9
:100960005602DBCF209154023091550228173907E7
:10097000A4F69093550280935402CFCF8F929F920A
:10098000AF92BF92CF92DF92EF92FF92CF93C1E0EE
:10099000C09360020E94781F60938002709381026E
:1009A00080938202909383021092840210928502B7
:1009B0001092860210928702CCBB80916D008062FB
:1009C00080936D006091130170911401072E000C4B
:1009D000880B990B0E94A91F10926D0080918402D0
:1009E00090918502A0918602B0918702892B8A2B73
:1009F0008B2BE9F410925F0210925E0280915E02EE
:100A000090915F02883592400CF05EC00E945004C5
:100A100080915E0290915F02CF91FF90EF90DF9006
:100A2000CF90BF90AF909F908F900C947604609180
:100A30007C0270917D0280917E0290917F02C09035
:100A40007802D0907902E0907A02F0907B026C19E3
:100A50007D098E099F090E94A7246B017C01C09229
:100A60003402D0923502E0923602F0923702609161
:100A700084027091850280918602909187020E9483
:100A8000A7244B015C01A701960160E070EA8CE0AD
:100A900095E40E94FF239B01AC01C501B4010E94B3
:100AA000CC252AE335E74EE55FE30E94CC2520E024
:100AB00030E040E251E40E94CC250E947124709302
:100AC0005F0260935E029ACFCF91FF90EF90DF902C
:100AD000CF90BF90AF909F908F900895209150023B
:100AE00030915102032E000C440B550B60915A02B9
:100AF00070915B0280915C0290915D020E94C12620
:100B000030933F0220933E0208951F920F920FB63A
:100B10000F9211242F933F934F935F936F937F9383
:100B20008F939F93AF93BF93EF93FF930E94781F90
:100B300060937402709375028093760290937702AB
:100B400080916002813099F58091740290917502D4
:100B5000A0917602B09177028093800290938102F7
:100B6000A0938202B093830210926002809174027B
:100B700090917502A0917602B091770280937802ED
:100B800090937902A0937A02B0937B02FF91EF9148
:100B9000BF91AF919F918F917F916F915F914F9195
:100BA0003F912F910F900FBE0F901F90189580913D
:100BB000740290917502A0917602B09177024091F3
:100BC0008002509181026091820270918302841BA5
:100BD000950BA60BB70B4097A105B105B8F2809114
:100BE000840290918502A0918602B09187020196BD
:100BF000A11DB11D8093840290938502A09386026B
:100C0000B09387028091740290917502A091760250
:100C1000B09177028093800290938102A093820228
:100C2000B09383028091740290917502A091760234
:100C3000B091770280937C0290937D02A0937E0214
:100C4000B0937F02A3CF209144023091450240919E
:100C5000460250914702609140027091410280919A
:100C60004202909143020E949B232BED3FE049E416
:100C700050E40E94FF2320E030E044E353E40E946C
:100C8000CC250E94712477FD05C0709349026093C2
:100C90004802089568597E4FF8CF4F925F926F9245
:100CA0007F928F929F92AF92BF92CF92DF92EF92FC
:100CB000FF9260914A0270914B02072E000C880B44
:100CC000990B0E94A92420E030E044E353E40E9401
:100CD000FF232BED3FE049E450E40E94CC256B015B
:100CE0007C010E94FA232B013C0120E030E040E42B
:100CF0005FE36091440270914502809146029091B9
:100D000047020E94CC254B015C0120E030E040E826
:100D10005EE3C301B2010E94CC259B01AC01C50179
:100D2000B4010E941C236093440270934502809397
:100D3000460290934702C701B6010E9439264B0133
:100D40005C0120E030E040E45FE36091400270919C
:100D5000410280914202909143020E94CC256B0196
:100D60007C0120E030E040E85EE3C501B4010E9470
:100D7000CC259B01AC01C701B6010E941C236093E6
:100D80004002709341028093420290934302FF908D
:100D9000EF90DF90CF90BF90AF909F908F907F901B
:100DA0006F905F904F900895AF92BF92CF92DF9275
:100DB000EF92FF920F931F9381E10E941520909371
:100DC0004F0280934E02BC01990F880B990B1F9222
:100DD0001F9221E02F9328E62F93A12CB12C6501BF
:100DE000EE24EA9413E0F12E00E010E020E030E081
:100DF000A9010E94462270934D0260934C022091FB
:100E0000070430910804C901860F971F90934B0285
:100E100080934A020F900F900F900F901F910F91A7
:100E2000FF90EF90DF90CF90BF90AF900C944D0665
:100E3000CF93DF93C7E1D1E061E088810E949820E1
:100E400064E670E080E090E00E94A91F82EE93E0EB
:100E50000E941E0E6EEE72E080E090E00E94A91FDC
:100E600060E082EE93E00E946C0F60930801709343
:100E7000090180930A0190930B0160E08881DF9162
:100E8000CF910C949820CF93DF93C5E1D1E061E03E
:100E900088810E9498206CE271E080E090E00E94DE
:100EA000A91F8DEB93E00E941E0E62E573E080E0C7
:100EB00090E00E94A91F60E08DEB93E00E946C0F10
:100EC00060930C0170930D0180930E0190930F01BC
:100ED00060E08881DF91CF910C9498200E942306D6
:100EE0000E946E0580911201813059F40E9418070A
:100EF00083E680932B0164E670E080E090E00C9440
:100F0000A91F823079F480910002811102C00E94F1
:100F1000430783E680932C0164E670E080E090E074
:100F20000C94A91F833070F00E9418078091000272
:100F3000811102C00E94430764E670E080E090E007
:100F40000C94A91F08956AE372E08DE892E00E9474
:100F50004C178823B9F080913A0290913B0264E1EA
:100F600070E00E94772670933D0260933C0260918E
:100F70003C0270913D02072E000C880B990B0E94D9
:100F8000A924089510923D0210923C02F0CF4F9296
:100F90005F926F927F928F929F92AF92BF92CF9209
:100FA000DF92EF92FF920F931F93CF93DF93CDB712
:100FB000DEB72C970FB6F894DEBF0FBECDBF8DE81D
:100FC00092E00E9456120E94781F009168021091D0
:100FD000690220916A0230916B02601B710B820BD7
:100FE000930B603D7B4F8140910508F03CC180919F
:100FF000680290916902A0916A02B0916B02892BFC
:101000008A2B8B2B09F42FC1809106018F5F80936F
:101010000601809148029091490264E670E00E94C6
:101020008B26609321018093220180913E02909152
:101030003F022AE030E0B9010E948B266093230131
:10104000809324018091520290915302B9010E9431
:101050008B26609325018093260180900801909053
:101060000901A0900A01B0900B0120E030E048ECAB
:1010700052E4C501B4010E94CC256B017C0120E043
:1010800030E0A9010E94BF2518160CF467C1C70102
:10109000B601905820E030E048EC52E40E94FF2373
:1010A0000E94782460932801C701B6010E94712430
:1010B0009B0177FF04C022273327261B370BC9016A
:1010C00064E670E00E948B268093290140900C0119
:1010D00050900D0160900E0170900F0120E030E003
:1010E00048EC52E4C301B2010E94CC256B017C01A3
:1010F00020E030E0A9010E94BF2518160CF431C190
:10110000C701B601905820E030E048EC52E40E945C
:10111000FF230E94782460932B01C701B6010E942F
:1011200071249B0177FF04C022273327261B370B2E
:10113000C90164E670E00E948B2680932C018091A7
:101140003C0280932D018091380280932E01809182
:10115000500280932F0180918C0280933001809106
:1011600067028093310120E030E0A901C501B4019C
:101170000E94BF2518160CF0F7C081E0809327016C
:10118000809110019091110197FDF1C02091000212
:10119000213009F0ECC09AE090932A0180932B0152
:1011A00010922C0180910302809332018DE892E02D
:1011B0000E94C217182F8DE892E00E94A417813078
:1011C00011F4113079F060E08DE892E00E94AD15E5
:1011D0000E944F0345E85AE16DE471E08DE892E02A
:1011E0000E946B138DE892E00E94FA13811108C0EF
:1011F00045E85AE16DE471E08DE892E00E946B13DE
:1012000009E09E012F5F3F4F4BE169E171E08DE8FE
:1012100092E00E940111882309F4DAC12B81422F48
:1012200050E08C8190E03A81313009F0B0C034E672
:10123000239F800D911D112490930804809307042F
:101240008D81882341F024E6829FC0011124909370
:101250001401809313016985613009F0A5C083E012
:101260000E945E02ABC00E94781F60936802709378
:10127000690280936A0290936B028DE892E00E946B
:10128000861790E090933902809338026CE271E007
:1012900080E090E00E94A91F0E94A3070E94712491
:1012A00070933D0260933C0210920601809101020E
:1012B000813009F0AECE1C861B8610E000E08B85E5
:1012C0009C850A97F0F58EE00E941520BC01990FCD
:1012D000880B990B0E94A92422E538EB4EE750E4D5
:1012E0000E94CC2520E030E04AE754E40E94FF232E
:1012F00023E333E343E95FE30E94FF2320E030E090
:101300004BE654E40E94CC256B017C01B801110F1F
:10131000880B990B0E94A9249B01AC01C701B6015F
:101320000E941C230E9471248B018B859C85019651
:101330009C878B8762E370E080E090E00E94A91FA9
:10134000BECF6B857C85C8010E947726CB0165E006
:1013500070E00E947726609367025BCEC701B601FA
:1013600099CEC701B601CFCE1092270109CF20E058
:1013700030E0A901C301B2010E94BF25181624F470
:1013800081E080932A010ECF10922A010BCF6CE9E5
:1013900064039001659F300D1124281B390B309395
:1013A0000804209307044CCF643689F560E08AE096
:1013B00090E00E94480283E00E945E028E8180934A
:1013C00012018F8180930904388580913C029091AD
:1013D0003D02343030F4AC014B5A510949305105CB
:1013E00040F02091FD01213009F097C0343008F021
:1013F00094C024E0288721E02093FD018F3B9105D4
:101400000CF0B0C08E3B910509F0AEC09DC06536B2
:1014100049F461E08AE090E00E94480283E00E9483
:101420005E02CCCF6E3649F462E08BE090E00E9421
:10143000480283E00E945E02C1CF6F3649F461E04A
:101440008BE090E00E94480283E00E945E02B6CFEB
:10145000683749F460E08CE090E00E94480283E045
:101460000E945E02ABCF693749F461E08CE090E006
:101470000E94480283E00E945E02A0CF623849F4D5
:1014800060E08DE090E00E94480283E00E945E02EE
:1014900095CF633849F461E08DE090E00E94480206
:1014A00083E00E945E028ACF683249F46AE08EE0EF
:1014B00090E00E94480283E08093FC017FCF693274
:1014C00041F46BE08EE090E00E9448021092FC0133
:1014D00075CF663631F482E0809336010E94C002F7
:1014E0006DCF613731F48DE0809336010E94C002E8
:1014F00065CF6A3831F486E2809336010E94C002DB
:101500005DCF623029F06D3019F0663209F056CFA8
:1015100089E090E00E944802A2CE3830E8F48A3A8E
:1015200091053CF48231910534F4223009F06ACF00
:1015300002C0223089F428E0288722E02093FD01B0
:101540008F3B91050CF45ECF8091FD01823061F4F8
:1015500081E08093FD0108C08F3B91050CF452CFD0
:10156000213091F71092FD018885893028F49091FF
:1015700007018913809307018981882359F090E03E
:101580002091070121111FC0880F991F90933501E9
:10159000809334010E9499032C960FB6F894DEBF15
:1015A0000FBECDBFDF91CF911F910F91FF90EF90B4
:1015B000DF90CF90BF90AF909F908F907F906F9073
:1015C0005F904F9008959093350180933401E2CF5E
:1015D0008DE892E00E94F213809104028F5F809365
:1015E000040268EB7BE080E090E00E94A91F8091FC
:1015F0000402833099F40E944A0268EB7BE080E0A9
:1016000090E00E94A91F0E94A80268EB7BE080E0A6
:1016100090E00E94A91F0E94C002BECF843008F44F
:10162000BBCF85E00E945E02B7CF0E946E070C948C
:10163000C70714BE0FB6F894A89580916000886122
:1016400080936000109260000FBE80E18093810063
:101650001092800083E080930D0484E294EF9093D5
:101660000F0480930E04909387008093860083E19B
:10167000809381008CE792E090930C0480930B049C
:1016800081E080936F0061E086E00E945C2061E071
:1016900080E10E945C2061E08AE00E945C2060E0C2
:1016A00086E00E94982061E080E10E94982060E03E
:1016B0008AE00E94982061E08DE00E945C2061E059
:1016C0008DE00E94982068EE73E080E090E00E9438
:1016D000A91F60E08DE00E94982064E670E080E041
:1016E00090E00E94A91F61E0809117010E945C2098
:1016F00061E0809115010E945C2061E080911701FA
:101700000E94982061E0809115010E94982064E673
:1017100070E080E090E00E94A91F82EE93E00E94BA
:10172000C90E8BE090E00E9446028F3F11F081309D
:1017300019F481E0809301028AE090E00E94460261
:10174000811113C042E050E069E072E081E00E9444
:10175000BF1E81E08093000289E090E00E94460273
:101760008D3041F48093360109C08DEB93E00E94E7
:10177000C90EF2CF8230B1F38632A1F38EE090E051
:101780000E9446028A3019F483E08093FC01809124
:1017900068008460809368000E94C0020E94EB038E
:1017A0000E944F0380918C02883071F48FE090E0AA
:1017B0000E944602813051F481E580938C0260E002
:1017C0008FE090E00E9448020C94150B823021F4C7
:1017D00082E580938C02F3CF833021F483E58093FC
:1017E0008C02EDCF843021F484E580938C02E7CF26
:1017F000853021F485E580938C02E1CF88E58093E4
:101800008C02DDCF0E94BE040E94D40680910701A5
:10181000813009F05AC030E020E050E040E066E05E
:1018200070E08AE094E00E94E0170E946E0561E09B
:101830008DE00E94982062E370E080E090E00E94DA
:10184000A91F60E08DE00E94982020918C02809179
:10185000500290915102223011F0253019F483305A
:101860009105ECF420913401309135014091090447
:101870006AE0469FA001112460913E0270913F02F0
:10188000641775071CF0821793074CF4220F331F5F
:101890008217930724F4853F91400CF440C060E028
:1018A00086E00E94982064E670E080E090E00E946C
:1018B000A91F68EE73E080E090E00E94A91F0E94DB
:1018C000150B61E086E00C949820823059F430E0EA
:1018D00020E050E040E067E070E08AE094E00E94A1
:1018E000E017A3CF9DEF980F943058F430E020E03C
:1018F00050E040E068E070E08AE094E00E94E01789
:1019000094CF873008F491CF30E020E050E040E001
:1019100069E070E08AE094E00E94E01786CF809151
:10192000020281110AC0F894109288021092890272
:1019300010928A0210928B027894089564E089EFE5
:1019400093E00E94661969EF73E082EE93E00E94D3
:10195000040D63E084ED93E00E94661964ED73E08A
:101960008DEB93E00E94040DE1EBF3E01382128211
:1019700088EE93E0A0E0B0E084839583A683B783EC
:101980008AEE91E09183808363E68DE892E00E9485
:10199000D30FEDE8F2E08EE591E09183808388E05B
:1019A000858784B780938C026AEF71E081E692E0CC
:1019B0000C94F62281E692E00E9487228AEE91E062
:1019C0009093B2038093B1030C94AA1EFB01808113
:1019D000883229F030F4803111F0823231F481E024
:1019E00008958B33E1F38234D1F380E00895FC0154
:1019F0007287618717821086108289E0838381E075
:101A00008483858386830895FC01168A158A118252
:101A10000C94F70CCF93DF93EB0167E0CE010E94AB
:101A20000D1A91E02F81281390E0892FDF91CF913B
:101A30000895EF92FF920F931F93CF93DF938C0142
:101A40007B01D42FFC01818592850E945919C0E049
:101A500041E0B701F801818592850E9489198823A8
:101A600029F0DC1729F0CF5FDC1790F780E006C083
:101A7000B701C8010E940A0D8823A9F3DF91CF9115
:101A80001F910F91FF90EF900895EF92FF920F93A7
:101A90001F93CF93DF938C01EB017A01FC018185C9
:101AA00092850E944518882311F1BE01F8018185B5
:101AB00092850E94361940E06EEBF801818592858F
:101AC0000E94E618E701F9E0EF0EF11CF8018185AC
:101AD00092850E941A198993CE15DF05B9F7F8018E
:101AE000818592850E94451891E0813009F090E04F
:101AF000892FDF91CF911F910F91FF90EF90089563
:101B00000F931F93CF93DF93EC018B0189859A8507
:101B10000E94451889859A8501151105C9F40E940E
:101B2000551940E064EB89859A850E94E6188985FD
:101B30009A850E94BB18182F89859A850E9445189E
:101B400081E0111180E0DF91CF911F910F910895F5
:101B5000B8010E943619E5CFFC01818592850E946B
:101B6000BB1891E0813009F090E0892F08958950E9
:101B7000833048F4E82FF0E0EE0FFF1FE459FE4FEA
:101B80008081918108958EEE92E00895FC0121817B
:101B9000222321F060E082810C9498200895FC01BA
:101BA0002181222321F061E082810C949820089504
:101BB000CF92DF92EF92FF920F931F93CF93DF9319
:101BC000EC01862F9D819923D1F09881911117C046
:101BD0000E94781F6B017C01CE010E94AC0D811127
:101BE00024C00E94781F6C197D098E099F096E3EE2
:101BF000724081059105C8F40E942D1FEDCF0E940F
:101C0000B70D8C01CE010E94C60DB80190E080E0B6
:101C10000E94A91FCE01DF91CF911F910F91FF90DC
:101C2000EF90DF90CF900C94CF0DDF91CF911F916B
:101C30000F91FF90EF90DF90CF900895CF93DF93B7
:101C4000EC0189859A850E94451889859A850E94AC
:101C50005519488164E489859A850E94E6188C812B
:101C6000882331F06B81CE01DF91CF910C94D80D98
:101C7000DF91CF910895FA01218130E0322F2227A0
:101C8000330F330F330F808148E0849FC00111244C
:101C9000282B392BDB018C918031D1F467816623AD
:101CA000B9F070E08681AB01481B5109CA019695D5
:101CB000982F8827979587950E948B2660527109E7
:101CC00053E0220F331F5A95E1F72078260F371F74
:101CD000C9010895FB01460F571FE417F50729F0C6
:101CE00081918823D1F380E0089581E008950F93D6
:101CF0001F93CF93DF938C01EA010E94450D982F2B
:101D0000882381F049E050E0BE01C8010E946A0EBC
:101D1000811107C068E0CE010E940D1A91E028856C
:101D2000281390E0892FDF91CF911F910F91089593
:101D3000CF93DF93CDB7DEB729970FB6F894DEBF08
:101D40000FBECDBFFB012081203199F0AE014F5F66
:101D50005F4F0E94770E882331F08D818F33A9F079
:101D600020F48F31A1F080E007C08F3521F08F374C
:101D7000D1F78CE001C08BE029960FB6F894DEBF56
:101D80000FBECDBFDF91CF9108958AE0F5CF89E0F6
:101D9000F3CF0F931F93CF93DF93CDB7DEB7289781
:101DA0000FB6F894DEBF0FBECDBF8C01FC0181855C
:101DB00092850E945919F8011782108641E0BE01F0
:101DC0006F5F7F4FF801818592850E948919882372
:101DD00091F1BE016F5F7F4FC8010E940A0D8823F9
:101DE00069F3F80187818F5F8783BE016F5F7F4F43
:101DF000C8010E94E60C882309F3F80180858F5FF3
:101E00008087808181110BC0BE016F5F7F4FC80149
:101E10000E94800D882319F081E0F8018083BE01C3
:101E20006F5F7F4FC8010E94980EF8019381981749
:101E300028F68383C3CF28960FB6F894DEBF0FBE73
:101E4000CDBFDF91CF911F910F910895EF92FF9237
:101E50000F931F93CF93DF93CDB7DEB729970FB6BC
:101E6000F894DEBF0FBECDBF8C017B01AE014F5F8A
:101E70005F4F0E94770E8823A1F0AE014F5F5F4F46
:101E8000B701C8010E943B0E29960FB6F894DEBF39
:101E90000FBECDBFDF91CF911F910F91FF90EF90BB
:101EA000089580E894EEF0CF0E94260F813824EE4A
:101EB00092076CF0BC01990F880B990B0E94A92422
:101EC00020E030E040E05CE30E94CC25089560E033
:101ED00070E08EEF92EC08950F931F93CF93DF93F2
:101EE000CDB7DEB728970FB6F894DEBF0FBECDBFD3
:101EF0008C01462FBE016F5F7F4F0E94190D882312
:101F000089F0BE016F5F7F4FC8010E94540F289671
:101F10000FB6F894DEBF0FBECDBFDF91CF911F91FA
:101F20000F91089560E070E08EEF92ECF0CF8E5D3F
:101F30009E4FDC018D919C91DC01ED91FC91008420
:101F4000F185E02D09948E5D9E4FDC018D919C9171
:101F5000DC01ED91FC910190F081E02D09948E5D02
:101F60009E4FDC018D919C91DC01ED91FC910284EE
:101F7000F385E02D09948E5D9E4FDC018D919C913F
:101F8000DC01ED91FC910484F585E02D09948E5DD2
:101F90009E4FDC018D919C91DC01ED91FC910680BE
:101FA000F781E02D0994FC011382128288EE93E000
:101FB000A0E0B0E084839583A683B78386EC91E0AC
:101FC000918380836487DF01A95EBE4F8EE293E038
:101FD00011969C938E93129611961C921E921296B5
:101FE00011961C921E92179611961C921E9215978E
:101FF0001C92119689E293E08D939C93E05EFE4FD4
:1020000086E293E09183808308950F931F93CF938B
:10201000DF93EC0190E080E08C010F5F1F4F889709
:10202000D8F4E881F9810084F185E02DCE0109958D
:10203000892B51F0E881F9810284F385E02DCE01EE
:10204000099510E000E0EDCF61E070E080E090E005
:102050000E94A91FC801E0CFDF91CF911F910F917E
:102060000895BF92CF92DF92EF92FF920F931F934A
:10207000CF93DF938C017B01B42ED0E0C0E06C01E4
:102080008EEDC81A8EEFD80AE114F10491F1CE3F1B
:10209000D10578F5D6018D919C91DC01ED91FC91F3
:1020A0000084F185E02D0995892BC1F0F60180812E
:1020B0009181DC01ED91FC910284F385E02D09957D
:1020C0008D3041F38A3021F4209721F3BB2089F031
:1020D000F801EC0FFD1F86872196DCCFB1E0EB1AEB
:1020E000F10839F061E070E080E090E00E94A91F03
:1020F000CBCFF801EC0FFD1F16868C2FDF91CF910F
:102100001F910F91FF90EF90DF90CF90BF900895B7
:102110000F931F93CF93DF93EC018B01BA0140E043
:102120000E943110B801CE010E960E94372921E09D
:10213000892B09F020E0822FDF91CF911F910F9121
:1021400008958F929F92AF92BF92CF92DF92EF92BB
:10215000FF920F931F93CF93DF938C017B01D0E00D
:10216000C0E0C42ED12C4C018EED881A8EEF980A57
:10217000E114F10491F1CC15DD0578F55E01A3EFD2
:10218000AA1AAEEFBA0AA00EB11EF40180819181A5
:10219000DC01ED91FC910084F185E02D0995892BFE
:1021A00089F0F40180819181DC01ED91FC91028440
:1021B000F385E02D0995F50181935F012196CC16F9
:1021C000DD0619F7F1E0EF1AF10839F061E070E08F
:1021D00080E090E00E94A91FCBCF0C0F1D1FF801DB
:1021E000E35FFE4F10828C2FDF91CF911F910F91F3
:1021F000FF90EF90DF90CF90BF90AF909F908F9027
:102200000895AF92BF92CF92DF92EF92FF920F9319
:102210001F93CF93DF93EC016B01142F79015C01C5
:102220008EEDA81A8EEFB80A61EC70E0D5018D91A1
:102230009C910E9402214AE050E0612FF5018081CB
:1022400091810E942E2240E064EF71E0CE010E9455
:1022500031108E858E3391F5D5018D919C91412F52
:1022600050E0DC01ED91FC910280F381E02DB6019C
:10227000099540E068E873E1CE010E943110402FDB
:1022800060EA7FE0CE010E94A110C35FDE4FF7013C
:1022900010E0CF018E199F098017910740F48991B2
:1022A000803819F410823196F4CF8083FCCFF70187
:1022B0008081882319F08181843060F080E0DF9193
:1022C000CF911F910F91FF90EF90DF90CF90BF9033
:1022D000AF90089581E0F3CFEF92FF920F931F9399
:1022E000CF93DF93EC017B018A010E940510FE0170
:1022F000EE5DFE4FB701808191810E944B2140E04D
:10230000B801CE01DF91CF911F910F91FF90EF9017
:102310000C943110EF92FF920F931F93CF93DF93A2
:10232000EC017B018A010E940510FE01EE5DFE4F6B
:10233000B701808191810E94392140E0B801CE012E
:10234000DF91CF911F910F91FF90EF900C9431107E
:102350000F931F93CF93DF938C01EB0144EF51E078
:1023600066E772E00E948A11B801625F7F4F4FE01A
:1023700050E0CE010E9487291F8640E064EF71E0A3
:10238000C8010E943110FE0101900020E9F7CF0141
:1023900001978C1BDF91CF911F910F9108958F9220
:1023A0009F92AF92BF92CF92DF92EF92FF920F93E4
:1023B0001F93CF93DF93EC016B0149015A010E94F7
:1023C00005107E018EEDE81A8EEFF80AB601F701CE
:1023D000808191810E9402212AE030E0B501A401B0
:1023E000F701808191810E94082240E0B801CE016E
:1023F000DF91CF911F910F91FF90EF90DF90CF90E1
:10240000BF90AF909F908F900C943110AF92BF927D
:10241000CF92DF92EF92FF920F931F93CF93DF93B0
:102420008C015B016A0179010E940510E801CE5D13
:10243000DE4FB501888199810E94022162E2888184
:1024400099810E942E21B601888199810E940221E2
:1024500062E2888199810E94622140E0B701C8014F
:10246000DF91CF911F910F91FF90EF90DF90CF9070
:10247000BF90AF900C9431100F931F93CF93DF93C5
:10248000EC018A01A9010E948A11882341F0B80158
:10249000CE010E960E94372921E0892B09F020E019
:1024A000822FDF91CF911F910F910895FC01E05E83
:1024B000FE4F4081518124EF31E063E273E00E94DE
:1024C0003C1281E00895CF92DF92EF92FF920F933A
:1024D0001F93CF93DF93EC017C018EEDE81A8EEF12
:1024E000F80AD7016D937C938EE0C82ED12C8E0113
:1024F000005E1E4FF70180819181DC01ED91FC911E
:102500000084F185E02D0995892B59F0F701808130
:102510009181DC01ED91FC910284F385E02D099518
:10252000E9CFF8014081518124EF31E060E273E0AE
:10253000CE010E943C1281115DC0D7018D919C910A
:10254000DC01ED91FC910084F185E02D0995892B4A
:1025500059F0F70180819181DC01ED91FC910284B9
:10256000F385E02D0995E9CF24EF31E04AE153E00E
:102570006DE173E0CE010E943C1281113BC064EF1B
:1025800071E080E090E00E94A91FB1E0CB1AD10871
:1025900009F0B0CFF8014081518124EF31E067E1CB
:1025A00073E0CE010E943C1264E670E080E090E0AF
:1025B0000E94A91FD8014D915C9124EF31E064E1A4
:1025C00073E0CE010E943C1264E670E080E090E08F
:1025D0000E94A91FF8014081518124EF31E061E19F
:1025E00073E0CE010E943C1264E670E080E090E06F
:1025F0000E94A91FF8014081518124EF31E06CE075
:1026000073E0CE010E943C1264E670E080E090E04E
:102610000E94A91FD8014D915C9124EF31E067E041
:1026200073E0CE010E943C12D82E882379F18C856C
:10263000833651F0F8014081518124EF31E06DEF94
:1026400072E0CE010E943C1264E670E080E090E00F
:102650000E94A91FCE010E94051062E771E0D70118
:102660008D919C910E944B2141E064EF71E0CE017D
:102670000E9431108E01025F1F4F64EF72E0C801AB
:102680000E944929892B61F088E08D878D2DDF918B
:10269000CF911F910F91FF90EF90DF90CF90089511
:1026A0006BEE72E0C8010E944929892B11F089E084
:1026B000ECCF62EE72E0C8010E944929892B11F02B
:1026C0008AE0E3CF69ED72E0C8010E944929892BB5
:1026D000E9F28BE0DACFAF92BF92CF92DF92EF9226
:1026E000FF920F931F93CF93DF93EC015B016A017D
:1026F0000E94051028E833E14EE251E066E371E004
:10270000CE010E943C12882309F460C07E0180EE55
:10271000E81A8EEFF80AF7014081518124EF31E089
:1027200062E271E0CE010E943C12882309F44EC09F
:10273000F7014081518124EF31E064E171E0CE0185
:102740000E943C12882309F441C060E071E08E01D0
:102750000E5D1E4FF801808191810E940221B5011A
:10276000F801808191810E9426216CEF70E0F801D0
:10277000808191810E9402214AE050E0B601F80177
:10278000808191810E9440226AEF70E0F80180818F
:1027900091810E943921F7016081718140E157E206
:1027A000CE010E948810882389F040E157E26FEE45
:1027B00070E0CE01DF91CF911F910F91FF90EF90CC
:1027C000DF90CF90BF90AF900C94881080E0DF91A5
:1027D000CF911F910F91FF90EF90DF90CF90BF901E
:1027E000AF90089528EB3BE04AED50E063EE70E0D7
:1027F0000C943C12CF93DF93EC01FC01E05EFE4FA2
:102800004081518128EC30E06DEC70E00E943C1278
:102810008823E1F040E068EC70E0CE010E943110C6
:102820002E9666E771E0CE010E947729892B91F000
:1028300061E871E0CE010E947729892B69F06CE88C
:1028400071E0CE010E947729892B41F080E0DF9171
:10285000CF91089581E0FBCF85E0F9CF8AE0F7CFF3
:102860000F931F93CF93DF93EC018A01A9010E947C
:102870006C11882341F0B801CE010E960E943729D1
:1028800021E0892B09F020E0822FDF91CF911F9169
:102890000F910895EF92FF920F931F93CF93DF93C1
:1028A000CDB7DEB765970FB6F894DEBF0FBECDBFCC
:1028B000F90101900020E9F73197E21BF30B3597FE
:1028C00080F58C013F932F931F924F931F926F932C
:1028D00087E991E09F938F939E012F5F3F4F79018E
:1028E0003F932F930E949E29F801E05EFE4F4081A6
:1028F000518124EF31E0B701C8010E9430140FB6B6
:10290000F894DEBF0FBECDBF65960FB6F894DEBF5C
:102910000FBECDBFDF91CF911F910F91FF90EF9030
:10292000089580E0F1CF9F92AF92BF92CF92DF9255
:10293000EF92FF920F931F93CF93DF93CDB7DEB744
:1029400068970FB6F894DEBF0FBECDBF7C01B42EE2
:10295000A22E932E6C0120EEC21A2EEFD20AF6019F
:102960004081518124EF31E0662309F44DC066E9CE
:1029700072E00E943C12811113C080E068960FB68D
:10298000F894DEBF0FBECDBFDF91CF911F910F91A5
:10299000FF90EF90DF90CF90BF90AF909F90089501
:1029A00064E670E080E090E00E94A91FF60140819B
:1029B000518124EF31E06CE872E0C7010E943C12C3
:1029C0008823D9F2BB20C9F21F930F939F92AF9235
:1029D0001F92BF928CEA91E09F938F938E010F5FBD
:1029E0001F4F1F930F930E949E29F6014081518132
:1029F00024EF31E0B801C7010E9430140FB6F894FB
:102A0000DEBF0FBECDBFBACF6DE772E00E943C12B1
:102A1000B5CFCF92DF92EF92FF920F931F93CF9398
:102A2000DF93EC01680187010E94CF11B601CE014E
:102A30000E960E94372921E0892B09F020E0822F91
:102A4000DF91CF911F910F91FF90EF90DF90CF908A
:102A50000895EF92FF920F931F93FC01E05EFE4FEB
:102A600000811181262F30E050E040E064EFE62E37
:102A7000FF24F39462EC72E00E9409151F910F91FC
:102A8000FF90EF900895EF92FF920F931F93FC0138
:102A9000E05EFE4F00811181262F30E050E040E0E3
:102AA00064EFE62EFF24F39469EB72E00E940915AF
:102AB0001F910F91FF90EF900895EF92FF920F9367
:102AC0001F93FC01E05EFE4F00811181262F30E054
:102AD00050E040E064EFE62EFF24F3946FEA72E0EA
:102AE0000E9409151F910F91FF90EF900895EF92AA
:102AF000FF920F931F93FC01E05EFE4F0081118156
:102B0000262F30E050E040E064EFE62EFF24F394FF
:102B100065EA72E00E9409151F910F91FF90EF90F6
:102B20000895EF92FF920F931F93CF93DF93EC01E1
:102B3000790198010E940612B701CE010E960E94FB
:102B4000372921E0892B09F020E0822FDF91CF91F6
:102B50001F910F91FF90EF900895AF92BF92CF9287
:102B6000DF92EF92FF920F931F93CF93DF93EC01CD
:102B700020E23EE4662309F4EEC041E352E069E35B
:102B800072E00E943C127E0180EEE81A8EEFF80A95
:102B9000F7014081518120E137E264E272E0CE0129
:102BA0000E943C12882309F4CAC0F7014081518178
:102BB00020E137E266E072E0CE010E943C128823F9
:102BC00009F4BDC068EC70E080E090E00E94A91FAD
:102BD0006E01F9EECF1AFEEFDF0AF6014081518156
:102BE0004115510509F5F7014081518120E335E791
:102BF00062EB71E0CE010E943C12882309F49FC071
:102C0000F7014081518120E137E269EA71E0CE01AC
:102C1000DF91CF911F910F91FF90EF90DF90CF90B8
:102C2000BF90AF900C943C12F7012081318100E1FC
:102C300017E262EF71E0CE010E949115882309F43A
:102C40007EC0CE010E9405108E010E5D1E4F68EE03
:102C500071E0F801808191810E940221F60160817A
:102C60007181F801808191810E9402215E01F7EE5D
:102C7000AF1AFEEFBF0AF50180819181892B79F0AF
:102C80006EEB71E0F801808191810E942621F501AF
:102C900060817181F801808191810E9402216E0121
:102CA000F5EECF1AFEEFDF0AF60180819181892BC4
:102CB00079F06EEB71E0F801808191810E9426210C
:102CC000F60160817181F801808191810E94022169
:102CD00060EC71E0F801808191810E944B21F70145
:102CE0006081718140E157E2CE010E948810882303
:102CF00031F1F5014081518141155105A1F4F601F1
:102D0000408151814115510509F46DCFF7012081B2
:102D1000318100E117E26FEB71E0CE010E94911565
:102D2000811161CF0CC0F7012081318100E117E2F0
:102D300063ED71E0CE010E9491158111E0CF80E03A
:102D4000DF91CF911F910F91FF90EF90DF90CF9087
:102D5000BF90AF90089546E951E06EE971E00E949E
:102D60003C12882361F38E01005E1E4FF801408102
:102D7000518120E137E269E871E0CE010E943C1206
:102D80008823E9F2F8014081518120E137E26EE7C2
:102D900071E03DCF0F931F93FC01E95EFE4F7183FD
:102DA0006083329651834083329631832083FC01C5
:102DB0002585283058F0AB01E05EFE4F208131813F
:102DC00000E117E261E471E00E9491151F910F91FB
:102DD0000895AF92BF92CF92DF92EF92FF920F933E
:102DE000CF93DF935B016A01E22E0E960E94492980
:102DF000EC01892B19F1C5010E9440298C0F9D1F00
:102E0000C0E00E2C000CFF08C01741F0B7010E9473
:102E10006C29009799F00196CF5FF6CF0E9419298F
:102E2000F6019183808381E0DF91CF910F91FF9034
:102E3000EF90DF90CF90BF90AF90089580E0F4CFF7
:102E4000AF92BF92CF92DF92EF920F931F93CF93E7
:102E5000DF93EC016A015901102F0E2D44EF51E070
:102E60000E948A11212FA501B601CE010E94E91608
:102E7000182F882331F040E064EF71E0CE010E940A
:102E80003110812FDF91CF911F910F91EF90DF9043
:102E9000CF90BF90AF900895EF920F939B0142E0C7
:102EA000E42E0CE24BEC52E062ED72E00E9420173F
:102EB0000F91EF900895EF920F93CF93DF9300D08F
:102EC000CDB7DEB7FC012585EE24E3940CE2283073
:102ED000A8F09E012F5F3F4F43E652E06CE672E0A0
:102EE0000E942017882341F089810F900F90DF9175
:102EF000CF910F91EF90089580E0F7CF9E012F5F63
:102F00003F4F42E552E06AE572E0EACFEF920F935D
:102F1000CF93DF9300D0CDB7DEB7E12C0CE29E015A
:102F20002F5F3F4F44E452E06BE472E00E942017B1
:102F3000882341F089810F900F90DF91CF910F91FD
:102F4000EF90089580E0F7CFEF920F93CF93DF9348
:102F500000D0CDB7DEB7E12C0CE29E012F5F3F4FD2
:102F60004BE651E064E771E00E942017882341F0AE
:102F700089810F900F90DF91CF910F91EF9008957D
:102F80008FEFF7CFEF920F93CF93DF9300D0CDB7B2
:102F9000DEB7E12C0CE29E012F5F3F4F44E551E08C
:102FA0006FE571E00E942017882341F089810F901E
:102FB0000F90DF91CF910F91EF9008958FEFF7CFA2
:102FC0004115510529F4EAE7F0E080818F7780838D
:102FD0006A307105B9F0CB01880F991F880F991FCE
:102FE000807267706860682B88E10FB6F894A895C6
:102FF000809360000FBE60936000E0E6F0E08081A7
:1030000080648083232BD9F483B7817F846083BF5E
:10301000F89483B7816083BF85B7806685BF8F7D55
:1030200085BF7894889583B78E7F83BF7894452B2E
:1030300029F4EAE7F0E0808180688083089583B70F
:10304000817F846083BFF89483B7816083BF789465
:10305000889583B78E7F83BF7894E9CF1F920F92B4
:103060000FB60F9211248F930FB6F894A895809104
:103070006000886180936000109260000FBE8F91A5
:103080000F900FBE0F901F901895FF920F931F93F4
:10309000CF93DF93FC011081C181D281F8948981A3
:1030A000012F00958023898378948DE7F82EFA9478
:1030B000FF2061F182E090E00E94E21F888181237D
:1030C000B1F3F8948A8180238A838981812B898353
:1030D000789480EE91E00E94E21FF8948981802329
:1030E000898386E490E00E94E21F88811823C1E072
:1030F00009F0C0E078948AE991E00E94E21F8C2FE9
:10310000DF91CF911F910F91FF900895C0E0F7CF0D
:103110001F93CF93DF93FC011081C181D281912F46
:10312000909560FF16C0F8948A8189238A838981EB
:10313000812B89838AE090E00E94E21F8A81182B0C
:103140001A83789487E390E0DF91CF911F910C94DC
:10315000E21FF8948A8189238A838981812B89835C
:1031600081E490E00E94E21F8A81182B1A837894F0
:1031700085E090E0E9CF0F931F93CF93DF93FC019D
:103180001081C181D281F8948981812B89838A81C0
:10319000012F009580238A8383E090E00E94E21F44
:1031A0008981802389838AE090E00E94E21FC881A0
:1031B000789485E390E00E94E21F1C2381E009F4EB
:1031C00080E0DF91CF911F910F910895DF92EF92F0
:1031D000FF920F931F93CF93DF93EC01D62EE42E33
:1031E00008E010E0FF24F39461E08D2D8F2109F4B5
:1031F00060E0CE010E948818FF0C01501109A1F770
:10320000E11010C0F894E981FA819181888180955C
:1032100089238183E981FA8192818881809589233C
:1032200082837894DF91CF911F910F91FF90EF905F
:10323000DF900895EF92FF920F931F93CF93DF9348
:103240007C0108E010E0C0E0D1E0C7010E94BB189B
:103250008111CD2BDD0F01501109B9F78C2FDF91B2
:10326000CF911F910F91FF90EF900895EF92FF92F1
:103270000F931F93CF93DF938C017B0140E065E5B3
:103280000E94E618E70188E0E80EF11C699140E031
:10329000C8010E94E618CE15DF05C1F7DF91CF9176
:1032A0001F910F91FF90EF90089540E06CEC0C940B
:1032B000E618FC0113861586148612861186108680
:1032C0001782168215821482138208951F93CF935A
:1032D000DF93EC01162F60E0812F0E945C20612FAC
:1032E00070E0FB01EA59FC4FE491E883FB01E358ED
:1032F000FC4FE491F0E0EE0FFF1FEC56FC4F859180
:1033000094919A838983CE01DF91CF911F910C9480
:103310005919BF92CF92DF92EF92FF920F931F93B2
:10332000CF93DF93EC01B62EC72E142F8D8581111C
:1033300005C0CE010E94451881110EC01B861D8656
:103340001C8680E0DF91CF911F910F91FF90EF904D
:10335000DF90CF90BF90089540E060EF111101C061
:103360006CEECE010E94E61801E0E12CD12C11E0B8
:10337000CE010E94BB18F82ECE010E94BB1891E02E
:10338000F91218C0813099F51134C0F2DB86D110E2
:1033900002C081E08D878B81882381F22396EB2DFB
:1033A000FC2DCF01089629912193E817F907D9F749
:1033B00081E0C8CFEE2DF0E0F8120FC08B85181712
:1033C000A0F4DE01AE0FBF1F13968C91802379F419
:1033D000F12C193008F41C87D12EEC0FFD1F8381CE
:1033E000902F9095892383830AC08113F1CFFE012A
:1033F000EE0DF11D8381802B8383FF24F3946F2DC9
:10340000CE010E9488181F5F000F11F4E39401E0C1
:1034100087E08E1508F0ACCFB7CFDC0180E06150BB
:1034200090F09D919827E92FEF70F0E0E15DFC4F5F
:103430002491E92FE295EF70F0E0E15CFC4FE4911C
:10344000822F8E27ECCF08951F920F920FB60F9206
:1034500011242F933F934F935F936F937F938F9399
:103460009F93AF93BF93EF93FF93E0910B04F09181
:103470000C040995FF91EF91BF91AF919F918F91AE
:103480007F916F915F914F913F912F910F900FBE60
:103490000F901F90189580913F0490914004891BD4
:1034A000990B08959091400480913F042FEF3FEFD6
:1034B000981748F4E92FF0E0EF5BFB4F208130E0F4
:1034C0009F5F90934004C9010895E091400480916A
:1034D0003F04E81730F4F0E0EF5BFB4F808190E0B1
:1034E00008958FEF9FEF08950895CF93DF931F9274
:1034F000CDB7DEB7698320911C042223F9F0209117
:103500001D04203258F021E030E0FC013383228397
:1035100090E080E00F90DF91CF91089580911E049C
:10352000E82FF0E0E15EFB4F998190838F5F8093FD
:103530001E0480931D0481E090E0ECCF61E0CE0199
:1035400001960E94E21AF7CFCF92DF92EF92FF929C
:103550000F931F93CF93DF937C01CB018A012091BE
:103560001C04222389F0EB016B01C40ED51ECC157F
:10357000DD0569F06991D701ED91FC910190F08131
:10358000E02DC7010995F3CF642F0E94E21AC8010C
:10359000DF91CF911F910F91FF90EF90DF90CF902F
:1035A0000895E0E1F4E01382128288EE93E0A0E057
:1035B000B0E084839583A683B78388ED91E09183FF
:1035C0008083089520918304260F3327331F2132EF
:1035D0003105ECF42091CE04FC0190E080E0243031
:1035E00069F082E00895A09183042191AC014B57CA
:1035F0005B4FA40FB52FB11D2C930196861798F33E
:1036000080918304680F6093830480E0089581E0D3
:10361000089585ED8093BC008091BC0084FDFCCFB3
:103620001092CE04089585EC8093BC001092CE04D5
:1036300008951F920F920FB60F9211242F933F936C
:103640004F935F936F937F938F939F93AF93BF93AA
:10365000EF93FF938091B900887F803609F44CC0C6
:1036600008F03FC0883209F4A8C018F5803109F489
:103670009CC0B8F4882309F4F9C0883009F495C0D7
:10368000FF91EF91BF91AF919F918F917F916F913A
:103690005F914F913F912F910F900FBE0F901F9010
:1036A0001895883109F489C0803251F780936104FC
:1036B00015C0803409F49EC048F48033B9F38833D0
:1036C000F9F6809361040E94131BDACF803509F468
:1036D00085C0883509F496C0883491F60E94091B8C
:1036E000CFCF883909F48CC038F5883729F050F4E9
:1036F000883611F0803721F683E08093CE04109253
:10370000620457C0883809F47BC0803919F08038CA
:1037100009F0B6CF80916204803208F071C0E09168
:10372000620481E08E0F809362048091BB00F0E020
:10373000ED59FB4F80833DC0803B39F0E0F4803A87
:1037400009F479C0883A09F09BCF84E08093CE04D5
:103750001092840410928304E091C904F091CA0489
:1037600009958091830481110FC081E080938304C7
:103770001092850409C0803C09F476C0883C09F4A5
:1037800073C0883B09F07CCFE091840481E08E0F08
:1037900080938404F0E0EB57FB4F80818093BB0063
:1037A000909184048091830429C08091CD048093FA
:1037B000BB0085EC8093BC0063CF9091A604809100
:1037C000A504981758F5E091A60481E08E0F809328
:1037D000A604F0E0E955FB4F8081E9CFE091A60413
:1037E00081E08E0F8093A6048091BB00F0E0E95544
:1037F000FB4F80839091A6048091A5049817C8F28E
:1038000085E8D8CFE091A60481E08E0F8093A604CE
:103810008091BB00F0E0E955FB4F80838091CC04A0
:1038200081115CCF81E08093CB0484EA8093BC005B
:103830001092CE0425CF0E94131B80916204803227
:1038400030F4E0916204F0E0ED59FB4F108260919A
:10385000620470E0E091C704F091C80483E694E04C
:103860000995109262040CCF85ECE0CF10926104B0
:1038700035CF8091690590916805891769F09F5F40
:10388000903508F090E0E92FF0E0E85EFA4F808193
:103890009093680590E008958FEF9FEF08958091D1
:1038A0006905E09168058E1751F0EF5FE03508F08B
:1038B000E0E0F0E0E85EFA4F808190E008958FEF5D
:1038C0009FEF08955091690540916805852F90E01C
:1038D000242F30E0541718F0821B930B0895805B5F
:1038E0009F4FFACF9B01AC01213668E136074105B5
:1038F000510540F410926F001092800081E880938F
:10390000810018C0DC01C90173E0B695A7959795B1
:1039100087957A95D1F7813668E19607A105B105BB
:10392000C8F510926F001092800022E82093810069
:103930009C01AD013093720520937105A5E2B0E0C2
:103940000E94E02622E096958795779567952A95BF
:10395000D1F770936B0560936A0562E088E00E947E
:103960005C2061E089E00E94982061E089E00E948B
:103970005C201092700510926905109268051092F3
:103980001705109214051092130580E286BB8093F0
:103990006F000895232F342F452F5527213688E1B6
:1039A000380741055105A8F710926F00109280006A
:1039B00084E8A5CF909114059F5F943408F090E0BF
:1039C000209113052917E1F32FB7F89430911705CB
:1039D000332349F0E92FF0E0E153FB4F80839093CC
:1039E00014052FBF089591E0909317058093160555
:1039F0001092150582E086BB80916F0082608093F3
:103A00006F00809180008F7B806880938000809120
:103A1000840090918500409690938900809388005F
:103A2000E0CF862F0E94DA1C81E090E008951F927B
:103A30000F920FB60F9211242F933F934F935F93E2
:103A40006F937F938F939F93EF93FF93209117052D
:103A500060911605809188009091890040917105D0
:103A600050917205309115052A3070F5840F951F1D
:103A7000762F7170293009F471E066952F5F371742
:103A800099F3309180007723E1F0306C309380001F
:103A900090938900809388007093150560931605B4
:103AA00020931705FF91EF919F918F917F916F91D7
:103AB0005F914F913F912F910F900FBE0F901F90EC
:103AC00018953F7B3068E2CF30911405E0911305E3
:103AD0003E1319C02A3051F42BE020931705840FB0
:103AE000951F9093890080938800DCCF1092170572
:103AF000809180008F738093800080916F008D7F14
:103B000080936F00CFCFEF5FE43408F0E0E0E09304
:103B10001305F0E0E153FB4F30813093160510920E
:103B20001505309180003F7B3068309380002A304B
:103B300071F42091710530917205820F931F90935B
:103B400089008093880081E080931705ABCF809136
:103B50008400909185004096F2CF809117058111E5
:103B6000FCCF08950C94AD1D1F920F920FB60F92CB
:103B700011242F933F934F935F936F937F938F9372
:103B80009F93AF93BF93EF93FF93809186009091A3
:103B9000870040916E05209181004423F1F12F7B35
:103BA0002093810010926E053091700531113CC058
:103BB000411122C020916A0530916B05280F391FF1
:103BC00030938B0020938A0024E026BB20916F0065
:103BD000246020936F002091710530917205820F4F
:103BE000931F36952795280F391F30936D05209325
:103BF0006C0581E080937005FF91EF91BF91AF91CB
:103C00009F918F917F916F915F914F913F912F91F4
:103C10000F900FBE0F901F90189520642093810085
:103C200020E820936E05C0CF40916C0550916D0542
:103C30006091710570917205DB01A095B09520919E
:103C40006F05E0916E05841B950BA817B90768F105
:103C500026952E2B460F571F3F5F861B970B39303B
:103C6000A0F320936F0580916F008B7F80936F008E
:103C7000809169058F5F803508F080E0909168053C
:103C8000981749F0E82FF0E090916F05E85EFA4F41
:103C9000908380936905809181008F7B8093810060
:103CA00010926E0510927005A7CF20936F05509368
:103CB0006D0540936C05309370059ECF1F920F9257
:103CC0000FB60F9211242F938F939F93EF93FF932F
:103CD00080916F008B7F80936F00809181008F7B3C
:103CE000809381008091700520916E0520589091FD
:103CF0006F05893020F49695922B8F5FFACF9093C1
:103D00006F05809169058F5F803508F080E0209114
:103D10006805281739F0E82FF0E0E85EFA4F908345
:103D20008093690510927005809181008F7B80934C
:103D3000810010926E05FF91EF919F918F912F91CD
:103D40000F900FBE0F901F9018958091680580937B
:103D500069050895CF93DF93CFE6D0E088818B7F0C
:103D6000888388818F7D88830E94A51E0E94AD1D57
:103D700088818D7F8883DF91CF9108950895823067
:103D8000E8F4E82FF0E0EE0FFF1FE95CFE4F7183CF
:103D90006083813041F0809169008C7F482B409393
:103DA0006900E89A089580916900837F440F551F48
:103DB000440F551F482B40936900E99A08951F92BC
:103DC0000F920FB60F9211242F933F934F935F934F
:103DD0006F937F938F939F93AF93BF93EF93FF93D3
:103DE000E0913701F09138010995FF91EF91BF9172
:103DF000AF919F918F917F916F915F914F913F9183
:103E00002F910F900FBE0F901F9018951F920F9239
:103E10000FB60F9211242F933F934F935F936F939D
:103E20007F938F939F93AF93BF93EF93FF93E09113
:103E30003901F0913A010995FF91EF91BF91AF914E
:103E40009F918F917F916F915F914F913F912F91B2
:103E50000F900FBE0F901F90189508951F920F920C
:103E60000FB60F9211242F933F938F939F93AF938D
:103E7000BF938091780590917905A0917A05B091D2
:103E80007B053091770526E0230F2D3768F129E86F
:103E9000230F0396A11DB11D20937705809378050C
:103EA00090937905A0937A05B0937B058091730573
:103EB00090917405A0917505B09176050196A11DAC
:103EC000B11D8093730590937405A0937505B0930D
:103ED0007605BF91AF919F918F913F912F910F9058
:103EE0000FBE0F901F9018950296A11DB11DD4CF43
:103EF0002FB7F894609178057091790580917A05D3
:103F000090917B052FBF08953FB7F894809173057A
:103F100090917405A0917505B091760526B5A89B82
:103F200005C02F3F19F00196A11DB11D3FBFBA2F4B
:103F3000A92F982F8827BC01CD01620F711D811D0B
:103F4000911D43E0660F771F881F991F4A95D1F78F
:103F500008958F929F92AF92BF92CF92DF92EF928D
:103F6000FF926B017C010E94841F4B015C01C11414
:103F7000D104E104F104E9F00E942D1F0E94841F86
:103F8000681979098A099B09683E73408105910582
:103F900070F321E0C21AD108E108F10888EE880E1A
:103FA00083E0981EA11CB11CC114D104E104F104EA
:103FB00029F7FF90EF90DF90CF90BF90AF909F9048
:103FC0008F900895000000008330910528F0880F3D
:103FD000991F05970197F1F70895789484B5836048
:103FE00084BD85B5836085BDEEE6F0E080818160AB
:103FF0008083E1E8F0E082E08083808181608083DB
:10400000E0E8F0E0808181608083E1EBF0E0808196
:1040100084608083E0EBF0E080818160808386E8CB
:1040200080937A001092C1000895883020F08D307E
:1040300008F48DE08E5020913B0190E4299F90017F
:1040400011248770822B80937C0080917A00806499
:1040500080937A0080917A0086FDFCCF8091780071
:10406000909179000895843081F028F48230E9F04D
:104070008330F9F00895883071F0893091F08530FF
:10408000B9F4809180008F7D03C0809180008F778C
:104090008093800008958091B0008F778093B00066
:1040A00008958091B0008F7DF9CF84B58F7784BD5E
:1040B000089584B58F7DFBCFCF93DF9390E0FC0113
:1040C000EA59FC4F249183589C4FFC01849188232A
:1040D000C9F090E0880F991FFC01E855FC4FA591AD
:1040E000B491FC01E256FC4FC591D49161110DC011
:1040F0009FB7F8948C91209582238C9388812823F4
:1041000028839FBFDF91CF910895623051F49FB70C
:10411000F8943C91822F809583238C93E8812E2BF9
:10412000EFCF8FB7F894EC912E2B2C938FBFEACF63
:104130001F93CF93DF93282F30E0F901E15BFC4F11
:104140008491F901EA59FC4FD491F901E358FC4FED
:10415000C491CC23A9F0162F81110E943320EC2F9B
:10416000F0E0EE0FFF1FE256FC4FA591B4918FB720
:10417000F894EC91111108C0D095DE23DC938FBF29
:10418000DF91CF911F910895DE2BF8CFAF92BF92B0
:10419000CF92DF92EF92FF920F931F93CF93DF9313
:1041A0006C017B018B01040F151FEB015E01AE1842
:1041B000BF08C017D10759F06991D601ED91FC9164
:1041C0000190F081E02DC6010995892B79F7C50191
:1041D000DF91CF911F910F91FF90EF90DF90CF90E3
:1041E000BF90AF900895FB0101900020E9F731974F
:1041F000AF01461B570BDC01ED91FC910280F3816E
:10420000E02D0994EF92FF920F931F93CF93DF93CA
:104210008C017B01D0E0C0E0F701EC0FFD1F649141
:10422000662361F0D801ED91FC910190F081E02DC1
:10423000C8010995892B11F02196EECFCE01DF91AF
:10424000CF911F910F91FF90EF9008956115710527
:1042500011F00C94F32090E080E00895DC01ED91E2
:10426000FC910190F081E02D099468EF71E00C94CD
:10427000F3200F931F93CF93DF93EC010E94022151
:104280008C01CE010E943521800F911FDF91CF91CB
:104290001F910F9108950F931F93CF93DF938C017C
:1042A000D0E0C0E06115710519F00E94F320EC0127
:1042B000C8010E9435218C0F9D1FDF91CF911F9166
:1042C0000F9108950F931F93CF93DF93EC010E94FA
:1042D0002E218C01CE010E943521800F911FDF918C
:1042E000CF911F910F9108958F929F92AF92BF929D
:1042F000EF92FF920F931F93CF93DF93CDB7DEB76B
:10430000A1970FB6F894DEBF0FBECDBF7C01FA01B6
:10431000CB0119A2223008F42AE08E010F5D1F4F55
:10432000822E912CB12CA12CBF01A50194010E94D9
:104330009F26F901CA016A300CF5605DD8016E93C1
:104340008D01232B242B252B79F790E080E010970B
:1043500021F0BD01C7010E94F320A1960FB6F89489
:10436000DEBF0FBECDBFDF91CF911F910F91FF90A8
:10437000EF90BF90AF909F908F900895695CDECFD3
:10438000CF92DF92EF92FF920F931F93CF93DF9321
:104390002115310581F4DC01ED91FC910190F08152
:1043A000E02D642FDF91CF911F910F91FF90EF903F
:1043B000DF90CF9009942A30310501F52AE077FF8C
:1043C0001DC06A017B01EC016DE20E942E218C016F
:1043D00044275527BA014C195D096E097F092AE067
:1043E000CE010E947421800F911FDF91CF911F9108
:1043F0000F91FF90EF90DF90CF900895DF91CF91D4
:104400001F910F91FF90EF90DF90CF900C9474214B
:104410000F931F93CF93DF93EC010E94C0218C0177
:10442000CE010E943521800F911FDF91CF911F9106
:104430000F9108952115310541F4DC01ED91FC91B6
:104440000190F081E02D642F09940C9474219A015D
:10445000462F50E070E060E00C941A220F931F93F7
:10446000CF93DF93EC010E9427228C01CE010E94A2
:104470003521800F911FDF91CF911F910F910895EA
:104480009A01AB0170E060E00C941A224F925F92A7
:104490006F927F92AF92BF92CF92DF92EF92FF9294
:1044A0000F931F93CF93DF93CDB7DEB729013A0166
:1044B0009B01AC01241935094609570989899A8954
:1044C000AB89BC89BC01CD016A197B098C099D09A6
:1044D0000E946726A8019701241935094609570942
:1044E0000E94C126CA01B9016A0D7B1D8C1D9D1D4C
:1044F000DF91CF911F910F91FF90EF90DF90CF90C0
:10450000BF90AF907F906F905F904F900895FC01A7
:10451000808191810C94D327CF93DF93EC01888124
:104520009981009711F00E94D327198218821D8269
:104530001C821B821A82DF91CF9108950F931F93E3
:10454000CF93DF93EC018B016F5F7F4F888199815F
:104550000E945C28009751F0998388831B830A830B
:1045600081E0DF91CF911F910F91089580E0F9CF05
:10457000CF93DF93EC0188819981892B49F08A815F
:104580009B818617970720F081E0DF91CF910895F6
:10459000CE010E949E228823C1F38C819D81892BAC
:1045A00099F7E881F9811082EFCFEF92FF920F9394
:1045B0001F93CF93DF93EC017B018A01BA010E9424
:1045C000B82281110BC0CE010E948C22CE01DF9156
:1045D000CF911F910F91FF90EF9008951D830C8351
:1045E000B701888199810E948029F0CFFC01118256
:1045F000108213821282158214826115710551F0A6
:10460000FB0101900020E9F73197AF01461B570BE2
:104610000C94D522089508950E94ED1F0E940B234B
:104620000E94190BC0E0D0E00E94020C2097E1F339
:104630000E940000F9CF5058BB27AA270E943323BD
:104640000C9471250E94382538F00E943F2520F0F7
:1046500039F49F3F19F426F40C940E250EF4E095DE
:10466000E7FB0C940825E92F0E94962558F3BA170A
:10467000620773078407950720F079F4A6F50C9478
:10468000B8250EF4E0950B2EBA2FA02D0B01B90121
:1046900090010C01CA01A0011124FF27591B99F0B8
:1046A000593F50F4503E68F11A16F040A22F232FC4
:1046B000342F4427585FF3CF469537952795A79514
:1046C000F0405395C9F77EF41F16BA0B620B730BBB
:1046D000840BBAF09150A1F0FF0FBB1F661F771F2C
:1046E000881FC2F70EC0BA0F621F731F841F48F4E1
:1046F000879577956795B795F7959E3F08F0B0CF6A
:104700009395880F08F09927EE0F97958795089550
:104710000E94382560F080E891E009F49EEF0E9445
:104720003F2528F040E851E071F45EEF0CC00C9496
:104730000E250C94B825E92FE0780E94962540F3C9
:10474000092E052AB1F3261737074807590738F00D
:104750000E2E07F8E02569F0E025E0640AC0EF635B
:1047600007F8009407FADB01B9019D01DC01CA01D9
:10477000AD01EF930E9416240E9471250E94CB2365
:104780005F91552339F02BED3FE049E450FD49ECB2
:104790000C941C230895DF93DD27B92FBF7740E8E1
:1047A0005FE31616170648075B0718F4D92F0E9417
:1047B000C4259F938F937F936F930E944126E8E6D1
:1047C000F0E00E9411250E9471252F913F914F9199
:1047D0005F910E94DF25DD2351F09058A2EA2AED77
:1047E0003FE049EC5FE3D0785D270E943323DF91FF
:1047F0000C9471250E944825E3950C9482250E9413
:1048000013240C9471250E943F2558F00E943825EE
:1048100040F029F45F3F29F00C94082551110C94C5
:10482000B9250C940E250E94962568F39923B1F3BF
:10483000552391F3951B550BBB27AA2762177307C6
:10484000840738F09F5F5F4F220F331F441FAA1F5A
:10485000A9F335D00E2E3AF0E0E832D09150504016
:10486000E695001CCAF72BD0FE2F29D0660F771FC4
:10487000881FBB1F261737074807AB07B0E809F0AA
:10488000BB0B802DBF01FF2793585F4F3AF09E3F2F
:10489000510578F00C9408250C94B9255F3FE4F39A
:1048A000983ED4F3869577956795B795F7959F5F72
:1048B000C9F7880F911D9695879597F90895E1E0BE
:1048C000660F771F881FBB1F621773078407BA071D
:1048D00020F0621B730B840BBA0BEE1F88F7E09578
:1048E00008950E9478246894B1110C94B925089514
:1048F0000E949E2588F09F5798F0B92F9927B751AD
:10490000B0F0E1F0660F771F881F991F1AF0BA9573
:10491000C9F714C0B13091F00E94B825B1E00895F4
:104920000C94B825672F782F8827B85F39F0B93FE6
:10493000CCF3869577956795B395D9F73EF4909526
:104940008095709561957F4F8F4F9F4F0895E894A4
:1049500009C097FB3EF490958095709561957F4FC7
:104960008F4F9F4F9923A9F0F92F96E9BB27939575
:10497000F695879577956795B795F111F8CFFAF485
:10498000BB0F11F460FF1BC06F5F7F4F8F4F9F4FB6
:1049900016C0882311F096E911C0772321F09EE814
:1049A000872F762F05C0662371F096E8862F70E07A
:1049B00060E02AF09A95660F771F881FDAF7880F54
:1049C0009695879597F90895990F0008550FAA0BAA
:1049D000E0E8FEEF16161706E807F907C0F0121612
:1049E0001306E407F50798F0621B730B840B950B15
:1049F00039F40A2661F0232B242B252B21F408956A
:104A00000A2609F4A140A6958FEF811D811D089506
:104A100097F99F6780E870E060E008959FEF80EC71
:104A20000895DF93CF931F930F93FF92EF92DF923E
:104A30007B018C01689406C0DA2EEF010E94DF250D
:104A4000FE01E894A5912591359145915591A6F3E4
:104A5000EF010E943323FE019701A801DA9469F760
:104A6000DF90EF90FF900F911F91CF91DF9108950C
:104A700000240A941616170618060906089500243D
:104A80000A94121613061406050608950C940E25B2
:104A90000E949E25D8F3E894E0E0BB279F57F0F0F2
:104AA0002AED3FE049EC06C0EE0FBB0F661F771FF3
:104AB000881F28F0B23A62077307840728F0B25AB9
:104AC000620B730B840BE3959A9572F7803830F480
:104AD0009A95BB0F661F771F881FD2F790480C94DA
:104AE0004726092E0394000C11F4882352F0BB0FC3
:104AF00040F4BF2B11F460FF04C06F5F7F4F8F4FF6
:104B00009F4F0895EF93E0FF07C0A2EA2AED3FE030
:104B100049EC5FEB0E9433230E9471250F900394B0
:104B200001FC9058E5E9F0E00C94532657FD9058AD
:104B3000440F551F59F05F3F71F04795880F97FB61
:104B4000991F61F09F3F79F087950895121613061B
:104B50001406551FF2CF4695F1DF08C0161617064A
:104B60001806991FF1CF869571056105089408957F
:104B7000E894BB2766277727CB0197F908950E9411
:104B8000E42408F48FEF08959B01AC0160E070E02D
:104B900080E89FE30C94FF230E94DF250C9471258D
:104BA0000E94382538F00E943F2520F0952311F00F
:104BB0000C9408250C940E2511240C94B9250E9400
:104BC000962570F3959FC1F3950F50E0551F629F96
:104BD000F001729FBB27F00DB11D639FAA27F00D56
:104BE000B11DAA1F649F6627B00DA11D661F829F7D
:104BF0002227B00DA11D621F739FB00DA11D621F62
:104C0000839FA00D611D221F749F3327A00D611D7E
:104C1000231F849F600D211D822F762F6A2F112460
:104C20009F5750409AF0F1F088234AF0EE0FFF1F93
:104C3000BB1F661F771F881F91505040A9F79E3FEA
:104C4000510580F00C9408250C94B9255F3FE4F3DE
:104C5000983ED4F3869577956795B795F795E79540
:104C60009F5FC1F7FE2B880F911D9695879597F949
:104C700008959F930E9448250F9007FCEE5F0C94C7
:104C800082259B01AC010C94CC259F3F31F09150C3
:104C900020F4879577956795B795880F911D969520
:104CA000879597F908959F938F937F936F93FF93C1
:104CB000EF939B01AC010E94CC25EF91FF910E94E4
:104CC00011252F913F914F915F910C94CC25DB01E1
:104CD0008F939F930E94E026BF91AF91A29F800D7A
:104CE000911DA39F900DB29F900D11240895AA1BB2
:104CF000BB1B51E107C0AA1FBB1FA617B70710F0C7
:104D0000A61BB70B881F991F5A95A9F780959095F8
:104D1000BC01CD01089597FB072E16F4009407D02F
:104D200077FD09D00E94772607FC05D03EF49095C8
:104D300081959F4F0895709561957F4F0895A1E2E9
:104D40001A2EAA1BBB1BFD010DC0AA1FBB1FEE1F05
:104D5000FF1FA217B307E407F50720F0A21BB30B50
:104D6000E40BF50B661F771F881F991F1A9469F7CC
:104D700060957095809590959B01AC01BD01CF0128
:104D80000895052E97FB1EF400940E94D82657FD27
:104D900007D00E949F2607FC03D04EF40C94D8261F
:104DA00050954095309521953F4F4F4F5F4F089557
:104DB00090958095709561957F4F8F4F9F4F089587
:104DC0000E942827A59F900DB49F900DA49F800D51
:104DD000911D112408952F923F924F925F926F92EE
:104DE0007F928F929F92AF92BF92CF92DF92EF927B
:104DF000FF920F931F93CF93DF93CDB7DEB7CA1BFC
:104E0000DB0B0FB6F894DEBF0FBECDBF09942A8826
:104E1000398848885F846E847D848C849B84AA84CE
:104E2000B984C884DF80EE80FD800C811B81AA815B
:104E3000B981CE0FD11D0FB6F894DEBF0FBECDBF26
:104E4000ED010895EE0FFF1F0590F491E02D0994F8
:104E5000A29FB001B39FC001A39F700D811D1124BB
:104E6000911DB29F700D811D1124911D08950F9306
:104E70001F93CF93DF938230910510F482E090E08E
:104E8000E0917E05F0917F0530E020E0B0E0A0E009
:104E9000309799F42115310509F44AC0281B390BC4
:104EA00024303105D8F58A819B816115710589F11E
:104EB000FB0193838283FE0111C0408151810281F5
:104EC000138148175907E0F04817590799F41097CC
:104ED00061F012960C93129713961C933296CF01A1
:104EE000DF91CF911F910F91089500937E0510934C
:104EF0007F05F4CF2115310551F04217530738F0E3
:104F0000A901DB019A01BD01DF01F801C1CFEF0169
:104F1000F9CF90937F0580937E05CDCFFE01E20F00
:104F2000F31F819391932250310939832883D7CF7E
:104F300020917C0530917D05232B41F420910201C5
:104F40003091030130937D0520937C052091000171
:104F5000309101012115310541F42DB73EB7409143
:104F6000040150910501241B350BE0917C05F09163
:104F70007D05E217F307A0F42E1B3F0B2817390716
:104F800078F0AC014E5F5F4F2417350748F04E0FA5
:104F90005F1F50937D0540937C05819391939FCF34
:104FA000F0E0E0E09CCFCF93DF930097E9F0FC01C5
:104FB000329713821282A0917E05B0917F05ED0198
:104FC00030E020E01097A1F420813181820F931FFF
:104FD00020917C0530917D052817390709F061C0C3
:104FE000F0937D05E0937C05DF91CF910895EA0170
:104FF000CE17DF07E8F54A815B819E014115510517
:10500000B1F7E901FB83EA8349915991C40FD51F98
:10501000EC17FD0761F4808191810296840F951F42
:10502000E90199838883828193819B838A83F0E05D
:10503000E0E012968D919C9113970097B9F52D9110
:105040003C911197CD010296820F931F20917C0510
:1050500030917D052817390739F6309751F51092B0
:105060007F0510927E05B0937D05A0937C05BCCF93
:10507000D383C28340815181840F951FC817D907FC
:1050800061F44E5F5F4F88819981480F591F5183AA
:1050900040838A819B81938382832115310509F0A6
:1050A000B0CFF0937F05E0937E059ECFFD01DC013C
:1050B000C0CF13821282D7CFB0E0A0E0E2E6F8E2E0
:1050C0000C94ED268C01009751F4CB010E943727F8
:1050D0008C01C801CDB7DEB7E0E10C940927FC01D3
:1050E000E60FF71F9C0122503109E217F30708F47D
:1050F0009DC0D901CD91DC911197C617D70798F0C3
:10510000C530D10530F3CE0104978617970708F311
:10511000C61BD70B2297C193D1936D937C93CF017C
:105120000E94D327D6CF5B01AC1ABD0A4C018C0E6E
:105130009D1EA0917E05B0917F05512C412CF12C34
:10514000E12C109731F580917C0590917D058815B3
:10515000990509F05CC04616570608F058C08091C2
:10516000000190910101009741F48DB79EB74091E5
:10517000040150910501841B950BE817F90708F00D
:1051800055C0F0937D05E0937C05F9017183608340
:10519000A0CF8D919C91119712966C9012971396B7
:1051A0007C901397A815B90559F56C0142E0C40E1F
:1051B000D11CCA14DB0420F1AC014A195B09DA01E5
:1051C0001296159780F06282738251834083D901D1
:1051D0006D937C93E114F10471F0D7011396FC9365
:1051E000EE93129776CF22968C0F9D1FF901918333
:1051F0008083F301EFCFF0937F05E0937E0569CFC5
:105200004816590608F42C017D01D3019ACFCB0131
:105210000E9437277C01009749F0AE01B8010E9437
:105220006329C8010E94D327870153CF10E000E013
:1052300050CFFC0188279927E89421912032E9F387
:10524000293010F02E30C8F32B3241F02D3239F4D2
:10525000689404C00E949629820F911D21912053C9
:105260002A30C0F31EF4909581959F4F0895FB015D
:10527000DC018D91059080190110D9F3990B0895E7
:10528000FC0105900020E9F7809590958E0F9F1FF7
:105290000895FB0155915523A9F0BF01DC014D9103
:1052A00045174111E1F759F4CD010590002049F06F
:1052B0004D9140154111C9F3FB014111EFCF81E040
:1052C00090E001970895FB01DC0102C001900D926E
:1052D00041505040D8F70895FC018191861721F084
:1052E0008823D9F7992708953197CF010895FB01B5
:1052F000DC018D91019080190110D9F3990B08956B
:10530000FB01DC0101900D920020E1F70895FB0103
:10531000DC014150504048F001900D920020C9F747
:1053200001C01D9241505040E0F708957AE0979FE8
:10533000902D879F802D910D11240895AEE0B0E04F
:10534000E4EAF9E20C94F9260D891E8986E08C8343
:105350001A8309838FEF9FE79E838D83AE01475E9B
:105360005F4F6F89788DCE0101960E94C1292F81F0
:105370003885020F131FF80110822E96E4E00C947A
:105380001527ABE0B0E0E7ECF9E20C94EB267C01EA
:105390003B018A01FC0117821682838181FFC8C10B
:1053A000CE0101965C01F7019381F30193FD859194
:1053B00093FF81913F01882309F453C1853239F469
:1053C00093FD859193FF81913F01853229F4B701C7
:1053D00090E00E94B12BE7CF912C212C312CFFE1E2
:1053E000F31538F08B3211F190F4803209F18332E9
:1053F00029F137FC3CC020ED280F2A3050F536FE4D
:1054000020C08AE0989E200D1124922E06C08D3275
:1054100091F0803371F7689430F8F30193FD859132
:1054200093FF81913F018111DACF21C0689431F857
:10543000689432F8F2CF689433F8EFCF689434F878
:10544000ECCFEAE02E9E200D1124222E689435F830
:10545000E4CF8E3229F436FC04C1689436F8DDCFEF
:105460008C3619F4689437F8D8CF8836B1F2982F73
:105470009F7D95549330E0F08336A1F18337C1F1DD
:10548000833509F063C02801F2E04F0E511CF8018A
:10549000C080D180692D70E036FC02C06FEF7FEFD5
:1054A000C6010E949B2B4C01689437F882010AC008
:1054B0000C5F1F4FFFE3F98388248394912C6501CF
:1054C000E89437F833FE2DC0522C8114910471F505
:1054D000552009F468CFB70180E290E00E94B12B1B
:1054E0005A94F6CFF801808189830E5F1F4FE4CF75
:1054F0002801F2E04F0E511CF801C080D180692DC7
:1055000070E036FC02C06FEF7FEFC6010E94A62B51
:105510004C018201D5CFB70180E290E00E94B12B0F
:105520002A942814190409F0B0F7CECFF60137FCFD
:10553000859137FE81916F01B70190E00E94B12BF8
:1055400051105A94F1E08F1A9108BFCF843619F0A8
:10555000893609F077C0F80137FE6BC06081718130
:10556000828193810C5F1F4FF32DFF763F2E97FFB3
:1055700009C090958095709561957F4F8F4F9F4F93
:10558000689437F82AE030E0A5010E94E12BC82E8C
:10559000CA188C2C432C36FE0CC0E89440F8C91471
:1055A00040F434FE05C032FC03C0F32DFE7E4F2EC6
:1055B000892C44FE95C0FE01EC0DF11D80818033E5
:1055C00009F087C0242D297E422E842D8870582E04
:1055D00043FC95C040FE8FC09C2C821418F42C0C08
:1055E000922C981844FE91C0B70180E390E00E948D
:1055F000B12B42FE09C088E790E041FE02C088E579
:1056000090E0B7010E94B12BC91408F48AC0CA9473
:10561000D12C9FEFC91AD90ACA0CDB1CF601829162
:105620006F01B70190E00E94B12BAC14BD04B1F73B
:105630004FCF60817181072E000C880B990B0E5F94
:105640001F4F92CFD32CE894D4F82AE030E085376E
:1056500039F1232D297FD22E8F3601F148F4883578
:10566000A9F0F701868197812B96E2E10C94072738
:10567000803749F08837A9F7D4FE02C06894D2F881
:1056800020E130E00DC06894D4F8F6CF34FE03C0BA
:10569000822F8660D82E20E132E002C028E030E080
:1056A000F801D7FE0FC060817181828193810C5F08
:1056B0001F4FA5010E94E12BC82ECA183D2CE8946B
:1056C00037F867CF6081718190E080E00E5F1F4FF7
:1056D000F0CF42FC02C0839478CF8394839475CF3B
:1056E000842D867809F471CFF6CFB70180E290E07F
:1056F0000E94B12B83948214C0F3512C73CF522C8F
:105700005818821408F46ECFF8CF842D867809F4E7
:105710007BCF8BE241FE80E247FC8DE2B70190E057
:1057200071CFB70180E390E00E94B12B9A946CCFC7
:105730008FEF9FEF99CFFC010590615070400110F1
:10574000D8F7809590958E0F9F1F0895FC016150AA
:10575000704001900110D8F7809590958E0F9F1F93
:1057600008950F931F93CF93DF93182F092FEB0109
:105770008B8181FD09C01FEF0FEF812F902FDF91EB
:10578000CF911F910F91089582FF14C02E813F8108
:105790008C819D81281739073CF4E881F981CF017C
:1057A00001969983888310838E819F8101969F83C0
:1057B0008E83E3CFE885F985812F0995892BA1F3A5
:1057C000DACFFA01AA27283051F1203181F1E8948B
:1057D0006F936E7F6E5F7F4F8F4F9F4FAF4FB1E0E4
:1057E0003ED0B4E03CD0670F781F891F9A1FA11DDF
:1057F000680F791F8A1F911DA11D6A0F711D811DE0
:10580000911DA11D20D009F468943F912AE0269FA4
:1058100011243019305D3193DEF6CF010895462F03
:105820004770405D4193B3E00FD0C9F7F6CF462FE4
:105830004F70405D4A3318F0495D31FD405241934D
:1058400002D0A9F7EACFB4E0A6959795879577950A
:105850006795BA95C9F700976105710508959B0191
:10586000AC010A2E06945795479537952795BA951A
:10587000C9F7620F731F841F951FA01D0895F99922
:10588000FECF92BD81BDF89A992780B50895262F45
:10589000F999FECF1FBA92BD81BD20BD0FB6F89415
:1058A000FA9AF99A0FBE0196089511E0CBEDD1E076
:1058B00004C0FE010E9422272196CC3DD107C9F7E2
:0458C000F894FFCF8A
:1058C4000000800580000A020000C6420000C642B3
:1058D400FFFF01FC080C000B000B0B0B0B0B0B0B5D
:1058E40001000000000000000000000000000000B3
:1058F400000000000A0002BE1E00000141542B43B8
:1059040049504D55583D3000313030310076657482
:10591400657263656B2E636F6D0000000000A30F5A
:10592400C6200602C70F970FAF0FBB0F5E00BC0067
:10593400770141544900434F4E4E454354204F4B49
:105944000055445020434C4F53454400504450208C
:1059540044454143543A0041542B4345445258531F
:105964003D25692C25692C222573220041542B5393
:105974004C4544533D25692C25692C256900222C6E
:10598400220000000000A30FC6200602C70F970FD5
:10599400AF0FBB0F00000000751AA41A0602741A98
:1059A4004B1A521A651A00000000111DC620060287
:0C59B400B21D621C391C4F1C0D0A0000C3
:00000001FF
