:100000000C9461000C947E000C947E000C947E0095
:100010000C947E000C947E000C947E000C947E0068
:100020000C947E000C947E000C947E000C947E0058
:100030000C947E000C947E000C947E000C947E0048
:100040000C94D5000C947E000C947E000C947E00E1
:100050000C947E000C947E000C947E000C947E0028
:100060000C947E000C947E00000000090003020046
:10007000000405080000000000000000000000016E
:10008000020408102040800102040810200102042C
:100090000810204080400404040404040404020204
:1000A000020202020303030303030202030000002F
:1000B00000250028002B0000000000240027002A53
:1000C000000011241FBECFEFD8E0DEBFCDBF11E08E
:1000D000A0E0B1E0E6E9F4E002C005900D92A030A6
:1000E000B107D9F721E0A0E0B1E001C01D92A9302D
:1000F000B207E1F70E9439020C9449020C94000007
:1001000061E08AE00E94CE0161E086E00E94CE01BB
:1001100060E08AE00E940A0261E08DE00E94CE0168
:1001200061E08DE00E940A0264EF71E080E090E0FF
:100130000E94440160E08DE00E940A0260E27EE4D9
:1001400080E090E00E94440161E08DE00E940A029C
:1001500064EF71E080E090E00E94440160E08DE097
:100160000E940A0264EF71E080E090E00E94440186
:1001700061E08AE00E940A0260E177E280E090E0BC
:100180000E94440161E08DE00E940A0264EF71E088
:1001900080E090E00E94440160E08DE00E940A024D
:1001A00060E08AE00C940A0208951F920F920FB645
:1001B0000F9211242F933F938F939F93AF93BF93ED
:1001C0008091050190910601A0910701B09108016D
:1001D0003091040126E0230F2D3768F129E8230F21
:1001E0000396A11DB11D20930401809305019093F6
:1001F0000601A0930701B09308018091000190913E
:100200000101A0910201B09103010196A11DB11D50
:100210008093000190930101A0930201B093030128
:10022000BF91AF919F918F913F912F910F900FBEF2
:100230000F901F9018950296A11DB11DD4CF3FB706
:10024000F8948091000190910101A0910201B09178
:10025000030126B5A89B05C02F3F19F00196A11DEB
:10026000B11D3FBFBA2FA92F982F8827BC01CD0100
:10027000620F711D811D911D43E0660F771F881F5E
:10028000991F4A95D1F708958F929F92AF92BF928E
:10029000CF92DF92EF92FF926B017C010E941F01CF
:1002A0004B015C01C114D104E104F104E9F00E94A6
:1002B00048020E941F01681979098A099B09683E52
:1002C00073408105910570F321E0C21AD108E1085D
:1002D000F10888EE880E83E0981EA11CB11CC114A1
:1002E000D104E104F10429F7FF90EF90DF90CF9063
:1002F000BF90AF909F908F900895789484B583605D
:1003000084BD85B5836085BDEEE6F0E080818160C7
:100310008083E1E8F0E082E08083808181608083F7
:10032000E0E8F0E0808181608083E1EBF0E08081B3
:1003300084608083E0EBF0E080818160808386E8E8
:1003400080937A001092C1000895843081F028F4DF
:100350008230E9F08330F9F00895883071F0893007
:1003600091F08530B9F4809180008F7D03C0809139
:1003700080008F778093800008958091B0008F7700
:100380008093B00008958091B0008F7DF9CF84B53F
:100390008F7784BD089584B58F7DFBCFCF93DF9396
:1003A00090E0FC01E158FF4F24918A569F4FFC01D9
:1003B00084918823C9F090E0880F991FFC01E954CB
:1003C000FF4FA591B491FC01E355FF4FC591D49126
:1003D00061110DC09FB7F8948C91209582238C9366
:1003E0008881282328839FBFDF91CF9108956230B1
:1003F00051F49FB7F8943C91822F809583238C937E
:10040000E8812E2BEFCF8FB7F894EC912E2B2C9305
:100410008FBFEACF1F93CF93DF93282F30E0F901EE
:10042000E859FF4F8491F901E158FF4FD491F90148
:10043000EA56FF4FC491CC23A9F0162F81110E94D8
:10044000A501EC2FF0E0EE0FFF1FE355FF4FA59144
:10045000B4918FB7F894EC91111108C0D095DE23B8
:10046000DC938FBFDF91CF911F910895DE2BF8CFE2
:1004700008950E947D010E9438020E948000C0E021
:10048000D0E00E94D4002097E1F30E940000F9CF51
:060490000895F894FFCF6F
:00000001FF
