:100000000C9480010C94A8010C94A8010C948E12FD
:100010000C948E120C948E120C94A8010C94A801CE
:100020000C94A8010C94A8010C94A8010C94A801AC
:100030000C94A8010C94A8010C94A8010C94A8019C
:100040000C941E140C94A8010C94BE150C94F0157D
:100050000C94A8010C94A8010C94A8010C94A8017C
:100060000C94A8010C94A8010C94A8010C94A8016C
:100070000C94A8010C94A8010C94A8010C94A8015C
:100080000C94A8010C94A8010C94A8010C94A8014C
:100090000C94A8010C94A8010C94A8010C94A8013C
:1000A0000C94A8010C94A8010C94A8010C94A8012C
:1000B0000C94A8014E4F54205245414459004E4FD4
:1000C0005420494E5345525445440053494D205005
:1000D000554B0053494D2050494E0052454144591B
:1000E000002B4350494E3A002B4350494E3F002BC2
:1000F000474D4D00005D20005B005D20005B005D12
:1001000020005B005D20005B005D20005B005D2047
:10011000005B005D20005B000D0A534D53205265CB
:100120006164790D0A004453543A20002B43545A19
:10013000563A002A50535554545A3A002A50534EB6
:100140005749443A002B434153544154453A002BFC
:10015000434144415441494E443A002B43415245A6
:1001600043563A002B434153544154453A002B43E4
:100170004153544154453F002B4341524543563A65
:10018000002B4341524543563F002B4341524543C8
:10019000563A002B4341524543563D003E002B4307
:1001A0004153454E443D000D0A2B43414F50454EAF
:1001B0003A00222C002C302C22544350222C2200B6
:1001C0002B43414F50454E3D0053534C2C002B4385
:1001D0004153534C4346473D002B43414349443D23
:1001E000002B4342415443484B3D31002B434C5478
:1001F000533D3100232323204D6F64656D3A002B5E
:10020000434D45453D3200453000232323205469AA
:100210006E7947534D20436F6D70696C6564204D56
:100220006F64756C653A202054696E7947736D432D
:100230006C69656E7453494D373038300023232381
:100240002054696E7947534D2056657273696F6EFD
:100250003A002B4341434C4F53453D000D0A2B437D
:100260004D53204552524F523A000D0A2B434D45F3
:10027000204552524F523A004552524F520D0A00F9
:100280004F4B0D0A000A0D0E090003020000040581
:100290000800000000000000000000000000000056
:1002A000010204081020408001020408102001020D
:1002B00004081020408040010204080404040404DF
:1002C0000404040202020202020303030303030202
:1002D0000203050505050000000023002600290093
:1002E0002C0000000000250028002B002E0000003C
:1002F0000000240027002A002D00FB1020168F117B
:1003000011241FBECFEFD8E0DEBFCDBF12E0A0E0CA
:10031000B1E0E2EEF1E402C005900D92A036B10723
:10032000D9F725E0A0E6B2E001C01D92A230B207E5
:10033000E1F711E0CFE7D1E004C02197FE010E9470
:10034000D41DCD37D107C9F70E948E1C0C94E42030
:100350000C94000090E080E00895DC01ED91FC91A8
:10036000028CF38DE02D2BE430E009940F931F9362
:10037000CF938C01C62FDC011E968D919C91DC01E0
:10038000ED91FC910190F081E02D0995F8018485B3
:100390009585DC01ED91FC910190F081E02D6C2FB1
:1003A000CF911F910F9109940F931F93CF93DF93D8
:1003B0008C01DC011C968D919C91DC01ED91FC91EE
:1003C0000284F385E02D0995EC01019659F0F801BE
:1003D00086859785DC01ED91FC910190F081E02DFF
:1003E0006C2F0995CE01DF91CF911F910F91089548
:1003F000DC011C968D919C91DC01ED91FC910084B7
:10040000F185E02D0994DC011C968D919C91DC0115
:10041000ED91FC910484F585E02D0994DC011C9696
:100420008D919C91DC01ED91FC910680F781E02D8E
:100430000994CF93DF931F92CDB7DEB76983DC01B8
:10044000ED91FC910280F381E02D41E050E0BE018E
:100450006F5F7F4F09950F90DF91CF910895DC0179
:100460001C96ED91FC9180819181DC01ED91FC91D4
:100470000680F781E02D0994CF93DF931F92CDB7CB
:10048000DEB7DC01ED91FC910288F389E02D41E0BB
:1004900050E0BE016F5F7F4F0995019731F489816C
:1004A00090E00F90DF91CF9108958FEF9FEFF9CFFC
:1004B000FC01E756FF4F20813181820F931FFC0121
:1004C000878990E00895CF93DF93EC01E881F9816B
:1004D0000084F185E02D0995892B21F48D89DF9128
:1004E000CF91089581E0FBCFDC01ED91FC9106886E
:1004F000F789E02D099591E0811101C090E0892FE5
:100500000895CF93DF93EC016DEF70E085E793E002
:100510000E94D7160E946814AB01BC012AE030E0AB
:1005200085E793E00E9404186AEF70E085E793E0A6
:100530000E94D716BE0185E793E0DF91CF910C941E
:100540004017CF93C62FBC0185E793E00E9409179F
:1005500060E285E793E00E9411176C2FCC0F770BB8
:100560004AE050E085E793E0CF910C94F2171F9397
:10057000CF93DF93EC01162F62E071E085E793E003
:100580000E94D7160E946814AB01BC012AE030E03B
:1005900085E793E00E9404186FEF70E085E793E031
:1005A0000E94D716612FCE01DF91CF911F910C943D
:1005B000A1028F929F92AF92BF92CF92DF92EF9261
:1005C000FF920F931F93CF93DF93CDB7DEB72C9796
:1005D0000FB6F894DEBF0FBECDBF7C01FB015A0100
:1005E000828133812481958189873A872B879C87F3
:1005F000D701ED91FC91C28CD38C182F832E922EB3
:10060000092F61E072E0CE0101960E94BC1960E101
:1006100070E0CE0101960E947E19612FCE010196F5
:100620000E949C1A6CE071E0CE0101960E947A1A39
:10063000682DCE0101960E949C1A6CE071E0CE01FB
:1006400001960E947A1A692DCE0101960E949C1A89
:100650006CE071E0CE0101960E947A1A602FCE0103
:1006600001960E949C1A69817A812BE430E0A501F1
:10067000C701F60109957C01CE0101960E944D1932
:10068000C7012C960FB6F894DEBF0FBECDBFDF9129
:10069000CF911F910F91FF90EF90DF90CF90BF907F
:1006A000AF909F908F90089540E855E260E070E031
:1006B00085E793E00E948C136AE070E080E090E0B0
:1006C0000E94991461E08AE00E94541560E08AE07B
:1006D0000E94901568EB7BE080E090E00E94991406
:1006E00061E08AE00E94901566E071E085E793E0A2
:1006F0000C9440170895CF92DF92FF920F931F93AF
:10070000CF93DF93EC016B01F42E0A811B816EE025
:1007100071E0888199810E940917B60188819981C9
:100720000E94D7164AE050E06F2D888199810E947F
:100730001118B801888199810E94091788819981CF
:10074000DC01ED91FC910680F781E02D099560E0D8
:1007500070E0CB01DF91CF911F910F91FF90DF905F
:10076000CF900C9499148F929F92AF92BF92CF9298
:10077000DF92EF92FF920F931F93CF93DF938C0141
:10078000C62F49015A010E9468146B017C010C2E8E
:10079000000CDD0B0E9468146C197D098E099F09FD
:1007A000681579058A059B05C0F50E9468146C19C7
:1007B0007D098E099F09681579058A059B0590F4C6
:1007C000D8018D919C91DC01ED91FC910084F18523
:1007D000E02D0995892B31F460E070E0CB010E9497
:1007E0009914E3CFF80180819181DC01ED91FC91B6
:1007F0000284F385E02D09958C179D0759F681E059
:10080000DF91CF911F910F91FF90EF90DF90CF90EC
:10081000BF90AF909F908F90089580E0F1CFCF93DD
:10082000DF9300D000D000D01F92CDB7DEB727E015
:1008300030E0AE014F5F5F4FFC01808191810E94EB
:1008400015199C012150310926303105A0F421E011
:1008500030E02C0F3D1F820F931FFC011082C90155
:100860000E94F11F27960FB6F894DEBF0FBECDBFD2
:10087000DF91CF91089581EF98EDF4CFAF92BF92C1
:10088000CF92DF92EF92FF920F931F93CF93DF935C
:10089000EC015B01C42ED22EEA80FB806EE071E099
:1008A000888199810E940917B501888199810E94E8
:1008B000D7164AE050E06C2D888199810E9411186A
:1008C0006D2D888199810E9411174AE050E0B8018E
:1008D000888199810E941818B701888199810E94A6
:1008E000091788819981DC01ED91FC910680F781DF
:1008F000E02D099560E070E0CB01DF91CF911F9171
:100900000F91FF90EF90DF90CF90BF90AF900C943D
:100910009914EF92FF920F931F93CF93DF93EC0103
:100920007A018901888199810E940917B70188811C
:1009300099810E94D716B80188819981DF91CF9162
:100940001F910F91FF90EF900C940917CF93DF93B5
:10095000EC01AB012A813B816EE071E00E948904C9
:1009600088819981DC01ED91FC910680F781E02D71
:10097000099560E070E0CB01DF91CF910C94991460
:100980004F925F926F927F92AF92BF92CF92DF921F
:10099000EF92FF920F931F93CF93DF9300D000D07D
:1009A00000D0CDB7DEB79E838D8349835A836B8396
:1009B0007C830E9468142B013C010E946814641916
:1009C00075098609970929813A814B815C816217F3
:1009D00073078407950708F060C068EE70E08D81AA
:1009E0009E810E94A604B12CA12C5CE5C52E52E08C
:1009F000D52E6AE6E62E62E0F62E08E712E021EE3A
:100A000030E048EE53E060E070E08D819E810E940E
:100A10008509813039F068EE73E080E090E00E9453
:100A20009914CBCF84EBA82E80E0B82E9EEBC92E74
:100A300090E0D92E2BECE22E20E0F22E03ED10E018
:100A40002BED30E048EE53E060E070E08D819E8158
:100A50000E948509782EB12CA12C3CE5C32E32E0F2
:100A6000D32E4AE6E42E42E0F42E08E712E020E816
:100A700032E048EE53E060E070E08D819E810E949C
:100A8000850931E081E090E0731649F073162CF08F
:100A900043E082E090E0471514F490E080E0269671
:100AA0000FB6F894DEBF0FBECDBFDF91CF911F917F
:100AB0000F91FF90EF90DF90CF90BF90AF907F901D
:100AC0006F905F904F9008952F923F924F925F9258
:100AD0006F927F928F929F92AF92BF92CF92DF924E
:100AE000EF92FF920F931F93CF93DF93CDB7DEB7B3
:100AF000A8970FB6F894DEBF0FBECDBF1C014DA363
:100B00005EA36FA378A739011E8B0D8BF88EEF8A39
:100B1000DC8ACB8ABA8EA98E9C8E8B8E60E470E0C4
:100B2000C9010E947E190E9468146D8F7E8F8F8F7D
:100B300098A360E070E0CB010E949914D1018D91DF
:100B40009C91DC01ED91FC910084F185E02D0995EB
:100B5000181619060CF0A9C260E070E0CB010E94E3
:100B60009914F10180819181DC01ED91FC91028465
:100B7000F385E02D099518160CF7682FC3010E9424
:100B8000891AED89FE89309791F0BF01CE01019657
:100B90000E94451ABE016F5F7F4FC3010E94C71AB2
:100BA000182FCE0101960E944D19111102C32F89F1
:100BB000388D2115310591F0B901CE0101960E94C1
:100BC000451ABE016F5F7F4FC3010E94C71A182FDD
:100BD000CE0101960E944D191111EDC24B895C891D
:100BE0004115510509F1BA01CE0101960E94451A3D
:100BF000BE016F5F7F4FC3010E94C71A182FCE013D
:100C000001960E944D19112379F08B899C898A568F
:100C1000924041F428EE33E040E050E06AE0C10148
:100C20000E94B30383E0ACC2E98DFA8D309791F056
:100C3000BF01CE0101960E94451ABE016F5F7F4F32
:100C4000C3010E94C71A182FCE0101960E944D19A8
:100C50001111B3C22B8D3C8D2115310591F0B901D5
:100C6000CE0101960E94451ABE016F5F7F4FC301FE
:100C70000E94C71A182FCE0101960E944D1911111A
:100C80009EC26BE571E0CE0101960E94451ABE013D
:100C90006F5F7F4FC3010E94C71A182FCE010196C4
:100CA0000E944D19112309F45AC06CE2C1010E943F
:100CB0000F04182F6AE0C1010E940F042C011C30A0
:100CC000B0F4E12F012E000CFF0B3296EE0FFF1F48
:100CD000E20DF31D0190F081E02D309741F031E0FD
:100CE000368B813044E0940710F4908B878761E065
:100CF00072E0C3010E941C1A67E071E085E793E08F
:100D00000E94D7160E946814AB01BC012AE030E0B3
:100D100085E793E00E94041864E071E085E793E0C2
:100D20000E94D71661E171E085E793E00E94091700
:100D300060E285E793E00E9411174AE050E0B201BB
:100D400085E793E00E94EB1760E285E793E00E945D
:100D50001117612F8FE191E00E94A102EFCE6FE4A5
:100D600071E0CE0101960E94451ABE016F5F7F4F70
:100D7000C3010E94C71A182FCE0101960E944D1977
:100D8000112309F16AE0C1010E940F04182F8C3071
:100D900078F4E82F880FFF0B3296EE0FFF1FE20D5D
:100DA000F31D0190F081E02D309711F051E0568B4A
:100DB00061E072E0C3010E941C1A612F81E191E0A1
:100DC0000E94B702BBCE65E471E0CE0101960E949D
:100DD000451ABE016F5F7F4FC3010E94C71A182FCB
:100DE000CE0101960E944D19112339F16CE2C10127
:100DF0000E940F04182F6AE0C1010E940F041C30EA
:100E0000B0F4E12F012E000CFF0B3296EE0FFF1F06
:100E1000E20DF31D0190F081E02D309741F081301B
:100E200031F0158A612F82E291E00E94B70261E001
:100E300072E0C3010E941C1A81CE6CE371E0CE0106
:100E400001960E94451ABE016F5F7F4FC3010E9449
:100E5000C71A182FCE0101960E944D19112391F047
:100E600028EE33E040E050E06AE0C1010E94B303A5
:100E700061E072E0C3010E941C1A8FE291E00E94BF
:100E800081025CCE63E371E0CE0101960E94451AB7
:100E9000BE016F5F7F4FC3010E94C71A182FCE019A
:100EA00001960E944D19112381F028EE33E040E0B5
:100EB00050E06AE0C1010E94B30361E072E0C30147
:100EC0000E941C1A89E491E0DACF6CE271E0CE0155
:100ED00001960E94451ABE016F5F7F4FC3010E94B9
:100EE000C71A182FCE0101960E944D19112381F0C7
:100EF00028EE33E040E050E06AE0C1010E94B30315
:100F000061E072E0C3010E941C1A81E791E0B7CF53
:100F100066E271E0CE0101960E94451ABE016F5F44
:100F20007F4FC3010E94C71A182FCE0101960E945D
:100F30004D19112381F028EE33E040E050E06AE0E3
:100F4000C1010E94B30361E072E0C3010E941C1A58
:100F500080E991E094CF68E171E0CE0101960E94B2
:100F6000451ABE016F5F7F4FC3010E94C71A182F39
:100F7000CE0101960E944D19112309F4DFCD61E0E5
:100F800072E0C3010E941C1A89EB91E00E94810269
:100F900066E171E085E793E00E94D7160E9468142D
:100FA000AB01BC012AE030E085E793E00E94041821
:100FB00063E171E085E793E00E94D7166DE372E08C
:100FC00085E793E00E94D71660E285E793E00E94F0
:100FD000111766ED71E085E793E00E94401761E12B
:100FE00071E085E793E00E94D7160E946814AB0178
:100FF000BC012AE030E085E793E00E9404186EE02F
:1010000071E085E793E00E94D7166AE072E085E719
:1010100093E00E941C170E94681469A37AA38BA313
:101020009CA30E94681429A13AA14BA15CA1621B58
:10103000730B840B950B603177428105910508F0A5
:10104000F6CE64EF70E0C1010E94A60461E072E098
:10105000CE0101960E94BC19912C812C9CE5A92EF1
:1010600092E0B92E2AE6C22E22E0D22E38E7E32EF5
:1010700032E0F32E00E812E09E012F5F3F4F48EC74
:1010800050E060E070E0C1010E946405182FCE01BD
:1010900001960E944D19113009F493C064E670E086
:1010A00080E090E00E949914BCCF0E9468142D8DBE
:1010B0003E8D4F8D58A1621B730B840B950B2DA198
:1010C0003EA14FA158A5621773078407950708F43E
:1010D00030CDC3010E94301CD30114968D919C9198
:1010E000892B09F447C0B301CE010D960E94131A53
:1010F00068EF70E085E793E00E94D7160E946814BD
:10110000AB01BC012AE030E085E793E00E940418BF
:1011100065EF70E085E793E00E94D716BE01635F3C
:101120007F4FCE0107960E94131A6DED71E085E79F
:1011300093E00E94091760E285E793E00E9411178F
:10114000BE01695F7F4FCE0101960E94131ABE0156
:101150006F5F7F4F85E793E00E942E17CE010196C7
:101160000E944D19CE0107960E944D19CE010D9691
:101170000E944D1961E072E0C3010E941C1A80E0D8
:10118000A8960FB6F894DEBF0FBECDBFDF91CF910A
:101190001F910F91FF90EF90DF90CF90BF90AF9095
:1011A0009F908F907F906F905F904F903F902F9087
:1011B000089581E0E5CF82E0E3CF84E0E1CF85E0F0
:1011C000DFCF67E072E0C1010E94A604F12CE12CA0
:1011D0000CE512E02AE632E048E752E060E872E00F
:1011E000C1010E94D709813009F021CE6FEF71E073
:1011F000C1010E94A604F12CE12C0CE512E02AE6C4
:1012000032E048E752E060E872E0C1010E94D7098D
:10121000B101CE010D960E94440E6CE071E085E7AD
:1012200093E00E94D7160E946814AB01BC012AE02B
:1012300030E085E793E00E94041869E071E085E7FB
:1012400093E00E94D716BE01635F7F4FCE010796E1
:101250000E94131A64EF71E085E793E00E94D716AD
:1012600060E285E793E00E941117BE01695F7F4F3E
:10127000CE0101960E94131ABE016F5F7F4F85E772
:1012800093E00E942E17CE0101960E944D19CE01C7
:1012900007960E944D19CE010D960E944D196CEED5
:1012A00071E0C1010E94A604B12CA12C68018AE65C
:1012B000E82E82E0F82E08E712E020E832E040E174
:1012C00057E260E070E0C1010E948509813009F0B9
:1012D000AECD61EE71E0C1010E94A604F12CE12CBB
:1012E00086012AE632E048E752E060E872E0C10198
:1012F0000E94D709813009F09ACD40E157E260E0C1
:1013000070E0C1010E94C00492CD2F923F924F9293
:101310005F926F927F928F929F92AF92BF92CF9285
:10132000DF92EF92FF920F931F93CF93DF93CDB78E
:10133000DEB728970FB6F894DEBF0FBECDBF3C01D5
:101340001A012B0138872F8361E072E0CE010196EC
:101350000E94BC1945015601670178010F8118856B
:101360009E012F5F3F4FB201A101C3010E9464059E
:10137000182FCE0101960E944D19812F28960FB685
:10138000F894DEBF0FBECDBFDF91CF911F910F91BB
:10139000FF90EF90DF90CF90BF90AF909F908F9095
:1013A0007F906F905F904F903F902F900895AF92F5
:1013B000BF92CF92DF92EF92FF920F931F9357014C
:1013C000680179018A019B0148EE53E060E070E01A
:1013D0000E9485091F910F91FF90EF90DF90CF90B1
:1013E000BF90AF9008957F928F929F92AF92BF92DD
:1013F000CF92DF92EF92FF920F931F93CF93DF93E1
:101400004C01762E6EE671E00E94A604D0E0C0E0AA
:10141000B12CA12C5CE5C52E52E0D52E68E7E62E56
:1014200062E0F62E00E812E024E631E048EB5BE0F3
:1014300060E070E0C4010E948509082E000C990B41
:101440008130910509F044C06CE2C4010E940F0490
:101450008C016AE0C4010E940F049C01F8013296DD
:10146000EE0FFF1FE80DF91D0190F081E02D309780
:1014700031F091E02130310509F090E0958BC017F3
:10148000D10784F4FE013296EE0FFF1FE80DF91D1F
:10149000A191B191109711F055961C9221960C17BD
:1014A0001D07B1F7CB30D10569F4F12CE12C0CE527
:1014B00012E02AE632E048E752E060E872E0C40158
:1014C0000E94D7092196CC30D1050CF4A1CF12C0CF
:1014D000029781F4FE013296EE0FFF1FE80DF91D11
:1014E000A191B191109711F055961C922196CC3094
:1014F000D105B1F7672D70E06E5F7F4F660F771FE4
:10150000860E971ED401ED91FC918589DF91CF91D4
:101510001F910F91FF90EF90DF90CF90BF90AF9011
:101520009F908F907F9008955F926F927F928F929D
:101530009F92AF92BF92CF92DF92EF92FF920F9362
:101540001F93CF93DF93662E712C660C771C680E69
:10155000791ED30114962D913C91232B91F490E0A8
:1015600080E0DF91CF911F910F91FF90EF90DF907E
:10157000CF90BF90AF909F908F907F906F905F9033
:101580000895562E4C0161E871E00E94A604D0E057
:10159000C0E0B12CA12C3CE5C32E32E0D32E48E7AD
:1015A000E42E42E0F42E00E812E028E731E048EBB8
:1015B0005BE060E070E0C4010E948509082E000C29
:1015C000990B8130910509F041C06CE2C4010E9481
:1015D0000F048C016AE0C4010E940F04F8013296E6
:1015E000EE0FFF1FE80DF91D0190F081E02D3097FF
:1015F00011F0908B8787C017D10794F4FE013296C3
:10160000EE0FFF1FE80DF91DA191B191109721F088
:1016100050961C921E921F9721960C171D07A1F73A
:10162000CB30D10569F4F12CE12C0CE512E02AE66F
:1016300032E048E752E060E872E0C4010E94D70956
:101640002196CC30D1050CF4A4CF14C0029791F4AC
:10165000FE013296EE0FFF1FE80DF91DA191B19129
:10166000109721F050961C921E921F972196CC3015
:10167000D105A1F7652DC4010E94F309D301149689
:10168000ED91FC91309709F46ACF8785908969CFF5
:101690003F924F925F926F927F928F929F92AF9202
:1016A000BF92CF92DF92EF92FF920F931F93CF934F
:1016B000DF93C42ED12CCC0CDD1CC80ED91ED60154
:1016C00014962D913C91232BA1F490E080E0DF91C2
:1016D000CF911F910F91FF90EF90DF90CF90BF902F
:1016E000AF909F908F907F906F905F904F903F90C2
:1016F0000895342E8B01EC012CE263E971E00E9425
:101700003E04F12CE12C0CE512E02AE632E048E739
:1017100052E06AE871E0CE010E94D7098130A9F653
:1017200041E070E060E0888199810E94B4184B012B
:101730007B0128EE33E040E050E06CE2CE010E94F5
:10174000B30318141904C4F0F12CE12C2AE632E09A
:1017500048E752E060E872E0CE010E94D709F60146
:1017600004811581632DCE010E94940AD801509600
:101770009C938E931F97A9CF10E000E00E946814FD
:101780002B013C0188819981DC01ED91FC91008461
:10179000F185E02D0995892BC9F40E94681464191C
:1017A000750986099709D6011496ED91FC9124815B
:1017B000358146815781621773078407950730F496
:1017C00060E070E0CB010E949914DCCF88819981A0
:1017D000DC01ED91FC910284F385E02D0995F60181
:1017E00064817581DB01A956BF4F4D915C911197C2
:1017F0009A012F5F3F4F2F773327FB01E756FF4FAB
:101800000190F081E02D2E173F0731F0460F571F52
:10181000FA01878B2D933C930F5F1F4F0E151F0509
:101820000CF4ACCFF12CE12C0CE512E02AE632E00E
:1018300048E752E060E872E0CE010E94D709D60185
:1018400014960D911C91632DCE010E94940AF8010B
:10185000908B8787C4013BCFAF92BF92CF92DF922C
:10186000EF92FF920F931F93CF93DF93EC01FC0154
:1018700034969C01245E3F4F80E0A191B191109776
:1018800041F056969C915697992319F056961C92C2
:10189000892FE217F30789F7882321F060E0CE0152
:1018A0000E94940A88819981DC01ED91FC91008469
:1018B000F185E02D0995892BB1F0B12CA12C8CE597
:1018C000C82E82E0D82E9AE6E92E92E0F92E10E09A
:1018D00000E030E020E04FE050E060E070E0CE015A
:1018E0000E948509DFCFDF91CF911F910F91FF906B
:1018F000EF90DF90CF90BF90AF900895AF92BF92DE
:10190000CF92DF92EF92FF920F931F93CF93DF93CB
:101910007C015B01D42FC52F60E070E0CB010E94F9
:101920009914D7011C968D919C910E942C0CF70163
:10193000C484D5840D2F1C2F2CE246856EE971E0FE
:10194000C6010E943E04F12CE12C0CE512E02AE6CF
:1019500032E048E752E06CE971E0C6010E94D70925
:10196000813069F080E090E0DF91CF911F910F917D
:10197000FF90EF90DF90CF90BF90AF900895D60189
:101980008D919C91DC01ED91FC910280F381E02D21
:101990004D2F5C2FB5010995F60180819181DC0105
:1019A000ED91FC910680F781E02D0995F12CE12C59
:1019B0000CE512E02AE632E048E752E060E872E027
:1019C000C6010E94D709813069F68D2F9C2FCCCF9C
:1019D0002F923F924F925F926F927F928F929F923F
:1019E000AF92BF92CF92DF92EF92FF920F931F932D
:1019F000CF93DF9300D000D01F92CDB7DEB74C015C
:101A00001B015B834A838901DC01ED91FC91048811
:101A1000F589E02D099560E070E0CB010E949914F2
:101A2000F401E756FF4F1182108232971182108223
:101A3000F4010484F585E02DFD83EC83D4011E962A
:101A4000BC91B98328EE33E0D8010E94DA1D2B0146
:101A50003C01498169ED71E0CF010E947B03B12C0B
:101A6000A12C2CE5C22E22E0D22E3AE6E32E32E063
:101A7000F32E08E712E020E832E0B301A2018C81E6
:101A80009D810E948509813011F080E0E2C0EC81E7
:101A9000FD81028113816EE071E0808191810E945D
:101AA00009176EEC71E0AC81BD818D919C910E9413
:101AB000D7164AE050E06981EC81FD8180819181F7
:101AC0000E9411186CE2AC81BD818D919C910E94A5
:101AD000111769EC71E0EC81FD81808191810E9498
:101AE000D7164AE050E070E060E0AC81BD818D9196
:101AF0009C910E94EB17B801EC81FD81808191815E
:101B00000E940917AC81BD818D919C91DC01ED9102
:101B1000FC910680F781E02D099560E070E0CB0133
:101B20000E949914F12CE12C0CE512E02AE632E037
:101B300048E752E060E872E08C819D810E94D709FD
:101B4000EC81FD81028113816EE071E080819181E1
:101B50000E94091760EC71E0AC81BD818D919C9170
:101B60000E94D7164AE050E06981EC81FD818081B6
:101B700091810E94111865EB71E0AC81BD818D915E
:101B80009C910E94D716B101EC81FD8180819181E9
:101B90000E94091762EB71E0AC81BD818D919C912F
:101BA0000E94D7164AE050E06A817B81EC81FD817A
:101BB000808191810E941818B801AC81BD818D91FE
:101BC0009C910E940917EC81FD8180819181DC014B
:101BD000ED91FC910680F781E02D099560E070E0C1
:101BE000CB010E949914B12CA12C8CE5C82E82E067
:101BF000D82E9AE6E92E92E0F92E08E712E027EABD
:101C000031E0B301A2018C819D810E948509813060
:101C100009F03BCF28EE33E040E050E06CE28C81ED
:101C20009D810E94B3036AE08C819D810E940F0414
:101C3000782EF12CE12C86012AE632E048E752E0CA
:101C400060E872E08C819D810E94D70981E071106B
:101C50001CCFF401858B90E00F900F900F900F90A8
:101C60000F90DF91CF911F910F91FF90EF90DF9038
:101C7000CF90BF90AF909F908F907F906F905F902C
:101C80004F903F902F9008954F925F926F927F9266
:101C90008F929F92AF92BF92CF92DF92EF92FF927C
:101CA0000F931F93CF93DF93CDB7DEB762970FB635
:101CB000F894DEBF0FBECDBF3C012B016CEE71E08E
:101CC0000E94BC196FEE70E0C2010E94A60461E0A0
:101CD00072E0CE010D960E94BC19912C812C8CE5EE
:101CE000A82E82E0B82E9AE6C92E92E0D92E28E7D7
:101CF000E22E22E0F22E00E812E09E01235F3F4F29
:101D000048E853E160E070E0C2010E946405813060
:101D100009F046C061E072E0CE0101960E94BC1954
:101D20006BEF71E0CE0107960E94BC19AE014F5FC8
:101D30005F4FBE01695F7F4FCE010D960E94351B3C
:101D4000CE0107960E944D19CE0101960E944D19B1
:101D50006DE271E0CE0101960E94BC1962E072E072
:101D6000CE0107960E94BC19AE014F5F5F4FBE01C6
:101D7000695F7F4FCE010D960E94351BCE010796FD
:101D80000E944D19CE0101960E944D19CE010D966B
:101D90000E94301CBE01635F7F4FC3010E94FC198B
:101DA000CE010D960E944D19C30162960FB6F894AC
:101DB000DEBF0FBECDBFDF91CF911F910F91FF907E
:101DC000EF90DF90CF90BF90AF909F908F907F90DB
:101DD0006F905F904F9008956F927F928F929F9235
:101DE000AF92BF92CF92DF92EF92FF920F931F9329
:101DF000CF93DF9300D000D000D0CDB7DEB73C0149
:101E0000D3018D919C91DC01ED91FC910084F185D1
:101E1000E02D0995892B19F161E072E0CE01019660
:101E20000E94BC19912C812C8CE5A82E82E0B82E42
:101E30009AE6C92E92E0D92EF12CE12C10E000E0B8
:101E40009E012F5F3F4F42E350E060E070E0C3012E
:101E50000E946405CE0101960E944D19D1CF2696AD
:101E60000FB6F894DEBF0FBECDBFDF91CF911F91AB
:101E70000F91FF90EF90DF90CF90BF90AF909F9029
:101E80008F907F906F9008958F929F92AF92BF92A4
:101E9000CF92DF92EF92FF920F931F93CF93DF9336
:101EA000EC0160E070E0CB010E9499140E9468147C
:101EB0004B015C018E0107561F4FCE0189569F4F83
:101EC0007C018F859889892BE1F00E94681468193C
:101ED00079098A099B0968397A438105910588F453
:101EE000F80111821082F701118210828C859D8584
:101EF0004E856F8578896F377105C0F50E94480B54
:101F0000E0CFF80111821082F701118210828C85D6
:101F10009D850E94EC0E4E8562E572E08C859D8564
:101F20000E947B031D8AB12CA12C8CE5C82E82E077
:101F3000D82E9AE6E92E92E0F92E08E712E020E882
:101F400032E048EB5BE060E070E08C859D850E94AC
:101F50008509DF91CF911F910F91FF90EF90DF9056
:101F6000CF90BF90AF909F908F9008956FE770E0F3
:101F7000C5CFDC01A058BF4FFC01EE57FF4F8D913C
:101F80009C9120813181821B930B97FF02C0805866
:101F90009F4F08952F923F924F925F926F927F9240
:101FA0008F929F92AF92BF92CF92DF92EF92FF9269
:101FB0000F931F93CF93DF93CDB7DEB728970FB65C
:101FC000F894DEBF0FBECDBF98878F835B015C8323
:101FD0004B8360E070E0CB010E949914AF81B8851B
:101FE0001C968D919C910E942C0CD12CC12C2F8081
:101FF0003884B7E12B0E311CEF81F885E756FF4F8F
:10200000FA83E9838F81988589569F4F9E838D83BC
:10201000AB81BC81CA16DB0608F092C0C1010E94E8
:10202000B90F7C018B819C818C199D09E816F906FA
:10203000B0F5E114F104A9F147012501C1010E94A5
:10204000B90F009739F1E981FA816080718000E869
:1020500010E006191709801691060CF48401801708
:1020600091070CF48C01B101660D771DA801C20126
:102070000E942820600E711EE89467F87724A981D9
:10208000BA816D927C92801A910A400E511E811481
:102090009104A1F6AE0CBF1CCE0CDF1CB9CF7C01A5
:1020A000CBCF0E946814EF81F885018912892389BA
:1020B0003489601B710B820B930B653F7140810566
:1020C000910578F0E1E0AF81B8855696EC930E94D7
:1020D0006814AF81B88551966D937D938D939C93D1
:1020E0005497EF81F885848595850E942C0CAF81EB
:1020F000B8851F962D913C9150972115310501F11E
:102100001C968D919C911D971E964C91E981FA81A8
:1021100060817181AD81BE81ED91FC916E1B7F0B61
:102120001616170614F060587F4F61507109261774
:10213000370708F4B9010E94480B892B09F068CFD2
:10214000C60128960FB6F894DEBF0FBECDBFDF9153
:10215000CF911F910F91FF90EF90DF90CF90BF90A4
:10216000AF909F908F907F906F905F904F903F9037
:102170002F900895CF92DF92EF92FF920F931F93CB
:10218000CF93DF93EC0160E070E0CB010E949914E3
:102190008E01095E1F4FC8010E94B90F892BD9F427
:1021A0000E946814C988DA88EB88FC886C197D095C
:1021B0008E099F09653F71408105910540F081E0DE
:1021C0008E8B0E946814698B7A8B8B8B9C8B8C8591
:1021D0009D850E942C0CC8010E94B90F2F8538895B
:1021E000820F931FDF91CF911F910F91FF90EF907E
:1021F000DF90CF9008950F93CF93DF9320E047E0D7
:1022000065E085E793E00E94611300E020E040E094
:1022100060E08FE693E00E948F16109262031092A6
:10222000610388EE93E0A0E0B0E0809363039093B5
:102230006403A0936503B093660388E292E09093F1
:10224000600380935F0381EE93E090936C0380932F
:102250006B0385E793E090936E0380936D038FE5A6
:1022600093E09093FC028093FB028FEF91E09093B8
:10227000FE028093FD02D0E0C0E061E072E0CE019A
:10228000895E9C4F0E94BC192696C834D105A9F7D7
:10229000E1E0F3E086E1DF011D928A95E9F7109213
:1022A00063021092620288EE93E0A0E0B0E08093B7
:1022B000640290936502A0936602B0936702109245
:1022C000FA021092F9021092F8021092F70288E0D6
:1022D00092E090936102809360028BEF92E0909382
:1022E0006D0280936C021092700210926F02109235
:1022F0007102109272021092730210927402109284
:1023000075021092760210926E0280E692E090932F
:1023100000038093FF02DF91CF910F910895CF9337
:10232000DF93CFE5D3E02697CE010E944D1983E0DD
:10233000C731D807C1F785E793E0DF91CF910C94BF
:1023400006132091D6033091D70328173907B9F423
:102350009091940380919503981789F0E0919403EC
:10236000F0E0EA56FC4F80812091940330E02F5F2B
:102370003F4F2F7333272093940390E008958FEFFE
:102380009FEF0895EF92FF920F931F93CF93DF93E8
:10239000DC015C96ED90FC905D97E114F10479F41A
:1023A00081E090E013969C938E93129790E080E0EA
:1023B000DF91CF911F910F91FF90EF90089551966B
:1023C000ED91FC91529750968C915097982F909543
:1023D0000FB75E962C915E97122F127021FD6095BB
:1023E000F8942081112319F1282B2083E7012197EC
:1023F000F1F728E0462F50E0308160FF1AC0382BFB
:102400003083E7012197F1F7BA017595679521505F
:1024100089F7112381F08081892380830FBF5C9627
:102420008D919C910197F1F781E090E0C1CF292334
:10243000DCCF3923E5CF9081892BEFCF0895209110
:10244000D6033091D7032817390771F4909194037C
:1024500080919503981741F0E0919403F0E0EA56DB
:10246000FC4F808190E008958FEF9FEF08952091B9
:10247000D6033091D7032817390771F4809195035B
:102480002091940390E0805C9F4F821B910960E44F
:1024900070E00E947F1D089590E080E00895E09133
:1024A000D603F091D703E817F90769F4A389B48933
:1024B0009C918589809589238C931092D7031092E3
:1024C000D60381E0089580E00895CF93DF93EC0177
:1024D0008A8D9B8D892B01F18091D6039091D70332
:1024E0008C179D07C9F0009711F00E944F128E8D36
:1024F0008E7F8E8F1092950310929403D093D70302
:10250000C093D603EB89FC8980819D89892B8083C8
:1025100081E0DF91CF91089580E0FBCF1F920F9271
:102520000FB60F9211242F933F934F935F936F93A6
:102530007F938F939F93AF93BF93EF93FF93E0911C
:10254000D603F091D703309749F0A685B7858585E6
:10255000968D91FF14C09C918923A1F4FF91EF9176
:10256000BF91AF919F918F917F916F915F914F91AB
:102570003F912F910F900FBE0F901F9018959C9137
:10258000892361F7A389B4899C91858980958923E2
:102590008C93868997890197F1F7608D718DA68557
:1025A000B785558538E020E0CB010197F1F7822F00
:1025B00090E095958795282F4C91452309F0206848
:1025C000315091F7868D81FD20958091950390E0A3
:1025D00001968F73992730919403381799F0A09141
:1025E0009503B0E0AA56BC4F2C9380939503828D3F
:1025F000938D0197F1F7A389B4898C919589892BE3
:102600008C93ACCF868D8160868FF1CF2AE332E048
:10261000FC01318320830C944F121F93CF93DF93DF
:10262000EC01162F6E8D6695617081E06827812F11
:102630000E94901561E0812F0E945415812F110F87
:10264000990BFC01E056FD4FE491E88BFC01E55449
:10265000FD4FE491F0E0EE0FFF1FEE51FD4F85912D
:1026600094919A8B898BDF91CF911F9108951F933D
:10267000CF93DF93EC01162F60E0812F0E94541559
:102680008E8D81FD04C061E0812F0E9490151C8712
:10269000812F110F990BFC01E056FD4FE491ED875E
:1026A000FC01E554FD4FE491F0E0EE0FFF1FEA520C
:1026B000FD4F859194919F878E87DF91CF911F91D8
:1026C00008951F93CF93DF93EC01162F1B821A827C
:1026D00088EE93E0A0E0B0E08C839D83AE83BF835F
:1026E0008AE392E0998388831F8A1E8A198E188E46
:1026F0001B8E1A8E1D8E1C8E8E8D8E7F20FB81F977
:102700008E8F642FCE010E940D13612FCE01DF91B9
:10271000CF911F910C943713CF93DF93EC019A0163
:10272000AB011B8E1A8E198E188E1F8A1E8A60E8C6
:1027300074E88EE190E00E94B51DF901C90103978C
:102740002430310510F481E090E09D8F8C8F6C85F2
:102750006B3108F061C0C901969587958431910568
:1027600058F143979F8B8E8BC9010597369710F4CC
:1027700081E090E0998F888FC901880F991F280FF9
:10278000391F36952795369527952D303105B8F0A8
:102790002C5031093B8F2A8F9091680084E068307B
:1027A00094F06E307CF08CEE860F823058F082E030
:1027B00067314CF088E007C081E090E0D3CF21E0A2
:1027C00030E0E8CF81E0892B809368009C852DE67E
:1027D00030E098309CF09E307CF08CEE890F823097
:1027E00058F02CE630E097314CF023E730E09B3195
:1027F0002CF030E020E002C02BE630E03C8B2B8B4D
:1028000098307CF481E001C0880F9A95EAF78D8BAF
:102810008C8D9D8D0197F1F7CE01DF91CF910C94B6
:1028200065129E3014F49850EDCF963114F49E50FA
:10283000E9CF80E4963159F39751E4CF1F920F927C
:102840000FB60F9211242F933F938F939F93AF93C3
:10285000BF938091DD039091DE03A091DF03B091DF
:10286000E0033091DC0326E0230F2D3768F129E8DF
:10287000230F0396A11DB11D2093DC038093DD037C
:102880009093DE03A093DF03B093E0038091D8031D
:102890009091D903A091DA03B091DB030196A11DB9
:1028A000B11D8093D8039093D903A093DA03B0931A
:1028B000DB03BF91AF919F918F913F912F910F902B
:1028C0000FBE0F901F9018950296A11DB11DD4CF79
:1028D0002FB7F8946091DD037091DE038091DF03E0
:1028E0009091E0032FBF08953FB7F8948091D803EB
:1028F0009091D903A091DA03B091DB0326B5A89B90
:1029000005C02F3F19F00196A11DB11D3FBFBA2F81
:10291000A92F982F8827BC01CD01620F711D811D41
:10292000911D43E0660F771F881F991F4A95D1F7C5
:1029300008958F929F92AF92BF92CF92DF92EF92C3
:10294000FF926B017C010E9474144B015C01C11465
:10295000D104E104F104E9F00E949D1C0E9474146A
:10296000681979098A099B09683E734081059105B8
:1029700070F321E0C21AD108E108F10888EE880E50
:1029800083E0981EA11CB11CC114D104E104F10420
:1029900029F7FF90EF90DF90CF90BF90AF909F907E
:1029A0008F900895789484B5836084BD85B58360E5
:1029B00085BDEEE6F0E0808181608083E1E8F0E0B3
:1029C00082E08083808181608083E0E8F0E0808124
:1029D00081608083E1EBF0E0808184608083E0EBC4
:1029E000F0E0808181608083E1E9F0E080818360B4
:1029F0008083E0E9F0E0808181608083E1EAF0E0BB
:102A0000808183608083E0EAF0E080818160808360
:102A100086E880937A001092C100089582508D302C
:102A200008F03EC0E82FF0E0E85EFA4E0C94D41DAA
:102A30004D15511525152B15501550152F153515FC
:102A400039153F15501543154915809180008F7732
:102A5000809380000895809180008F7DF9CF8091D0
:102A6000B0008F778093B00008958091B0008F7D83
:102A7000F9CF809190008F77809390000895809196
:102A800090008F7DF9CF8091A0008F778093A00078
:102A900008958091A0008F7DF9CF84B58F7784BD94
:102AA000089584B58F7DFBCFCF93DF9390E0FC0139
:102AB000E056FD4F249185549D4FFC01849188235D
:102AC000C9F090E0880F991FFC01E251FD4FA591DC
:102AD000B491FC01EE51FD4FC591D49161110DC02F
:102AE0009FB7F8948C91209582238C93888128231A
:102AF00028839FBFDF91CF910895623051F49FB733
:102B0000F8943C91822F809583238C93E8812E2B1F
:102B1000EFCF8FB7F894EC912E2B2C938FBFEACF89
:102B20001F93CF93DF93282F30E0F901EB57FD4F30
:102B30008491F901E056FD4FD491F901E554FD4F20
:102B4000C491CC23A9F0162F81110E940E15EC2FF1
:102B5000F0E0EE0FFF1FEE51FD4FA591B4918FB73E
:102B6000F894EC91111108C0D095DE23DC938FBF4F
:102B7000DF91CF911F910895DE2BF8CF1F920F9216
:102B80000FB60F9211242F938F939F93EF93FF9380
:102B9000E091F103F091F2038081E091F703F0916D
:102BA000F80382FD1BC090818091FA038F5F8F77BD
:102BB0002091FB03821741F0E091FA03F0E0EF511E
:102BC000FC4F958F8093FA03FF91EF919F918F9126
:102BD0002F910F900FBE0F901F9018958081F4CF0A
:102BE0001F920F920FB60F9211242F933F934F9382
:102BF0005F936F937F938F939F93AF93BF93EF9365
:102C0000FF9381EE93E00E94F71CFF91EF91BF913B
:102C1000AF919F918F917F916F915F914F913F9174
:102C20002F910F900FBE0F901F90189581EE93E09B
:102C30000E949E1C21E0892B09F420E0822F089538
:102C4000E1EEF3E01382128288EE93E0A0E0B0E0C0
:102C500084839583A683B78382E592E09183808302
:102C600085EC90E09587848784EC90E09787868751
:102C700080EC90E0918B808B81EC90E0938B828B49
:102C800082EC90E0958B848B86EC90E0978B868B22
:102C9000118E128E138E148E08958F929F92AF9282
:102CA000BF92CF92DF92EF92FF920F931F93CF9339
:102CB000DF937C018B014C0182E0880E911C57014F
:102CC000E5E0AE0EB11CD0E0C0E0F40161914F012F
:102CD0004AE050E0C8010E9411186C016EE2C80180
:102CE0000E9411178C0D9D1DC80FD91F8A149B04BB
:102CF00061F74AE050E0F7016581C8010E941118B0
:102D00008C0F9D1FDF91CF911F910F91FF90EF903E
:102D1000DF90CF90BF90AF909F908F9008950F93CA
:102D2000FC018CE492E0918380836283438324835B
:102D300005830F910895AF92BF92CF92DF92EF92E9
:102D4000FF920F931F93CF93DF936C017B018B0155
:102D5000040F151FEB015E01AE18BF08C017D107A5
:102D600059F06991D601ED91FC910190F081E02D2F
:102D7000C6010995892B79F7C501DF91CF911F9184
:102D80000F91FF90EF90DF90CF90BF90AF9008959C
:102D9000FB0101900020E9F73197AF01461B570B6B
:102DA000DC01ED91FC910280F381E02D0994EF921A
:102DB000FF920F931F93CF93DF938C017B01D0E0A1
:102DC000C0E0F701EC0FFD1F6491662361F0D801AC
:102DD000ED91FC910190F081E02DC8010995892BBE
:102DE00011F02196EECFCE01DF91CF911F910F917F
:102DF000FF90EF900895DB0114964D915C9115972B
:102E00006D917C91DC01ED91FC910280F381E02DCC
:102E100009946115710511F00C94C81690E080E0DA
:102E20000895DC01ED91FC910190F081E02D099471
:102E30006FEF71E00C94C8160F931F93CF93DF933D
:102E4000EC010E94D7168C01CE010E941817800F4A
:102E5000911FDF91CF911F910F9108950F931F93B1
:102E6000CF93DF93EC010E94FB168C01CE010E94F0
:102E70001817800F911FDF91CF911F910F91089527
:102E80000F931F93CF93DF938C01D0E0C0E06115C7
:102E9000710519F00E94C816EC01C8010E941817AC
:102EA0008C0F9D1FDF91CF911F910F9108958F92ED
:102EB0009F92AF92BF92EF92FF920F931F93CF9387
:102EC000DF93CDB7DEB7A1970FB6F894DEBF0FBE84
:102ED000CDBF7C01FA01CB0119A2223008F42AE00F
:102EE0008E010F5D1F4F822E912CB12CA12CBF01A2
:102EF000A50194010E94931DF901CA016A300CF5E5
:102F0000605DD8016E938D01232B242B252B79F73F
:102F100090E080E0109721F0BD01C7010E94C81623
:102F2000A1960FB6F894DEBF0FBECDBFDF91CF9153
:102F30001F910F91FF90EF90BF90AF909F908F9057
:102F40000895695CDECFCF92DF92EF92FF920F93EC
:102F50001F93CF93DF932115310581F4DC01ED91AF
:102F6000FC910190F081E02D642FDF91CF911F91B2
:102F70000F91FF90EF90DF90CF9009942A303105A8
:102F800001F52AE077FF1DC06A017B01EC016DE2CB
:102F90000E9411178C0144275527BA014C195D096D
:102FA0006E097F092AE0CE010E945717800F911FFA
:102FB000DF91CF911F910F91FF90EF90DF90CF9015
:102FC0000895DF91CF911F910F91FF90EF90DF90C7
:102FD000CF900C9457179A01AB01770F660B770BC4
:102FE0000C94A3170F931F93CF93DF93EC010E94D0
:102FF000EB178C01CE010E941817800F911FDF91F3
:10300000CF911F910F9108952115310541F4DC01F5
:10301000ED91FC910190F081E02D642F09940C94C6
:1030200057179A01462F50E070E060E00C940418A6
:103030009A01AB0170E060E00C9404180F931F93A9
:10304000CF93DF93EC010E946814688779878A87A1
:103050009B87E881F9810284F385E02DCE010995F3
:1030600097FF15C00E946814088519852A853B853D
:10307000601B710B820B930B0C811D812E813F8194
:10308000601771078207930720F38FEF9FEFDF919F
:10309000CF911F910F9108950F931F93CF93DF93BB
:1030A000EC010E946814688779878A879B87E8818A
:1030B000F9810484F585E02DCE01099597FF15C0AF
:1030C0000E946814088519852A853B85601B710B51
:1030D000820B930B0C811D812E813F81601771073C
:1030E0008207930720F38FEF9FEFDF91CF911F911E
:1030F0000F910895FF920F931F93CF93DF93EC01ED
:103100008B01F42ECE010E944C1897FD1DC08D320C
:103110009105D1F09C01205331092A303105A0F0EE
:10312000FF2019F08E32910579F00130110551F030
:103130000230110589F48D30910571F05CF4099726
:10314000029750F08FEF9FEFDF91CF911F910F917A
:10315000FF9008958097B1F7E881F9810284F385A3
:10316000E02DCE010995CECFBF92CF92DF92EF92A4
:10317000FF920F931F93CF93DF938C01C42F40E0F6
:103180000E947A18FC01C12CD12C760197FD3EC01B
:10319000B12C0C2E000CDD0BCE17DF07D9F0ED3271
:1031A000F10509F43FC0CF01C0970A9798F4AAE04F
:1031B000B0E0A70196010E94E11D6F01FF0FEE082C
:1031C000FF08C60ED71EE81EF91E80E3C81AD108F4
:1031D000E108F108D801ED91FC910284F385E02D1E
:1031E000C8010995C8010E944C18FC01C0970A97B4
:1031F00098F2CE17DF0781F2BB2041F0F094E09403
:10320000D094C094C11CD11CE11CF11CC701B601B3
:10321000DF91CF911F910F91FF90EF90DF90CF90B2
:10322000BF900895BB24B394D5CF8F929F92AF9255
:10323000BF92CF92DF92EF92FF920F931F93CF93A3
:10324000DF934C017A01E9012097C9F05A01A20EDF
:10325000B31E8A01C62E660FDD08E801CE19DF090C
:103260000A151B0561F0C4010E941E1897FD07C0D6
:10327000C816D90621F0F80181938F01EECFCE0157
:10328000DF91CF911F910F91FF90EF90DF90CF9042
:10329000BF90AF909F908F900895FC0180819181A5
:1032A0000C94AB1ECF93DF93EC018881998100973A
:1032B00011F00E94AB1E198218821D821C821B8293
:1032C0001A82DF91CF9108950F931F93CF93DF93CD
:1032D000EC018B016F5F7F4F888199810E94341FC1
:1032E000009751F0998388831B830A8381E0DF91E3
:1032F000CF911F910F91089580E0F9CFCF93DF9385
:10330000EC0188819981892B49F08A819B818617FC
:10331000970720F081E0DF91CF910895CE010E94C0
:1033200064198823C1F38C819D81892B99F7E881E9
:10333000F9811082EFCFEF92FF920F931F93CF93FB
:10334000DF93EC017B018A01BA010E947E19811191
:103350000BC0CE010E945219CE01DF91CF911F9177
:103360000F91FF90EF9008951D830C83B701888122
:1033700099810E944C20F0CFFC01118210821382AF
:103380001282158214826115710551F0FB010190C2
:103390000020E9F73197AF01461B570B0C949B199E
:1033A0000895FB0101900020E9F73197AF01461B1A
:1033B000570B0C949B19EF92FF920F931F93CF938F
:1033C000DF93EC017B018A01BA010E947E19811111
:1033D0000BC0CE010E945219CE01DF91CF911F91F7
:1033E0000F91FF90EF9008951D830C83B7018881A2
:1033F00099810E941820F0CFCF93DF93EC01FB015D
:103400008617970749F0608171816115710541F058
:10341000448155810E949B19CE01DF91CF9108957F
:103420000E945219F9CFFC0111821082138212827C
:10343000158214820C94FC19CF93DF93EC01611573
:10344000710531F00E94D119CE01DF91CF9108951D
:103450000E945219F9CF0F931F93CF93DF93EC0182
:103460008B016115710571F0CB010E941F20AC0129
:10347000B801CE010E94DB19CE01DF91CF911F91DF
:103480000F9108950E945219F7CFFC01118210820A
:1034900013821282158214820C942B1AEF92FF92DF
:1034A0000F931F93CF93DF936115710541F480E073
:1034B000DF91CF911F910F91FF90EF9008954115EB
:1034C0005105B1F07B01EC010C811D81040F151F2A
:1034D000B8010E947E19882351F3288139818C819B
:1034E0009D81B701820F931F0E944C201D830C8386
:1034F00081E0DECF6115710551F0FB0101900020E4
:10350000E9F73197AF01461B570B0C944E1A80E038
:103510000895CF93DF9300D0CDB7DEB769831A82C9
:1035200041E050E0BE016F5F7F4F0E944E1A0F9046
:103530000F90DF91CF910895EF92FF920F931F9319
:10354000CF93DF9300D000D0CDB7DEB77C01862FBC
:103550004AE08E010F5F1F4FB80190E00E946D207E
:10356000F80101900020E9F73197AF01401B510BA2
:10357000B801C7010E944E1A0F900F900F900F9044
:10358000DF91CF911F910F91FF90EF900895FC0173
:1035900024813581FB014481558124173507A0F032
:1035A000FC0180819181009779F0FB01608171813C
:1035B0006115710549F0241B350B820F931F0E9482
:1035C000432021E0892B09F020E0822F0895AF925B
:1035D000BF92CF92DF92EF92FF920F931F93CF9300
:1035E000DF936B01EA01FB014481558141155105CF
:1035F00061F1FC01248135812115310531F1241758
:10360000350718F1C217D30710F0E9012197FC0123
:1036100000811181C801AA24AA94BB24BA9478011C
:10362000EC0EFD1EE816F906A0F0F601608171812E
:103630000E945320009769F09C01201B310BC21798
:10364000D30708F059010196EDCFAA24AA94BB2410
:10365000BA94C501DF91CF911F910F91FF90EF9028
:10366000DF90CF90BF90AF9008952F923F924F92EE
:103670005F926F927F928F929F92AF92BF92CF9202
:10368000DF92EF92FF920F931F93CF93DF93FC0192
:10369000448055804114510409F4CFC0FB0164807B
:1036A00075806114710409F4C8C07A016B018C0142
:1036B000FA01A480B580A618B708FC01C081D181A9
:1036C000A114B104B9F4F60160817181CE010E94A8
:1036D0005320EC01009709F4B0C0F70160817181BB
:1036E000448155810E942820F70184819581C80F6B
:1036F000D91FE9CFB7FC11C0FB0120803180420106
:10370000B101CE010E945320009709F44AC0EC0198
:10371000C60DD71D8A0C9B1CF3CF3E01F6016081BC
:103720007181CE010E9453202C01009721F14C01A0
:103730008C1A9D0AA401BE01C3010E942820680CB6
:10374000791CF7016081718144815581C3010E9418
:103750002820F70184809580680C791CF601C481CB
:10376000D581C40DD51DF801848195818A0D9B1DDD
:1037700095838483D3CFBE01C301DF91CF911F9185
:103780000F91FF90EF90DF90CF90BF90AF909F9000
:103790008F907F906F905F904F903F902F900C9400
:1037A0004C204814590409F448C0F80182819381DF
:1037B00088159905E0F1F80144815581415051097E
:1037C00057FD3BC0B601C8010E94E71AEC0197FD06
:1037D00034C0F60124813581280F391FF80180811A
:1037E0009181820F931F44815581421B530BBC0171
:1037F0008A0D9B1D0E943120F801848195818A0DDC
:103800009B1D9583848320813181820F931FFC014E
:103810001082F80180819181F7016081718144817A
:1038200055818C0F9D1F0E942820AE01C7CFB40187
:10383000C8010E9464198111BECFDF91CF911F9101
:103840000F91FF90EF90DF90CF90BF90AF909F903F
:103850008F907F906F905F904F903F902F90089542
:10386000AF92BF92CF92DF92EF92FF920F931F938E
:10387000CF93DF93DC01CD90DC901197C114D1047C
:1038800039F01496CD91DC918C017601209761F48A
:10389000DF91CF911F910F91FF90EF90DF90CF902C
:1038A000BF90AF90089575015701BFEFAB1ABB0AE7
:1038B000F7018081082E000C990B0E940F20892BA4
:1038C00091F72197CC0DDD1D8881082E000C990BF6
:1038D0000E940F20892B29F0CE15DF0510F02197CB
:1038E000F3CFAE014F5F5F4F4E195F09D8011596B8
:1038F0005C934E931497CE14DF0420F4B701C601F5
:103900000E942820D801ED91FC91119714968D9179
:103910009C91E80FF91F1082BBCF08950E94D2142A
:103920000E948D1C0E945403CCEDDCE10E947A03BE
:103930002097E1F30E94DC1CF9CF0895FC01918DE2
:10394000228D892F90E080589F4F821B91098F779D
:1039500099270895FC01918D828D981731F0828D01
:10396000E80FF11D858D90E008958FEF9FEF08958A
:10397000FC01918D828D981761F0A28DAE0FBF2F43
:10398000B11D5D968C91928D9F5F9F77928F90E095
:1039900008958FEF9FEF0895FC01538D448D252FDF
:1039A00030E0842F90E0821B930B541718F081585D
:1039B0009F4F08950197089586E196E1892B49F07C
:1039C00080E090E0892B29F00E94161681110E9458
:1039D000000080E090E0892B49F080E090E0892BA6
:1039E00029F00E94000081110C9400000895FC0150
:1039F000A48DA80FB92FB11DA356BF4F2C91848D54
:103A000090E001968F779927848FA689B7892C93A8
:103A1000A089B1898C9180648C93938D848D981347
:103A200006C00288F389E02D80818F7D8083089510
:103A3000CF93DF93EC01888D8823B9F0AA89BB89E5
:103A4000E889F9898C9185FD03C0808186FD0DC0D0
:103A50000FB607FCF7CF8C9185FFF2CF808185FFF1
:103A6000EDCFCE010E94F71CE9CFDF91CF910895F1
:103A7000EF92FF920F931F93CF93DF93EC0181E0BE
:103A8000888F9B8D8C8D981316C0E889F989808169
:103A900085FF11C0EE89FF896083E889F9898081FB
:103AA0008064808381E090E0DF91CF911F910F913E
:103AB000FF90EF900895F62E0B8D10E00F5F1F4FD3
:103AC0000F771127E02E8C8D8E110CC00FB607FCDE
:103AD000FACFE889F989808185FFF5CFCE010E9470
:103AE000F71CF1CFEB8DEC0FFD2FF11DE356FF4FCF
:103AF000F0820B8FEA89FB8980818062D2CF97FBAD
:103B0000072E16F4009407D077FD09D00E94EC1D13
:103B100007FC05D03EF4909581959F4F08957095D0
:103B200061957F4F0895A1E21A2EAA1BBB1BFD01D0
:103B30000DC0AA1FBB1FEE1FFF1FA217B307E4078C
:103B4000F50720F0A21BB30BE40BF50B661F771FE4
:103B5000881F991F1A9469F76095709580959095C4
:103B60009B01AC01BD01CF010895052E97FB1EF40A
:103B700000940E94CC1D57FD07D00E94931D07FCA6
:103B800003D04EF40C94CC1D509540953095219562
:103B90003F4F4F4F5F4F0895909580957095619579
:103BA0007F4F8F4F9F4F0895EE0FFF1F0590F491A9
:103BB000E02D09940E94001EB7FF0895821B930B0D
:103BC00008950E94001EA59F900DB49F900DA49F84
:103BD000800D911D11240895AA1BBB1B51E107C044
:103BE000AA1FBB1FA617B70710F0A61BB70B881F8D
:103BF000991F5A95A9F780959095BC01CD0108951C
:103C0000A29FB001B39FC001A39F700D811D11241D
:103C1000911DB29F700D811D1124911D08950F9368
:103C20001F93CF93DF938230910510F482E090E0F0
:103C3000E0910005F091010530E020E0B0E0A0E067
:103C4000309799F42115310509F44AC0281B390B26
:103C500024303105D8F58A819B816115710589F180
:103C6000FB0193838283FE0111C040815181028157
:103C7000138148175907E0F04817590799F410972E
:103C800061F012960C93129713961C933296CF0103
:103C9000DF91CF911F910F9108950093000510932C
:103CA0000105F4CF2115310551F04217530738F0C3
:103CB000A901DB019A01BD01DF01F801C1CFEF01CC
:103CC000F9CF9093010580930005CDCFFE01E20F5F
:103CD000F31F819391932250310939832883D7CFE1
:103CE0002091FE043091FF04232B41F42091020126
:103CF000309103013093FF042093FE0420910001D2
:103D0000309101012115310541F42DB73EB74091A5
:103D1000040150910501241B350BE091FE04F09144
:103D2000FF04E217F307A0F42E1B3F0B28173907F7
:103D300078F0AC014E5F5F4F2417350748F04E0F07
:103D40005F1F5093FF044093FE04819391939FCF94
:103D5000F0E0E0E09CCFCF93DF930097E9F0FC0127
:103D6000329713821282A0910005B0910105ED01F6
:103D700030E020E01097A1F420813181820F931F61
:103D80002091FE043091FF042817390709F061C023
:103D9000F093FF04E093FE04DF91CF910895EA01D0
:103DA000CE17DF07E8F54A815B819E014115510579
:103DB000B1F7E901FB83EA8349915991C40FD51FFB
:103DC000EC17FD0761F4808191810296840F951FA5
:103DD000E90199838883828193819B838A83F0E0C0
:103DE000E0E012968D919C9113970097B9F52D9173
:103DF0003C911197CD010296820F931F2091FE04F2
:103E00003091FF042817390739F6309751F5109291
:103E1000010510920005B093FF04A093FE04BCCFEF
:103E2000D383C28340815181840F951FC817D9075E
:103E300061F44E5F5F4F88819981480F591F51830C
:103E400040838A819B81938382832115310509F008
:103E5000B0CFF0930105E09300059ECFFD01DC019A
:103E6000C0CF13821282D7CFB0E0A0E0EAE3FFE137
:103E70000C94AF208C01009751F4CB010E940F1ECF
:103E80008C01C801CDB7DEB7E0E10C94CB20FC017A
:103E9000E60FF71F9C0122503109E217F30708F4DF
:103EA0009DC0D901CD91DC911197C617D70798F025
:103EB000C530D10530F3CE0104978617970708F374
:103EC000C61BD70B2297C193D1936D937C93CF01DF
:103ED0000E94AB1ED6CF5B01AC1ABD0A4C018C0E02
:103EE0009D1EA0910005B0910105512C412CF12C93
:103EF000E12C109731F58091FE049091FF04881514
:103F0000990509F05CC04616570608F058C0809124
:103F1000000190910101009741F48DB79EB7409147
:103F2000040150910501841B950BE817F90708F06F
:103F300055C0F093FF04E093FE04F90171836083A0
:103F4000A0CF8D919C91119712966C901297139619
:103F50007C901397A815B90559F56C0142E0C40E81
:103F6000D11CCA14DB0420F1AC014A195B09DA0147
:103F70001296159780F06282738251834083D90133
:103F80006D937C93E114F10471F0D7011396FC93C7
:103F9000EE93129776CF22968C0F9D1FF901918395
:103FA0008083F301EFCFF0930105E093000569CF23
:103FB0004816590608F42C017D01D3019ACFCB0194
:103FC0000E940F1E7C01009749F0AE01B8010E94CB
:103FD0002820C8010E94AB1E870153CF10E000E0EB
:103FE00050CFFC0188279927E89421912032E9F3EA
:103FF000293010F02E30C8F32B3241F02D3239F435
:10400000689404C00E947820820F911D2191205352
:104010002A30C0F31EF4909581959F4F0895911119
:104020000C949A20803219F089508550C8F7089571
:10403000FB01DC0105900D920020E1F70895FC01E1
:1040400005900020E9F7809590958E0F9F1F0895A9
:10405000FB01DC0102C001900D9241505040D8F7A5
:1040600008956817790768F4FB01DC01E40FF51F78
:10407000A40FB51F02C002900E9241505040D8F7D5
:1040800008950C942820FB01DC018D91019080198A
:104090000110D9F3990B0895FB01DC0101900D92F9
:1040A0000020E1F70895FB0151915523A9F0BF01CC
:1040B000DC014D9145174111E1F759F4CD01019013
:1040C000002049F04D9140154111C9F3FB01411108
:1040D000EFCF81E090E001970895BB274A3031F49B
:1040E000992322F4BDE2909581959F4F0C948120F5
:1040F0007AE0979F902D879F802D910D1124089530
:10410000BB27FB015527AA27880F991FAA1FA417B1
:1041100010F0A41B83955051B9F7A05DAA3308F0A5
:10412000A95DA193009779F7B111B1931192CB01D9
:104130000C949D20992788270895DC01FC01672FA6
:1041400071917723E1F7329704C07C916D9370836E
:104150006291AE17BF07C8F308952F923F924F9216
:104160005F926F927F928F929F92AF92BF92CF9207
:10417000DF92EF92FF920F931F93CF93DF93CDB710
:10418000DEB7CA1BDB0B0FB6F894DEBF0FBECDBF88
:1041900009942A88398848885F846E847D848C8459
:1041A0009B84AA84B984C884DF80EE80FD800C8162
:1041B0001B81AA81B981CE0FD11D0FB6F894DEBF45
:1041C0000FBECDBFED01089511E0CFE7D1E004C0EF
:1041D000FE010E94D41D2196C038D107C9F7F8947A
:0241E000FFCF0F
:1041E200000002058000576169742E2E2E00415492
:1041F2000023232320476F7420446174613A006FC7
:104202006E0023232320436C6F7365643A200023DE
:104212002323204E6574776F726B206E616D65206B
:10422200757064617465642E00232323204E6574C7
:10423200776F726B2074696D6520616E642074699A
:104242006D65207A6F6E6520757064617465642E89
:1042520000232323204E6574776F726B2074696D7F
:1042620065207A6F6E6520757064617465642E00D6
:10427200232323204461796C696768742073617613
:10428200696E67732074696D65207374617465204B
:10429200757064617465642E0023232320556E6556
:1042A20078706563746564206D6F64756C652072E7
:1042B200657365742100302E31312E35002323239E
:1042C20020556E68616E646C65643A0053494D43D3
:1042D2006F6D2053494D37303030000D0A4F4B0D72
:1042E2000A005F000000000019027E0CAA012F02E2
:1042F200BA103C025802D902AD01CA0F440F630240
:104302007402E80C00000000B6019B16AA010E021E
:10431200F801D401030200000000C2119B16AA0199
:104322001E123712A1111F12000000004D160000CC
:104332000000381D9B16CC1C181D9E1CB81CAA1C04
:00000001FF
