:100000000C94DD010C946A1F0C94911F0C94FF1E3C
:100010000C94241F0C9476060C942A180C94050258
:100020000C9405020C9405020C9405020C94050234
:100030000C9405020C94201A0C9405020C940502F1
:100040000C94B91F0C9405020C9451210C9483213B
:100050000C9405020C9405020C9405020C94050204
:100060000C94151B0C940502084AD73B3BCE016E3D
:1000700084BCBFFDC12F3D6C74319ABD56833DDAFF
:100080003D00C77F11BED9E4BB4C3E916BAAAABE0E
:10009000000000803F05A84CCDB2D44EB93836A937
:1000A000020C50B9918688083CA6AAAA2ABE000074
:1000B00000803F00696F742E316E63652E6E65742B
:1000C0000041542B43495053454E443D0041542B6D
:1000D00043495053544154555300434C4F534520CA
:1000E0004F4B0041542B434950434C4F5345004321
:1000F0004F4E4E454354204F4B002200222C2200ED
:1001000041542B43495053544152543D225544507D
:10011000222C220041542B43495052584745543D0C
:10012000300041542B4349504D55583D3000534801
:100130005554204F4B0041542B434950534855547C
:100140000041542B434744434F4E543D312C2249E8
:1001500050222C002B434744434F4E543A20004139
:10016000542B434744434F4E543F002B4347415485
:10017000543A200041542B43474154543F004154CA
:100180002B43474154543D300041542B534150427E
:10019000523D302C310053485554204F4B004154B0
:1001A0002B434950534855540041542B434949432C
:1001B000520041542B53415042523D312C310041A9
:1001C000542B53415042523D332C312C2250574432
:1001D000222C0041542B53415042523D332C312CA0
:1001E0002255534552222C0041542B435354543D25
:1001F000220041542B53415042523D332C312C228A
:1002000041504E222C0041542B53415042523D3319
:100210002C312C22434F4E54595045222C2247500A
:100220005253220041542B4349504D4F44453D30D9
:100230000053485554204F4B0041542B43495053D1
:10024000485554002B4353513A200041542B4353FB
:1002500051002B435245473A200041542B4352450D
:10026000473F002B43475245473A200041542B4318
:10027000475245473F0041542B47534E0041542BB2
:10028000434E45544C494748543D300041542B435C
:100290005347533D320041542B434E45544C49473C
:1002A00048543D310041542B4350534D533D004180
:1002B000542B4353434C4B3D0041542B434E4D5024
:1002C0003D0041542B4346554E3D002B4342433A9B
:1002D000200041542B4342430053494D37303030C6
:1002E000470053494D37303030450053494D373082
:1002F0003030430053494D37303030410041542BAA
:10030000435648553D300041544530004154453036
:1003100000415400415400415400415400415400F4
:100320004154004154004F4B00464F4E41000000E5
:100330005EBCE2613FDD83C29C7E20A3FD1F4100C5
:100340009D23BE46DB65F88C11AF32CA57E97400B5
:10035000000009000302000004050800000000007E
:10036000000000000000010204081020408001028B
:1003700004081020010204081020408040040404F6
:10038000040404040402020202020203030303033E
:1003900003020203000000002300260029000000E1
:1003A0000000250028002B0000000000240027008A
:1003B0002A009B0CCD1AB321DE0C11241FBECFEFF7
:1003C000D8E0DEBFCDBF12E0A0E0B1E0EEE9FCE591
:1003D00002C005900D92AE30B107D9F726E0AEE02D
:1003E000B2E001C01D92A232B207E1F711E0CCEDFC
:1003F000D1E004C02197FE010E940F29C93DD10719
:10040000C9F70E9426240C94422E0C94000090E020
:1004100080E008950E94032060938202709383021B
:10042000809384029093850280918202909183024E
:10043000A0918402B091850240917E0250917F028A
:100440006091800270918102841B950BA60BB70B03
:10045000853F9140A105B105C8F08091820290913D
:100460008302A0918402B091850280937E029093D2
:100470007F02A0938002B09381028091100190913D
:1004800011010196909311018093100108950C942D
:100490002C2E0C94342E60E08AE00E94232168EB1D
:1004A0007BE080E090E00E94342061E08AE00E94DE
:1004B000232160E47FE180E090E00C943420682FF9
:1004C0008FE090E00E94490268EC70E080E090E0EC
:1004D0000E9434200E944B0260E177E280E090E0CD
:1004E0000E94342088E19BE00FB6F894A895809391
:1004F00060000FBE90936000089580919A029091E1
:100500009B02A0919C02B0919D020196A11DB11D7C
:1005100080939A0290939B02A0939C02B0939D02B9
:1005200080919A0290919B02A0919C02B0919D02B1
:10053000893C9105A105B10558F010929A021092DC
:100540009B0210929C0210929D0282E00C945F022A
:10055000089560E08AE00E94232164E670E080E074
:1005600090E00E94342061E08AE00C9423218FE91E
:1005700092E00E94571791E0811101C090E0892F0D
:1005800008950F931F9368EB7BE080E090E00E945A
:10059000342060E875E283EC93E00E949F1D63ECD9
:1005A00073E08FE992E00E945F1281110DC068E84C
:1005B00073E180E090E00E94342060E875E283EC13
:1005C00093E00E949F1DEBCF6CE371E083EC93E01E
:1005D0000E94652208E813E120E430E043E061E096
:1005E0008FE992E00E948F146CE271E080E090E06D
:1005F0000E94342060E08FE992E00E94251568EBAC
:100600007BE080E090E00E94342061E08FE992E09E
:100610000E94251530E020E050E040E064EB70E0FF
:100620008FE992E00E94C61668EC70E080E090E0EE
:100630000E943420609136018FE992E00E943F15BC
:1006400064EF71E080E090E00E94342061E08FE987
:1006500092E00E94591568EC70E080E090E00E9402
:10066000342080913601863241F428E431E045E0BF
:1006700061E08FE992E00E94461468EC70E080E04F
:1006800090E00E94342060E08FE992E00E947315B0
:1006900068EC70E080E090E01F910F910C943420A2
:1006A000CF92DF92EF92FF92CF930E9403206B01D3
:1006B0007C01C0E00E94B702811130C00E94B702E5
:1006C0000E9403206C197D098E099F0960347F41C7
:1006D0008105910568F50E9403206C197D098E093A
:1006E0009F0960327E448105910520F30E94B70284
:1006F0008111E0CFC130F1F60E944B020E94A902A5
:1007000068EB7BE080E090E00E9434200E94C10210
:100710000E9403206B017C01C0E0CCCF61E08FE937
:1007200092E0CF91FF90EF90DF90CF900C94A915BD
:100730000E94B7028111CFCFC111CDCF0E94C1025B
:10074000C1E0B8CF109263021092620210926C0264
:1007500010926D0210926E0210926F02109265025A
:100760001092640210925B0210925A0280E090E0B4
:10077000A6ECB2E480930C0190930D01A0930E01BE
:10078000B0930F018093080190930901A0930A018F
:10079000B0930B0110925602109257021092580219
:1007A0001092590210925202109253021092540267
:1007B0001092550210929E02109218021092170287
:1007C000109216021092150210921101109210014F
:1007D0001092110210921002E6E6F2E086E0DF01CC
:1007E0001D928A95E9F708950F931F93CF93DF9396
:1007F00090E080E00E944702813099F409E111E025
:10080000D0E0C0E02196CE010E944702F80181931A
:100810008F01C830D105B1F7DF91CF911F910F91B2
:10082000089567E372E08FE992E00E94A41168ECFA
:1008300070E080E090E00E943420A7E3B2E0E9E1BC
:10084000F2E0EF018D91082E000C990BC09789936F
:10085000999382E0A734B807A9F73091350209E1EE
:1008600011E0D80190E080E04AE087309105D1F4B2
:100870003093200101963496119688309105A9F79E
:1008800061E090E080E00E944902D0E0C0E0F80121
:1008900061918F012196CE010E944902C830D10595
:1008A000B1F7BACF50812281549F200D11242C938F
:1008B000E1CF14BE0FB6F894A895809160008861CE
:1008C00080936000109260000FBE80E180938100F1
:1008D0001092800083E08093270484E294EF909349
:1008E000290480932804909387008093860083E1F5
:1008F000809381008DE792E09093260480932504F5
:1009000081E080936F0061E086E00E94E72061E073
:1009100080E10E94E72061E08AE00E94E72060E039
:1009200086E00E94232161E080E10E94232160E0B3
:100930008AE00E94232161E08DE00E94E72061E0CF
:100940008DE00E94232168EE73E080E090E00E9439
:10095000342060E08DE00E94232164E670E080E0B6
:1009600090E00E94342061E0809117010E94E7200E
:1009700061E0809115010E94E72061E080911701FC
:100980000E94232161E0809115010E94232164E6E9
:1009900070E080E090E00E9434208CEF93E00E94B1
:1009A000C50E8BE090E00E9447028F3F11F081302E
:1009B00019F481E0809313028AE090E00E944702DC
:1009C000811113C042E050E06AE072E081E00E94D1
:1009D0004A1F81E08093120289E090E00E94470262
:1009E0008D3041F48093360109C087ED93E00E9479
:1009F000C50EF2CF8230B1F38632A1F38EE090E0E3
:100A00000E9447028A3019F483E080930E0280919D
:100A100068008460809368000E94C1020E94F40311
:100A20000E94500380919E02883051F58FE090E043
:100A30000E944702813041F481E580939E0260E08C
:100A40008FE090E00C944902823021F482E580939B
:100A50009E02F5CF833021F483E580939E02EFCF91
:100A6000843021F484E580939E02E9CF853021F41F
:100A700085E580939E02E3CF88E580939E02DFCFD9
:100A800008958091620290916302019690936302AF
:100A9000809362028091700290917102092E000C85
:100AA000AA0BBB0B40916C0250916D0260916E02DB
:100AB00070916F02840F951FA61FB71F80936C0261
:100AC00090936D02A0936E02B0936F0208954091CF
:100AD0006A0250916B02209168023091690284177A
:100AE00095072CF1309367022093660250936902B8
:100AF0004093680290936B0280936A028091660231
:100B0000909167022091680230916902820F931FD1
:100B100020916A0230916B02820F931F63E070E0B4
:100B20000E9478287093650260936402089582178A
:100B300093074CF03093670220936602909369020A
:100B400080936802DBCF20916602309167022817FC
:100B50003907A4F69093670280936602CFCF8F92F5
:100B60009F92AF92BF92CF92DF92EF92FF92CF937C
:100B7000C1E0C09372020E940320609392027093BE
:100B80009302809394029093950210929602109291
:100B900097021092980210929902CCBB80916D003E
:100BA000806280936D006091130170911401072E93
:100BB000000C880B990B0E94342010926D008091DC
:100BC000960290919702A0919802B0919902892B78
:100BD0008A2B8B2BE9F41092710210927002809193
:100BE000700290917102883592400CF05EC00E94B4
:100BF00041058091700290917102CF91FF90EF902A
:100C0000DF90CF90BF90AF909F908F900C9467052E
:100C100060918E0270918F0280919002909191026A
:100C2000C0908A02D0908B02E0908C02F0908D02EE
:100C30006C197D098E099F090E9494266B017C0125
:100C4000C0924602D0924702E0924802F0924902D6
:100C5000609196027091970280919802909199020A
:100C60000E9494264B015C01A701960160E070EAA6
:100C70008CE095E40E94EC259B01AC01C501B40118
:100C80000E94B9272AE335E74EE55FE30E94B927C2
:100C900020E030E040E251E40E94B9270E945E2645
:100CA00070937102609370029ACFCF91FF90EF9092
:100CB000DF90CF90BF90AF909F908F90089520913C
:100CC000620230916302032E000C440B550B6091BD
:100CD0006C0270916D0280916E0290916F020E9481
:100CE000AE28309351022093500208951F920F9224
:100CF0000FB60F9211242F933F934F935F936F93EF
:100D00007F938F939F93AF93BF93EF93FF930E9433
:100D100003206093860270938702809388029093E9
:100D2000890280917202813099F5809186029091BA
:100D30008702A0918802B0918902809392029093D9
:100D40009302A0939402B093950210927202809144
:100D5000860290918702A0918802B09189028093C7
:100D60008A0290938B02A0938C02B0938D02FF9124
:100D7000EF91BF91AF919F918F917F916F915F9113
:100D80004F913F912F910F900FBE0F901F9018958C
:100D90008091860290918702A0918802B091890289
:100DA0004091920250919302609194027091950249
:100DB000841B950BA60BB70B4097A105B105B8F2A4
:100DC0008091960290919702A0919802B091990219
:100DD0000196A11DB11D8093960290939702A09356
:100DE0009802B09399028091860290918702A09117
:100DF0008802B09189028093920290939302A0930B
:100E00009402B09395028091860290918702A091FE
:100E10008802B091890280938E0290938F02A093F2
:100E20009002B0939102A3CF2091560230915702C5
:100E300040915802509159026091520270915302B0
:100E400080915402909155020E9488252BED3FE03D
:100E500049E450E40E94EC2520E030E044E353E410
:100E60000E94B9270E945E2677FD05C070935B0241
:100E700060935A02089568597E4FF8CF4F925F925F
:100E80006F927F928F929F92AF92BF92CF92DF929A
:100E9000EF92FF9260915C0270915D02072E000C50
:100EA000880B990B0E94962620E030E044E353E43F
:100EB0000E94EC252BED3FE049E450E40E94B92765
:100EC0006B017C010E94E7252B013C0120E030E012
:100ED00040E45FE36091560270915702809158029E
:100EE000909159020E94B9274B015C0120E030E04B
:100EF00040E85EE3C301B2010E94B9279B01AC0147
:100F0000C501B4010E9409256093560270935702EF
:100F10008093580290935902C701B6010E94262877
:100F20004B015C0120E030E040E45FE3609152025D
:100F30007091530280915402909155020E94B927FA
:100F40006B017C0120E030E040E85EE3C501B401C4
:100F50000E94B9279B01AC01C701B6010E94092577
:100F600060935202709353028093540290935502FF
:100F7000FF90EF90DF90CF90BF90AF909F908F90B9
:100F80007F906F905F904F900895AF92BF92CF92F5
:100F9000DF92EF92FF920F931F9381E10E94A020B6
:100FA0009093610280936002BC01990F880B990BAA
:100FB0001F921F9221E02F9328E62F93A12CB12C92
:100FC0006501EE24EA9413E0F12E00E010E020E049
:100FD00030E0A9010E94602370935F0260935E027B
:100FE0002091210430912204C901860F971F90930C
:100FF0005D0280935C020F900F900F900F901F91F5
:101000000F91FF90EF90DF90CF90BF90AF900C9436
:101010003E07CF93DF93C7E1D1E061E088810E9472
:10102000232164E670E080E090E00E9434208CEFA1
:1010300093E00E941A0E6EEE72E080E090E00E9453
:10104000342060E08CEF93E00E94680F6093080109
:101050007093090180930A0190930B0160E08881ED
:10106000DF91CF910C942321CF93DF93C5E1D1E0A1
:1010700061E088810E9423216CE271E080E090E0D1
:101080000E94342087ED93E00E941A0E62E573E01F
:1010900080E090E00E94342060E087ED93E00E94C1
:1010A000680F60930C0170930D0180930E01909373
:1010B0000F0160E08881DF91CF910C9423210E9481
:1010C00014070E945F0680911201813059F40E943A
:1010D000090883E680932B0164E670E080E090E0ED
:1010E0000C943420823079F480911202811102C074
:1010F0000E94340883E680932C0164E670E080E06F
:1011000090E00C943420833070F00E9409088091A4
:101110001202811102C00E94340864E670E080E08F
:1011200090E00C94342008956CE472E08FE992E032
:101130000E9448178823B9F080914C0290914D028B
:1011400064E170E00E94642870934F0260934E0245
:1011500060914E0270914F02072E000C880B990B84
:101160000E949626089510924F0210924E02F0CFE0
:101170004F925F926F927F928F929F92AF92BF92A7
:10118000CF92DF92EF92FF920F931F93CF93DF9353
:10119000CDB7DEB72C970FB6F894DEBF0FBECDBF2C
:1011A0008FE992E00E9452128FE992E00E94BE17EE
:1011B000182F8FE992E00E94A017813011F41130AE
:1011C00079F060E08FE992E00E94A9150E94500337
:1011D00045E85AE16DE471E08FE992E00E946713FF
:1011E0008FE992E00E94F613811108C045E85AE1A8
:1011F0006DE471E08FE992E00E9467130E94032082
:1012000000917A0210917B0220917C0230917D0244
:10121000601B710B820B930B603D7B4F81409105EE
:1012200008F012C180917A0290917B02A0917C0219
:10123000B0917D02892B8A2B8B2B09F405C18091FB
:1012400006018F5F8093060180915A0290915B02A4
:1012500064E670E00E947828609321018093220167
:1012600080915002909151022AE030E0B9010E9431
:1012700078286093230180932401809164029091E7
:101280006502B9010E9478286093250180932601A8
:101290008090080190900901A0900A01B0900B0184
:1012A00020E030E048EC52E4C501B4010E94B927C7
:1012B0006B017C0120E030E0A9010E94AC271816E8
:1012C0000CF43DC1C701B601905820E030E048EC75
:1012D00052E40E94EC250E94652660932801C70114
:1012E000B6010E945E269B0177FF04C022273327A8
:1012F000261B370BC90164E670E00E9478288093B2
:10130000290140900C0150900D0160900E017090E9
:101310000F0120E030E048EC52E4C301B2010E942A
:10132000B9276B017C0120E030E0A9010E94AC27C5
:1013300018160CF407C1C701B601905820E030E040
:1013400048EC52E40E94EC250E94652660932B0134
:10135000C701B6010E945E269B0177FF04C02227C9
:101360003327261B370BC90164E670E00E947828FA
:1013700080932C0180914E0280932D0180914A022E
:1013800080932E018091620280932F0180919E02B2
:1013900080933001809179028093310120E030E028
:1013A000A901C501B4010E94AC2718160CF0CDC0EC
:1013B00081E080932701809110019091110197FDA8
:1013C000C7C020911202213009F0C2C09AE0909368
:1013D0002A0180932B0110922C0180911502809399
:1013E000320109E09E012F5F3F4F4BE169E171E05F
:1013F0008FE992E00E94FD10882309F4DAC12B8165
:10140000422F50E08C8190E03A81313009F0B0C039
:1014100034E6239F800D911D112490932204809324
:1014200021048D81882341F024E6829FC00111248C
:1014300090931401809313016985613009F0A5C070
:1014400083E00E945F02ABC00E94032060937A0297
:1014500070937B0280937C0290937D028FE992E0EF
:101460000E94821790E090934B0280934A026CE2B4
:1014700071E080E090E00E9434200E9494080E9475
:101480005E2670934F0260934E0210920601809187
:101490001302813009F0D8CE1C861B8610E000E0D4
:1014A0008B859C850A97F0F58EE00E94A020BC01F8
:1014B000990F880B990B0E94962622E538EB4EE790
:1014C00050E40E94B92720E030E04AE754E40E944B
:1014D000EC2523E333E343E95FE30E94EC2520E0BE
:1014E00030E04BE654E40E94B9276B017C01B8015F
:1014F000110F880B990B0E9496269B01AC01C70126
:10150000B6010E9409250E945E268B018B859C8571
:1015100001969C878B8762E370E080E090E00E94F8
:101520003420BECF6B857C85C8010E946428CB0126
:1015300065E070E00E9464286093790285CEC7015F
:10154000B601C3CEC701B601F9CE1092270133CF41
:1015500020E030E0A901C301B2010E94AC271816B7
:1015600024F481E080932A0138CF10922A0135CFEC
:101570006CE964039001659F300D1124281B390B21
:1015800030932204209321044CCF643689F560E027
:101590008AE090E00E94490283E00E945F028E810F
:1015A000809312018F8180932304388580914E02AD
:1015B00090914F02343030F4AC014B5A510949300C
:1015C000510540F020910F02213009F097C03430CE
:1015D00008F094C024E0288721E020930F028F3B7D
:1015E00091050CF0B0C08E3B910509F0AEC09DC0D6
:1015F000653649F461E08AE090E00E94490283E0A8
:101600000E945F02CCCF6E3649F462E08BE090E03E
:101610000E94490283E00E945F02C1CF6F3649F405
:1016200061E08BE090E00E94490283E00E945F024B
:10163000B6CF683749F460E08CE090E00E94490240
:1016400083E00E945F02ABCF693749F461E08CE030
:1016500090E00E94490283E00E945F02A0CF6238BE
:1016600049F460E08DE090E00E94490283E00E942E
:101670005F0295CF633849F461E08DE090E00E940D
:10168000490283E00E945F028ACF683249F46AE02F
:101690008EE090E00E94490283E080930E027FCFAB
:1016A000693241F46BE08EE090E00E9449021092B2
:1016B0000E0275CF663631F482E0809336010E94C7
:1016C000C1026DCF613731F48DE0809336010E9405
:1016D000C10265CF6A3831F486E2809336010E94F8
:1016E000C1025DCF623029F06D3019F0663209F029
:1016F00056CF89E090E00E944902A2CE3830E8F44B
:101700008A3A91053CF48231910534F4223009F093
:101710006ACF02C0223089F428E0288722E0209393
:101720000F028F3B91050CF45ECF80910F02823047
:1017300061F481E080930F0208C08F3B91050CF4A7
:1017400052CF213091F710920F028885893028F40A
:10175000909107018913809307018981882359F0AB
:1017600090E02091070121111FC0880F991F9093CD
:101770003501809334010E94A2032C960FB6F89491
:10178000DEBF0FBECDBFDF91CF911F910F91FF90B4
:10179000EF90DF90CF90BF90AF909F908F907F9011
:1017A0006F905F904F90089590933501809334012E
:1017B000E2CF8FE992E00E94EE13809116028F5FD4
:1017C00080931602833069F40E944B020E94A902A2
:1017D00068EB7BE080E090E00E9434200E94C10230
:1017E000CCCF843050F285E00E945F02C6CF0E94C9
:1017F0005F080C94B8080E94AF050E94C50780914D
:101800000701813009F05EC030E020E050E040E0A8
:1018100066E070E084E294E00E94DC170E945F06BC
:1018200061E08DE00E94232162E370E080E090E0BF
:101830000E94342060E08DE00E94232120919E02CE
:101840008091620290916302223011F0253019F4E8
:1018500083309105ECF420913401309135014091B1
:1018600023046AE0469FA001112460915002709108
:101870005102641775071CF0821793074CF4220F6E
:10188000331F8217930724F4853F91400CF444C022
:1018900060E086E00E94232164E670E080E090E052
:1018A0000E94342083EC93E00E94B01C68EE73E049
:1018B00080E090E00E9434200E94F70B61E086E017
:1018C0000C942321823059F430E020E050E040E0D5
:1018D00067E070E084E294E00E94DC179FCF9DEF08
:1018E000980F943058F430E020E050E040E068E099
:1018F00070E084E294E00E94DC1790CF873008F417
:101900008DCF30E020E050E040E069E070E084E21C
:1019100094E00E94DC1782CF8091140281110AC0EA
:10192000F89410929A0210929B0210929C021092CC
:101930009D0278940895CF9364E083E194E00E943F
:10194000621963E174E08CEF93E00E94000D63E0A4
:101950008EEE93E00E9462196EEE73E087ED93E0E5
:101960000E94000DE3ECF3E01382128288EE93E014
:10197000A0E0B0E084839583A683B7838AEE91E0EC
:1019800091838083C8E0C48789E08587138A128A9F
:1019900063E68FE992E00E94CF0FEFE9F2E08EE577
:1019A00091E091838083C58784B780939E026AEF1C
:1019B00071E083E792E0CF910C94102483E792E0EA
:1019C0000C94A123FB018081883229F030F480310E
:1019D00011F0823231F481E008958B33E1F38234E7
:1019E000D1F380E00895FC01728761871782108629
:1019F000108289E0838381E08483858386830895D0
:101A0000FC01168A158A11820C94F30CCF93DF9394
:101A1000EB0167E0CE010E94091A91E02F812813A3
:101A200090E0892FDF91CF910895EF92FF920F936D
:101A30001F93CF93DF938C017B01D42FFC01818511
:101A400092850E945519C0E041E0B701F8018185F7
:101A500092850E948519882329F0DC1729F0CF5F31
:101A6000DC1790F780E006C0B701C8010E94060DA0
:101A70008823A9F3DF91CF911F910F91FF90EF90F1
:101A80000895EF92FF920F931F93CF93DF938C01F2
:101A9000EB017A01FC01818592850E94411888231F
:101AA00011F1BE01F801818592850E94321940E052
:101AB0006EEBF801818592850E94E218E701F9E05A
:101AC000EF0EF11CF801818592850E941619899309
:101AD000CE15DF05B9F7F801818592850E9441187E
:101AE00091E0813009F090E0892FDF91CF911F9133
:101AF0000F91FF90EF9008950F931F93CF93DF9373
:101B0000EC018B0189859A850E94411889859A8507
:101B100001151105C9F40E94511940E064EB898553
:101B20009A850E94E21889859A850E94B718182F15
:101B300089859A850E94411881E0111180E0DF912A
:101B4000CF911F910F910895B8010E943219E5CFEE
:101B5000FC01818592850E94B71891E0813009F0DF
:101B600090E0892F08958950833048F4E82FF0E001
:101B7000EE0FFF1FE459FE4F8081918108958EEE94
:101B800092E00895FC012181222321F060E082810E
:101B90000C9423210895FC012181222321F061E08E
:101BA00082810C9423210895CF92DF92EF92FF92CD
:101BB0000F931F93CF93DF93EC01862F9D81992381
:101BC000D1F09881911117C00E9403206B017C0114
:101BD000CE010E94A80D811124C00E9403206C191F
:101BE0007D098E099F096E3E724081059105C8F4FA
:101BF0000E94B81FEDCF0E94B30D8C01CE010E9450
:101C0000C20DB80190E080E00E943420CE01DF9147
:101C1000CF911F910F91FF90EF90DF90CF900C9498
:101C2000CB0DDF91CF911F910F91FF90EF90DF903F
:101C3000CF900895CF93DF93EC0189859A850E9418
:101C4000411889859A850E945119488164E48985E3
:101C50009A850E94E2188C81882331F06B81CE0135
:101C6000DF91CF910C94D40DDF91CF910895FA01BB
:101C7000218130E0322F2227330F330F330F808141
:101C800048E0849FC0011124282B392BDB018C9163
:101C90008031D1F467816623B9F070E08681AB01B1
:101CA000481B5109CA019695982F882797958795C3
:101CB0000E9478286052710953E0220F331F5A9511
:101CC000E1F72078260F371FC9010895FB01460F61
:101CD000571FE417F50729F081918823D1F380E09D
:101CE000089581E008950F931F93CF93DF938C01A4
:101CF000EA010E94410D982F882381F049E050E0CD
:101D0000BE01C8010E94660E811107C068E0CE01C5
:101D10000E94091A91E02885281390E0892FDF910D
:101D2000CF911F910F910895CF93DF93CDB7DEB779
:101D300029970FB6F894DEBF0FBECDBFFB012081FF
:101D4000203199F0AE014F5F5F4F0E94730E8823E0
:101D500031F08D818F33A9F020F48F31A1F080E034
:101D600007C08F3521F08F37D1F78CE001C08BE0B1
:101D700029960FB6F894DEBF0FBECDBFDF91CF918D
:101D800008958AE0F5CF89E0F3CF0F931F93CF93A7
:101D9000DF93CDB7DEB728970FB6F894DEBF0FBE3E
:101DA000CDBF8C01FC01818592850E945519F801F7
:101DB0001782108641E0BE016F5F7F4FF801818579
:101DC00092850E948519882391F1BE016F5F7F4F34
:101DD000C8010E94060D882369F3F80187818F5F8F
:101DE0008783BE016F5F7F4FC8010E94E20C88238A
:101DF00009F3F80180858F5F8087808181110BC096
:101E0000BE016F5F7F4FC8010E947C0D882319F0CF
:101E100081E0F8018083BE016F5F7F4FC8010E949F
:101E2000940EF8019381981728F68383C3CF2896E0
:101E30000FB6F894DEBF0FBECDBFDF91CF911F91DB
:101E40000F910895EF92FF920F931F93CF93DF931B
:101E5000CDB7DEB729970FB6F894DEBF0FBECDBF62
:101E60008C017B01AE014F5F5F4F0E94730E882390
:101E7000A1F0AE014F5F5F4FB701C8010E94370E5E
:101E800029960FB6F894DEBF0FBECDBFDF91CF917C
:101E90001F910F91FF90EF90089580E894EEF0CF9E
:101EA0000E94220F813824EE92076CF0BC01990F3A
:101EB000880B990B0E94962620E030E040E05CE31E
:101EC0000E94B927089560E070E08EEF92EC0895CB
:101ED0000F931F93CF93DF93CDB7DEB728970FB63D
:101EE000F894DEBF0FBECDBF8C01462FBE016F5FE1
:101EF0007F4F0E94150D882389F0BE016F5F7F4FD1
:101F0000C8010E94500F28960FB6F894DEBF0FBE8E
:101F1000CDBFDF91CF911F910F91089560E070E0E8
:101F20008EEF92ECF0CF8E5D9E4FDC018D919C91F7
:101F3000DC01ED91FC910084F185E02D09948E5D2A
:101F40009E4FDC018D919C91DC01ED91FC91019003
:101F5000F081E02D09948E5D9E4FDC018D919C9166
:101F6000DC01ED91FC910284F385E02D09948E5DF6
:101F70009E4FDC018D919C91DC01ED91FC910484DC
:101F8000F585E02D09948E5D9E4FDC018D919C912D
:101F9000DC01ED91FC910680F781E02D0994FC01B4
:101FA0001382128288EE93E0A0E0B0E084839583F0
:101FB000A683B78386EC91E0918380836487DF01F9
:101FC000A95EBE4F8EE293E011969C938E9312967B
:101FD00011961C921E92129611961C921E921796A2
:101FE00011961C921E9215971C92119689E293E00D
:101FF0008D939C93E05EFE4F86E293E09183808315
:1020000008950F931F93CF93DF93EC0190E080E04E
:102010008C010F5F1F4F8897D8F4E881F981008405
:10202000F185E02DCE010995892B51F0E881F981E8
:102030000284F385E02DCE01099510E000E0EDCF9C
:1020400061E070E080E090E00E943420C801E0CFC1
:10205000DF91CF911F910F910895BF92CF92DF92A0
:10206000EF92FF920F931F93CF93DF938C017B012D
:10207000B42ED0E0C0E06C018EEDC81A8EEFD80A05
:10208000E114F10491F1CE3FD10578F5D6018D919F
:102090009C91DC01ED91FC910084F185E02D099586
:1020A000892BC1F0F60180819181DC01ED91FC91D9
:1020B0000284F385E02D09958D3041F38A3021F4B7
:1020C000209721F3BB2089F0F801EC0FFD1F8687D4
:1020D0002196DCCFB1E0EB1AF10839F061E070E055
:1020E00080E090E00E943420CBCFF801EC0FFD1F80
:1020F00016868C2FDF91CF911F910F91FF90EF905B
:10210000DF90CF90BF9008950F931F93CF93DF93ED
:10211000EC018B01BA0140E00E942D10B801CE0104
:102120000E960E94242B21E0892B09F020E0822FBB
:10213000DF91CF911F910F9108958F929F92AF924F
:10214000BF92CF92DF92EF92FF920F931F93CF93A4
:10215000DF938C017B01D0E0C0E0C42ED12C4C0178
:102160008EED881A8EEF980AE114F10491F1CC15E6
:10217000DD0578F55E01A3EFAA1AAEEFBA0AA00E4C
:10218000B11EF40180819181DC01ED91FC9100840C
:10219000F185E02D0995892B89F0F40180819181E9
:1021A000DC01ED91FC910284F385E02D0995F501A8
:1021B00081935F012196CC16DD0619F7F1E0EF1A45
:1021C000F10839F061E070E080E090E00E94342096
:1021D000CBCF0C0F1D1FF801E35FFE4F10828C2F39
:1021E000DF91CF911F910F91FF90EF90DF90CF90F3
:1021F000BF90AF909F908F900895AF92BF92CF9273
:10220000DF92EF92FF920F931F93CF93DF93EC0136
:102210006B01142F79015C018EEDA81A8EEFB80ABC
:1022200061EC70E0D5018D919C910E941C224AE0E6
:1022300050E0612FF501808191810E94482340E0A8
:1022400064EF71E0CE010E942D108E858E3391F5E2
:10225000D5018D919C91412F50E0DC01ED91FC91D5
:102260000280F381E02DB601099540E068E873E152
:10227000CE010E942D10402F60EA7FE0CE010E9427
:102280009D10C35FDE4FF70110E0CF018E199F094B
:102290008017910740F48991803819F410823196A3
:1022A000F4CF8083FCCFF7018081882319F08181EE
:1022B000843060F080E0DF91CF911F910F91FF900B
:1022C000EF90DF90CF90BF90AF90089581E0F3CF73
:1022D000EF92FF920F931F93CF93DF93EC017B015B
:1022E0008A010E940110FE01EE5DFE4FB701808160
:1022F00091810E94652240E0B801CE01DF91CF912B
:102300001F910F91FF90EF900C942D10EF92FF9280
:102310000F931F93CF93DF93EC017B018A010E94FF
:102320000110FE01EE5DFE4FB701808191810E9498
:10233000532240E0B801CE01DF91CF911F910F9160
:10234000FF90EF900C942D100F931F93CF93DF937A
:102350008C01EB0144EF51E066E772E00E948611C8
:10236000B801625F7F4F4FE050E0CE010E94742BB6
:102370001F8640E064EF71E0C8010E942D10FE014D
:1023800001900020E9F7CF0101978C1BDF91CF91DD
:102390001F910F9108958F929F92AF92BF92CF920B
:1023A000DF92EF92FF920F931F93CF93DF93EC0195
:1023B0006B0149015A010E9401107E018EEDE81A5D
:1023C0008EEFF80AB601F701808191810E941C22EC
:1023D0002AE030E0B501A401F701808191810E94DB
:1023E000222340E0B801CE01DF91CF911F910F91E0
:1023F000FF90EF90DF90CF90BF90AF909F908F9025
:102400000C942D10AF92BF92CF92DF92EF92FF9279
:102410000F931F93CF93DF938C015B016A017901C6
:102420000E940110E801CE5DDE4FB50188819981DF
:102430000E941C2262E2888199810E944822B60192
:10244000888199810E941C2262E2888199810E9480
:102450007C2240E0B701C801DF91CF911F910F911D
:10246000FF90EF90DF90CF90BF90AF900C942D1025
:102470000F931F93CF93DF93EC018A01A9010E9470
:102480008611882341F0B801CE010E960E94242BBC
:1024900021E0892B09F020E0822FDF91CF911F915D
:1024A0000F910895FC01E05EFE4F4081518124EFC1
:1024B00031E063E273E00E94381281E00895CF9228
:1024C000DF92EF92FF920F931F93CF93DF93EC0174
:1024D0007C018EEDE81A8EEFF80AD7016D937C939C
:1024E0008EE0C82ED12C8E01005E1E4FF701808138
:1024F0009181DC01ED91FC910084F185E02D09953D
:10250000892B59F0F70180819181DC01ED91FC91DB
:102510000284F385E02D0995E9CFF80140815181CE
:1025200024EF31E060E273E0CE010E9438128111A5
:102530005DC0D7018D919C91DC01ED91FC910084EF
:10254000F185E02D0995892B59F0F7018081918162
:10255000DC01ED91FC910284F385E02D0995E9CF32
:1025600024EF31E04AE153E06DE173E0CE010E94D7
:10257000381281113BC064EF71E080E090E00E946E
:102580003420B1E0CB1AD10809F0B0CFF801408176
:10259000518124EF31E067E173E0CE010E943812EF
:1025A00064E670E080E090E00E943420D8014D9114
:1025B0005C9124EF31E064E173E0CE010E943812B7
:1025C00064E670E080E090E00E943420F8014081F1
:1025D000518124EF31E061E173E0CE010E943812B5
:1025E00064E670E080E090E00E943420F8014081D1
:1025F000518124EF31E06CE073E0CE010E9438128B
:1026000064E670E080E090E00E943420D8014D91B3
:102610005C9124EF31E067E073E0CE010E94381254
:10262000D82E882379F18C85833651F0F8014081CA
:10263000518124EF31E06DEF72E0CE010E9438123B
:1026400064E670E080E090E00E943420CE010E94B9
:10265000011062E771E0D7018D919C910E94652283
:1026600041E064EF71E0CE010E942D108E01025F07
:102670001F4F64EF72E0C8010E94362B892B61F076
:1026800088E08D878D2DDF91CF911F910F91FF9065
:10269000EF90DF90CF9008956BEE72E0C8010E943A
:1026A000362B892B11F089E0ECCF62EE72E0C80185
:1026B0000E94362B892B11F08AE0E3CF69ED72E09E
:1026C000C8010E94362B892BE9F28BE0DACFAF925A
:1026D000BF92CF92DF92EF92FF920F931F93CF930F
:1026E000DF93EC015B016A010E94011028E833E1ED
:1026F0004EE251E066E371E0CE010E943812882379
:1027000009F460C07E0180EEE81A8EEFF80AF70146
:102710004081518124EF31E062E271E0CE010E94FC
:102720003812882309F44EC0F7014081518124EF0B
:1027300031E064E171E0CE010E943812882309F48F
:1027400041C060E071E08E010E5D1E4FF801808196
:1027500091810E941C22B501F801808191810E9423
:1027600040226CEF70E0F801808191810E941C2270
:102770004AE050E0B601F801808191810E945A231D
:102780006AEF70E0F801808191810E945322F70185
:102790006081718140E157E2CE010E94841088235C
:1027A00089F040E157E26FEE70E0CE01DF91CF910A
:1027B0001F910F91FF90EF90DF90CF90BF90AF905F
:1027C0000C94841080E0DF91CF911F910F91FF90C6
:1027D000EF90DF90CF90BF90AF90089528EB3BE053
:1027E0004AED50E063EE70E00C943812CF93DF9323
:1027F000EC01FC01E05EFE4F4081518128EC30E0AD
:102800006DEC70E00E9438128823E1F040E068EC43
:1028100070E0CE010E942D102E9666E771E0CE0189
:102820000E94642B892B91F061E871E0CE010E9437
:10283000642B892B69F06CE871E0CE010E94642B57
:10284000892B41F080E0DF91CF91089581E0FBCFAB
:1028500085E0F9CF8AE0F7CF0F931F93CF93DF93F3
:10286000EC018A01A9010E946811882341F0B80196
:10287000CE010E960E94242B21E0892B09F020E046
:10288000822FDF91CF911F910F910895EF92FF92C8
:102890000F931F93CF93DF93CDB7DEB765970FB636
:1028A000F894DEBF0FBECDBFF90101900020E9F71B
:1028B0003197E21BF30B359780F58C013F932F93F3
:1028C0001F924F931F926F9387E991E09F938F938D
:1028D0009E012F5F3F4F79013F932F930E948B2BD7
:1028E000F801E05EFE4F4081518124EF31E0B701F5
:1028F000C8010E942C140FB6F894DEBF0FBECDBFE6
:1029000065960FB6F894DEBF0FBECDBFDF91CF91B5
:102910001F910F91FF90EF90089580E0F1CF9F926B
:10292000AF92BF92CF92DF92EF92FF920F931F93DD
:10293000CF93DF93CDB7DEB768970FB6F894DEBFBD
:102940000FBECDBF7C01B42EA22E932E6C0120EEC3
:10295000C21A2EEFD20AF6014081518124EF31E0F4
:10296000662309F44DC066E972E00E9438128111B5
:1029700013C080E068960FB6F894DEBF0FBECDBFDF
:10298000DF91CF911F910F91FF90EF90DF90CF904B
:10299000BF90AF909F90089564E670E080E090E073
:1029A0000E943420F6014081518124EF31E06CE82F
:1029B00072E0C7010E9438128823D9F2BB20C9F205
:1029C0001F930F939F92AF921F92BF928CEA91E058
:1029D0009F938F938E010F5F1F4F1F930F930E9442
:1029E0008B2BF6014081518124EF31E0B801C70102
:1029F0000E942C140FB6F894DEBF0FBECDBFBACF25
:102A00006DE772E00E943812B5CFCF92DF92EF925D
:102A1000FF920F931F93CF93DF93EC01680187011F
:102A20000E94CB11B601CE010E960E94242B21E00C
:102A3000892B09F020E0822FDF91CF911F910F9118
:102A4000FF90EF90DF90CF900895EF92FF920F9359
:102A50001F93FC01E05EFE4F00811181262F30E0C4
:102A600050E040E064EFE62EFF24F39462EC72E065
:102A70000E9405151F910F91FF90EF900895EF921E
:102A8000FF920F931F93FC01E05EFE4F00811181C6
:102A9000262F30E050E040E064EFE62EFF24F39470
:102AA00069EB72E00E9405151F910F91FF90EF9066
:102AB0000895EF92FF920F931F93FC01E05EFE4F8B
:102AC00000811181262F30E050E040E064EFE62ED7
:102AD000FF24F3946FEA72E00E9405151F910F9195
:102AE000FF90EF900895EF92FF920F931F93FC01D8
:102AF000E05EFE4F00811181262F30E050E040E083
:102B000064EFE62EFF24F39465EA72E00E94051557
:102B10001F910F91FF90EF900895EF92FF920F9306
:102B20001F93CF93DF93EC01790198010E94021269
:102B3000B701CE010E960E94242B21E0892B09F0CB
:102B400020E0822FDF91CF911F910F91FF90EF90A6
:102B50000895AF92BF92CF92DF92EF92FF920F93C0
:102B60001F93CF93DF93EC0120E23EE4662309F448
:102B7000EEC041E352E069E372E00E9438127E0148
:102B800080EEE81A8EEFF80AF7014081518120E1CA
:102B900037E264E272E0CE010E943812882309F421
:102BA000CAC0F7014081518120E137E266E072E05E
:102BB000CE010E943812882309F4BDC068EC70E091
:102BC00080E090E00E9434206E01F9EECF1AFEEF13
:102BD000DF0AF601408151814115510509F5F701E0
:102BE0004081518120E335E762EB71E0CE010E9424
:102BF0003812882309F49FC0F7014081518120E1F8
:102C000037E269EA71E0CE01DF91CF911F910F9118
:102C1000FF90EF90DF90CF90BF90AF900C94381260
:102C2000F7012081318100E117E262EF71E0CE010E
:102C30000E948D15882309F47EC0CE010E940110E8
:102C40008E010E5D1E4F68EE71E0F801808191816A
:102C50000E941C22F60160817181F80180819181BE
:102C60000E941C225E01F7EEAF1AFEEFBF0AF501CB
:102C700080819181892B79F06EEB71E0F801808180
:102C800091810E944022F50160817181F80180816B
:102C900091810E941C226E01F5EECF1AFEEFDF0A31
:102CA000F60180819181892B79F06EEB71E0F8015A
:102CB000808191810E944022F60160817181F8013A
:102CC000808191810E941C2260EC71E0F80180817A
:102CD00091810E946522F7016081718140E157E294
:102CE000CE010E948410882331F1F5014081518189
:102CF00041155105A1F4F60140815181411551055D
:102D000009F46DCFF7012081318100E117E26FEB0B
:102D100071E0CE010E948D15811161CF0CC0F701C9
:102D20002081318100E117E263ED71E0CE010E9464
:102D30008D158111E0CF80E0DF91CF911F910F9130
:102D4000FF90EF90DF90CF90BF90AF90089546E94D
:102D500051E06EE971E00E943812882361F38E0120
:102D6000005E1E4FF8014081518120E137E269E8A1
:102D700071E0CE010E9438128823E9F2F801408107
:102D8000518120E137E26EE771E03DCF0F931F9351
:102D9000FC01E95EFE4F718360833296518340836C
:102DA000329631832083FC012585283058F0AB0111
:102DB000E05EFE4F2081318100E117E261E471E0C5
:102DC0000E948D151F910F910895AF92BF92CF92DF
:102DD000DF92EF92FF920F93CF93DF935B016A0133
:102DE000E22E0E960E94362BEC01892B19F1C501BB
:102DF0000E942D2B8C0F9D1FC0E00E2C000CFF0895
:102E0000C01741F0B7010E94592B009799F0019625
:102E1000CF5FF6CF0E94062BF6019183808381E07D
:102E2000DF91CF910F91FF90EF90DF90CF90BF9007
:102E3000AF90089580E0F4CFAF92BF92CF92DF922F
:102E4000EF920F931F93CF93DF93EC016A01590127
:102E5000102F0E2D44EF51E00E948611212FA50165
:102E6000B601CE010E94E516182F882331F040E00C
:102E700064EF71E0CE010E942D10812FDF91CF9180
:102E80001F910F91EF90DF90CF90BF90AF9008957A
:102E9000EF920F939B0142E0E42E0CE24BEC52E0E8
:102EA00062ED72E00E941C170F91EF900895EF926F
:102EB0000F93CF93DF9300D0CDB7DEB7FC0125850C
:102EC000EE24E3940CE22830A8F09E012F5F3F4FE0
:102ED00043E652E06CE672E00E941C17882341F042
:102EE00089810F900F90DF91CF910F91EF9008950E
:102EF00080E0F7CF9E012F5F3F4F42E552E06AE549
:102F000072E0EACFEF920F93CF93DF9300D0CDB76B
:102F1000DEB7E12C0CE29E012F5F3F4F44E452E00C
:102F20006BE472E00E941C17882341F089810F90A6
:102F30000F90DF91CF910F91EF90089580E0F7CF40
:102F4000EF920F93CF93DF9300D0CDB7DEB7E12C94
:102F50000CE29E012F5F3F4F4BE651E064E771E0CA
:102F60000E941C17882341F089810F900F90DF91F8
:102F7000CF910F91EF9008958FEFF7CFEF920F93CE
:102F8000CF93DF9300D0CDB7DEB7E12C0CE29E01EA
:102F90002F5F3F4F44E551E06FE571E00E941C1741
:102FA000882341F089810F900F90DF91CF910F918D
:102FB000EF9008958FEFF7CF4115510529F4EAE717
:102FC000F0E080818F7780836A307105B9F0CB01A2
:102FD000880F991F880F991F807267706860682B2F
:102FE00088E10FB6F894A895809360000FBE6093B7
:102FF0006000E0E6F0E0808180648083232BD9F4D8
:1030000083B7817F846083BFF89483B7816083BF77
:1030100085B7806685BF8F7D85BF7894889583B797
:103020008E7F83BF7894452B29F4EAE7F0E0808116
:1030300080688083089583B7817F846083BFF8941C
:1030400083B7816083BF7894889583B78E7F83BF71
:103050007894E9CF1F920F920FB60F9211248F939D
:103060000FB6F894A8958091600088618093600005
:10307000109260000FBE8F910F900FBE0F901F90A7
:103080001895FF920F931F93CF93DF93FC0110814C
:10309000C181D281F8948981012F00958023898391
:1030A00078948DE7F82EFA94FF2061F182E090E0A9
:1030B0000E946D2088818123B1F3F8948A81802356
:1030C0008A838981812B8983789480EE91E00E94A4
:1030D0006D20F89489818023898386E490E00E94A2
:1030E0006D2088811823C1E009F0C0E078948AE956
:1030F00091E00E946D208C2FDF91CF911F910F9155
:10310000FF900895C0E0F7CF1F93CF93DF93FC01AA
:103110001081C181D281912F909560FF16C0F894E3
:103120008A8189238A838981812B89838AE090E03F
:103130000E946D208A81182B1A83789487E390E08F
:10314000DF91CF911F910C946D20F8948A8189238F
:103150008A838981812B898381E490E00E946D209C
:103160008A81182B1A83789485E090E0E9CF0F9339
:103170001F93CF93DF93FC011081C181D281F8941A
:103180008981812B89838A81012F009580238A83FD
:1031900083E090E00E946D208981802389838AE00A
:1031A00090E00E946D20C881789485E390E00E94B1
:1031B0006D201C2381E009F480E0DF91CF911F9105
:1031C0000F910895DF92EF92FF920F931F93CF9389
:1031D000DF93EC01D62EE42E08E010E0FF24F394F8
:1031E00061E08D2D8F2109F460E0CE010E948418EA
:1031F000FF0C01501109A1F7E11010C0F894E9810A
:10320000FA8191818881809589238183E981FA817E
:10321000928188818095892382837894DF91CF91F0
:103220001F910F91FF90EF90DF900895EF92FF9222
:103230000F931F93CF93DF937C0108E010E0C0E071
:10324000D1E0C7010E94B7188111CD2BDD0F0150CD
:103250001109B9F78C2FDF91CF911F910F91FF903A
:10326000EF900895EF92FF920F931F93CF93DF9308
:103270008C017B0140E065E50E94E218E70188E0EF
:10328000E80EF11C699140E0C8010E94E218CE15D9
:10329000DF05C1F7DF91CF911F910F91FF90EF9064
:1032A000089540E06CEC0C94E218FC01138615863E
:1032B0001486128611861086178216821582148251
:1032C000138208951F93CF93DF93EC01162F60E0D4
:1032D000812F0E94E720612F70E0FB01EA59FC4F2B
:1032E000E491E883FB01E358FC4FE491F0E0EE0F3A
:1032F000FF1FEC56FC4F859194919A838983CE01F0
:10330000DF91CF911F910C945519BF92CF92DF920C
:10331000EF92FF920F931F93CF93DF93EC01B62EA2
:10332000C72E142F8D85811105C0CE010E94411832
:1033300081110EC01B861D861C8680E0DF91CF9117
:103340001F910F91FF90EF90DF90CF90BF90089565
:1033500040E060EF111101C06CEECE010E94E21856
:1033600001E0E12CD12C11E0CE010E94B718F82E1B
:10337000CE010E94B71891E0F91218C0813099F57A
:103380001134C0F2DB86D11002C081E08D878B81C1
:10339000882381F22396EB2DFC2DCF0108962991ED
:1033A0002193E817F907D9F781E0C8CFEE2DF0E0B7
:1033B000F8120FC08B851817A0F4DE01AE0FBF1FE7
:1033C00013968C91802379F4F12C193008F41C8722
:1033D000D12EEC0FFD1F8381902F9095892383833D
:1033E0000AC08113F1CFFE01EE0DF11D8381802B08
:1033F0008383FF24F3946F2DCE010E9484181F5FF6
:10340000000F11F4E39401E087E08E1508F0ACCFD3
:10341000B7CFDC0180E0615090F09D919827E92FB3
:10342000EF70F0E0E15DFC4F2491E92FE295EF7041
:10343000F0E0E15CFC4FE491822F8E27ECCF089501
:103440001F920F920FB60F9211242F933F934F9319
:103450005F936F937F938F939F93AF93BF93EF93FC
:10346000FF93E0912504F09126040995FF91EF91D7
:10347000BF91AF919F918F917F916F915F914F918C
:103480003F912F910F900FBE0F901F901895809134
:10349000590490915A04891B990B089590915A04EC
:1034A000809159042FEF3FEF981748F4E92FF0E08F
:1034B000E55AFB4F208130E09F5F90935A04C90189
:1034C0000895E0915A0480915904E81730F4F0E02F
:1034D000E55AFB4F808190E008958FEF9FEF0895AC
:1034E0000895CF93DF931F92CDB7DEB76983209104
:1034F00036042223F9F020913704203258F021E0DD
:1035000030E0FC013383228390E080E00F90DF9174
:10351000CF91089580913804E82FF0E0E75CFB4FED
:10352000998190838F5F809338048093370481E082
:1035300090E0ECCF61E0CE0101960E94DE1AF7CF59
:10354000CF92DF92EF92FF920F931F93CF93DF936F
:103550007C01CB018A0120913604222389F0EB0102
:103560006B01C40ED51ECC15DD0569F06991D7013C
:10357000ED91FC910190F081E02DC7010995F3CF09
:10358000642F0E94DE1AC801DF91CF911F910F9125
:10359000FF90EF90DF90CF900895EAE2F4E013827D
:1035A000128288EE93E0A0E0B0E084839583A68346
:1035B000B78388ED91E091838083089520919D04E5
:1035C000260F3327331F21323105ECF42091E80414
:1035D000FC0190E080E0243069F082E00895A09141
:1035E0009D042191AC0141565B4FA40FB52FB11D35
:1035F0002C930196861798F380919D04680F609331
:103600009D0480E0089581E0089585ED8093BC00DD
:103610008091BC0084FDFCCF1092E804089585ECF5
:103620008093BC001092E80408951F920F920FB689
:103630000F9211242F933F934F935F936F937F9338
:103640008F939F93AF93BF93EF93FF938091B900B4
:10365000887F803609F44CC008F03FC0883209F4F6
:10366000A8C018F5803109F49CC0B8F4882309F487
:10367000F9C0883009F495C0FF91EF91BF91AF91E7
:103680009F918F917F916F915F914F913F912F917A
:103690000F900FBE0F901F901895883109F489C0C4
:1036A000803251F780937B0415C0803409F49EC0AA
:1036B00048F48033B9F38833F9F680937B040E9491
:1036C0000F1BDACF803509F485C0883509F496C020
:1036D000883491F60E94051BCFCF883909F48CC03D
:1036E00038F5883729F050F4883611F0803721F604
:1036F00083E08093E80410927C0457C0883809F472
:103700007BC0803919F0803809F0B6CF80917C04F5
:10371000803208F071C0E0917C0481E08E0F8093CC
:103720007C048091BB00F0E0E358FB4F80833DC0F8
:10373000803B39F0E0F4803A09F479C0883A09F026
:103740009BCF84E08093E80410929E0410929D0425
:10375000E091E304F091E404099580919D048111C6
:103760000FC081E080939D0410929F0409C0803CAB
:1037700009F476C0883C09F473C0883B09F07CCF1B
:10378000E0919E0481E08E0F80939E04F0E0E1566C
:10379000FB4F80818093BB0090919E0480919D049B
:1037A00029C08091E7048093BB0085EC8093BC0026
:1037B00063CF9091C0048091BF04981758F5E091B1
:1037C000C00481E08E0F8093C004F0E0EF53FB4F04
:1037D0008081E9CFE091C00481E08E0F8093C00426
:1037E0008091BB00F0E0EF53FB4F80839091C004C9
:1037F0008091BF049817C8F285E8D8CFE091C00443
:1038000081E08E0F8093C0048091BB00F0E0EF5305
:10381000FB4F80838091E60481115CCF81E080932F
:10382000E50484EA8093BC001092E80425CF0E944E
:103830000F1B80917C04803230F4E0917C04F0E036
:10384000E358FB4F108260917C0470E0E091E1044A
:10385000F091E2048DE794E0099510927C040CCF7E
:1038600085ECE0CF10927B0435CF90E080E00895A6
:1038700008952091ED048091EE04821769F030E004
:10388000F901E151FB4F80812F5F3F4F2F773327A5
:103890002093ED0490E008958FEF9FEF0895CF936C
:1038A000DF93DC018091760590917705892B09F4EF
:1038B00045C01C969C911C97EDE6F0E0983078F09E
:1038C0009E3058F0943130F0963138F0F0E0E0E07E
:1038D000963129F4ECE6F0E002C0EBE6F0E05FB7E9
:1038E000F8941092770510927605309731F11C9676
:1038F0002C911C97D0E0C0E0273110F4C8E6D0E04E
:1039000088819BEF283048F02E3030F09DEF243135
:1039100020F09FEF263108F49EEF98239883408192
:103920001C962C91283068F481E090E001C0880F4B
:103930002A95EAF78095842380835FBFDF91CF913A
:1039400008952E3018F42850330BEECF263118F49A
:103950002E50330BE9CF8FEB263169F38FEFEBCF8E
:103960000F931F93CF93DF93EC0180917605909195
:103970007705009711F00E944F1C60E08C850E9433
:10398000E7208C8590E0FC01EA59FC4FE491E0933C
:10399000EC04FC01E358FC4FE491F0E0EE0FFF1F54
:1039A000EC56FC4F859194919F878E878D8590E092
:1039B000FC01EA59FC4F24912093EB04FC01E358ED
:1039C000FC4FE491F0E0EE0FFF1FE256FC4FA59193
:1039D000B491B093EA04A093E904109719F0EC9124
:1039E000E22BEC9361E08D850E94E7201092B000FD
:1039F00083E08093B1008C85883070F08E3008F4BD
:103A000058C0843130F0863108F453C0863109F053
:103A10004BC00CE610E002C00DE610E08FEF809383
:103A200072051092ED041092EE04E881F98106808F
:103A3000F781E02DCE0109958889998981152BE4BC
:103A4000920709F440C0C0F58038954209F443C09C
:103A50004FB7F894F80190812C85283008F045C0C4
:103A600081E001C0880F2A95EAF7892BF80180834D
:103A70009C85F0E0E0E0973110F4E8E6F0E020818A
:103A800084E0983050F081E09E3038F082E094314C
:103A900020F081E0963108F080E0822B8083D09383
:103AA0007705C09376054FBFDF91CF911F910F919E
:103AB00008950BE610E0B2CF82312AE7920719F0A1
:103AC0008115964929F68DE0809375058EE48093E3
:103AD000730586E007C08AE18093750587E28093CD
:103AE00073058AE080937405B3CF2E3018F4285004
:103AF000330BB6CF263118F42E50330BB1CF80E400
:103B0000263109F4B2CF80E0B0CF603825E27207E9
:103B100021F06115EBE47E0789F4FC0120893189ED
:103B20002617370759F0718B608B209176053091FD
:103B300077058217930711F40C94B01C0895CF9366
:103B4000DF93EC010E94851DCE01DF91CF910C9493
:103B5000B01C1092720581E08093700510926F0581
:103B60000895E0917605F09177053097C1F00288CD
:103B7000F389E02D309709F009942091EE0430E0AC
:103B8000A9014F5F5F4F4F7755279091ED04941730
:103B900031F021513B4FF90180834093EE040895A9
:103BA000EF92FF920F931F93CF93DF93E090B200B9
:103BB000F090EC04F822909172059F3F69F4F110A7
:103BC00004C00E94A91DE0927105DF91CF911F9161
:103BD0000F91FF90EF900895C0917405CE0D8091E4
:103BE0007105C81B80917305C89FE0011124CD2F7A
:103BF000DD27C695C69529E0291B022F10E00C177A
:103C00001D0708F02C2F920F9093720540917005BC
:103C100080916F05F11011C02150342F330F2F3FC9
:103C200019F0842B432FF8CF80936F0530937005E4
:103C3000983048F20E94B11D13C02150330B01C0CF
:103C4000440F2A95EAF740937005842B80936F0503
:103C5000983008F4B8CF0E94B11D81E0F81621F029
:103C60000C171D0708F4ADCF8FEF80937205ABCF13
:103C7000CF93DF93EC01309172053F3F99F1AE8510
:103C8000BF858C919091EC04892361F12091B20061
:103C900099E0931B80917405280F80917105281B72
:103CA00080917305289F90011124232F3327269597
:103CB000269592171306B0F480916F052091700538
:103CC000915018F0822B220FFBCF80936F05209329
:103CD0007005909372050E94B11D81E02A893B898D
:103CE000232B09F080E0DF91CF9108959C01809112
:103CF000EE049091ED04891B990B80589F4F60E86A
:103D000070E00E947828811105C0C901F8940E94D2
:103D1000381E789490E00895CF92DF92EF92FF9250
:103D20000F931F93CF93DF938C01E62E8091E904CC
:103D30009091EA04892B09F454C0D8011C968C9107
:103D4000C4E0883050F0C1E08E3038F0C2E08431F9
:103D500020F0C1E0863108F0C0E0CFB6F894D091F1
:103D6000B2008AE0D82E90E0E091E904F091EA04F4
:103D70008091EB04DA94DD2039F19923C1F0908130
:103D8000892B8083F09075058091B2008D1B8F1573
:103D9000B0F48BB38C2379F08BB38C2B8BBBD80115
:103DA0001E96ED91FC9180810E94D01DEDCF9081F7
:103DB00080958923E6CFC8010E94381EE5CFDF0D2C
:103DC0009E2D9170E694D0CF9081892B8083CFBEB9
:103DD0008091B2008D1B8F1578F4C8010E94381EA7
:103DE000F7CF90E080E0DF91CF911F910F91FF908E
:103DF000EF90DF90CF90089581E090E0F4CF1F9294
:103E00000F920FB60F9211242F933F934F935F930E
:103E10006F937F938F939F93AF93BF93EF93FF9392
:103E200083B10E94D01DFF91EF91BF91AF919F91FF
:103E30008F917F916F915F914F913F912F910F9053
:103E40000FBE0F901F9018951F920F920FB60F92F2
:103E500011242F933F934F935F936F937F938F938F
:103E60009F93AF93BF93EF93FF9386B10E94D01DB2
:103E7000FF91EF91BF91AF919F918F917F916F9142
:103E80005F914F913F912F910F900FBE0F901F9018
:103E9000189508958230E8F4E82FF0E0EE0FFF1F48
:103EA000E95CFE4F71836083813041F0809169004D
:103EB0008C7F482B40936900E89A089580916900AF
:103EC000837F440F551F440F551F482B40936900B3
:103ED000E99A08951F920F920FB60F9211242F9313
:103EE0003F934F935F936F937F938F939F93AF9382
:103EF000BF93EF93FF93E0913701F091380109955B
:103F0000FF91EF91BF91AF919F918F917F916F91B1
:103F10005F914F913F912F910F900FBE0F901F9087
:103F200018951F920F920FB60F9211242F933F9363
:103F30004F935F936F937F938F939F93AF93BF93B1
:103F4000EF93FF93E0913901F0913A010995FF91C8
:103F5000EF91BF91AF919F918F917F916F915F9101
:103F60004F913F912F910F900FBE0F901F9018957A
:103F700008951F920F920FB60F9211242F933F9323
:103F80008F939F93AF93BF9380917D0590917E0512
:103F9000A0917F05B091800530917C0526E0230F2C
:103FA0002D3768F129E8230F0396A11DB11D209339
:103FB0007C0580937D0590937E05A0937F05B0934B
:103FC00080058091780590917905A0917A05B0914E
:103FD0007B050196A11DB11D80937805909379050D
:103FE000A0937A05B0937B05BF91AF919F918F917C
:103FF0003F912F910F900FBE0F901F901895029632
:10400000A11DB11DD4CF2FB7F89460917D0570919B
:104010007E0580917F05909180052FBF08953FB761
:10402000F8948091780590917905A0917A05B091E6
:104030007B0526B5A89B05C02F3F19F00196A11D51
:10404000B11D3FBFBA2FA92F982F8827BC01CD01E2
:10405000620F711D811D911D43E0660F771F881F40
:10406000991F4A95D1F708958F929F92AF92BF9270
:10407000CF92DF92EF92FF926B017C010E940F20A2
:104080004B015C01C114D104E104F104E9F00E9488
:10409000B81F0E940F20681979098A099B09683E98
:1040A00073408105910570F321E0C21AD108E1083F
:1040B000F10888EE880E83E0981EA11CB11CC11483
:1040C000D104E104F10429F7FF90EF90DF90CF9045
:1040D000BF90AF909F908F900895000000008330B4
:1040E000910528F0880F991F05970197F1F708951A
:1040F000789484B5836084BD85B5836085BDEEE624
:10410000F0E0808181608083E1E8F0E082E08083FC
:10411000808181608083E0E8F0E08081816080833D
:10412000E1EBF0E0808184608083E0EBF0E080816F
:104130008160808386E880937A001092C1000895A0
:10414000883020F08D3008F48DE08E5020913B01B6
:1041500090E4299F900111248770822B80937C002A
:1041600080917A00806480937A0080917A0086FD45
:10417000FCCF80917800909179000895843081F08F
:1041800028F48230E9F08330F9F00895883071F036
:10419000893091F08530B9F4809180008F7D03C023
:1041A000809180008F778093800008958091B00087
:1041B0008F778093B00008958091B0008F7DF9CF04
:1041C00084B58F7784BD089584B58F7DFBCFCF9361
:1041D000DF9390E0FC01EA59FC4F249183589C4FF7
:1041E000FC0184918823C9F090E0880F991FFC019D
:1041F000E855FC4FA591B491FC01E256FC4FC591E6
:10420000D49161110DC09FB7F8948C9120958223B1
:104210008C938881282328839FBFDF91CF910895B5
:10422000623051F49FB7F8943C91822F809583239C
:104230008C93E8812E2BEFCF8FB7F894EC912E2B37
:104240002C938FBFEACF1F93CF93DF93282F30E0BB
:10425000F901E15BFC4F8491F901EA59FC4FD491DB
:10426000F901E358FC4FC491CC23A9F0162F81111A
:104270000E94BE20EC2FF0E0EE0FFF1FE256FC4F35
:10428000A591B4918FB7F894EC91111108C0D09515
:10429000DE23DC938FBFDF91CF911F910895DE2B3A
:1042A000F8CF1F920F920FB60F9211242F938F9376
:1042B0009F93EF93FF93E0919105F0919205808198
:1042C000E0919705F091980582FD1BC09081809147
:1042D0009A058F5F8F7320919B05821741F0E091C3
:1042E0009A05F0E0EF57FA4F958F80939A05FF916A
:1042F000EF919F918F912F910F900FBE0F901F9074
:1043000018958081F4CF1F920F920FB60F9211244F
:104310002F933F934F935F936F937F938F939F93CD
:10432000AF93BF93EF93FF9381E895E00E948024C1
:10433000FF91EF91BF91AF919F918F917F916F917D
:104340005F914F913F912F910F900FBE0F901F9053
:10435000189581E895E00E94352421E0892B09F425
:1043600020E0822F0895E1E8F5E01382128288EEC2
:1043700093E0A0E0B0E084839583A683B7838FEFBA
:1043800091E09183808385EC90E09587848784EC2D
:1043900090E09787868780EC90E0918B808B81EC12
:1043A00090E0938B828B82EC90E0958B848B86ECF3
:1043B00090E0978B868B118E128E138E148E08953B
:1043C000AF92BF92CF92DF92EF92FF920F931F9323
:1043D000CF93DF936C017B018B01040F151FEB0161
:1043E0005E01AE18BF08C017D10759F06991D60118
:1043F000ED91FC910190F081E02DC6010995892B8A
:1044000079F7C501DF91CF911F910F91FF90EF9048
:10441000DF90CF90BF90AF900895FB0101900020F6
:10442000E9F73197AF01461B570BDC01ED91FC9189
:104430000280F381E02D0994EF92FF920F931F9376
:10444000CF93DF938C017B01D0E0C0E0F701EC0F4C
:10445000FD1F6491662361F0D801ED91FC910190FC
:10446000F081E02DC8010995892B11F02196EECF3E
:10447000CE01DF91CF911F910F91FF90EF900895A2
:104480006115710511F00C940D2290E080E0089503
:10449000DC01ED91FC910190F081E02D099468EF31
:1044A00071E00C940D220F931F93CF93DF93EC01D7
:1044B0000E941C228C01CE010E944F22800F911F6E
:1044C000DF91CF911F910F9108950F931F93CF9379
:1044D000DF938C01D0E0C0E06115710519F00E94F6
:1044E0000D22EC01C8010E944F228C0F9D1FDF910D
:1044F000CF911F910F9108950F931F93CF93DF9347
:10450000EC010E9448228C01CE010E944F22800FB4
:10451000911FDF91CF911F910F9108958F929F92DC
:10452000AF92BF92EF92FF920F931F93CF93DF93BF
:10453000CDB7DEB7A1970FB6F894DEBF0FBECDBFE3
:104540007C01FA01CB0119A2223008F42AE08E0185
:104550000F5D1F4F822E912CB12CA12CBF01A50104
:1045600094010E948C28F901CA016A300CF5605D43
:10457000D8016E938D01232B242B252B79F790E006
:1045800080E0109721F0BD01C7010E940D22A19685
:104590000FB6F894DEBF0FBECDBFDF91CF911F9154
:1045A0000F91FF90EF90BF90AF909F908F900895E4
:1045B000695CDECFCF92DF92EF92FF920F931F9351
:1045C000CF93DF932115310581F4DC01ED91FC914E
:1045D0000190F081E02D642FDF91CF911F910F9119
:1045E000FF90EF90DF90CF9009942A30310501F5CC
:1045F0002AE077FF1DC06A017B01EC016DE20E9499
:1046000048228C0144275527BA014C195D096E09CF
:104610007F092AE0CE010E948E22800F911FDF9138
:10462000CF911F910F91FF90EF90DF90CF90089561
:10463000DF91CF911F910F91FF90EF90DF90CF907E
:104640000C948E220F931F93CF93DF93EC010E9463
:10465000DA228C01CE010E944F22800F911FDF9140
:10466000CF911F910F9108952115310541F4DC017F
:10467000ED91FC910190F081E02D642F09940C9450
:104680008E229A01462F50E070E060E00C943423B3
:104690000F931F93CF93DF93EC010E9441238C0172
:1046A000CE010E944F22800F911FDF91CF911F9169
:1046B0000F9108959A01AB0170E060E00C943423EF
:1046C0004F925F926F927F92AF92BF92CF92DF92A2
:1046D000EF92FF920F931F93CF93DF93CDB7DEB787
:1046E00029013A019B01AC012419350946095709F2
:1046F00089899A89AB89BC89BC01CD016A197B097A
:104700008C099D090E945428A80197012419350994
:10471000460957090E94AE28CA01B9016A0D7B1DDE
:104720008C1D9D1DDF91CF911F910F91FF90EF90F8
:10473000DF90CF90BF90AF907F906F905F904F9041
:104740000895FC01808191810C94C029CF93DF935F
:10475000EC0188819981009711F00E94C02919828B
:1047600018821D821C821B821A82DF91CF910895CC
:104770000F931F93CF93DF93EC018B016F5F7F4FFC
:10478000888199810E94492A009751F099838883F2
:104790001B830A8381E0DF91CF911F910F910895D0
:1047A00080E0F9CFCF93DF93EC0188819981892B49
:1047B00049F08A819B818617970720F081E0DF917D
:1047C000CF910895CE010E94B8238823C1F38C8134
:1047D0009D81892B99F7E881F9811082EFCFEF92C3
:1047E000FF920F931F93CF93DF93EC017B018A011C
:1047F000BA010E94D22381110BC0CE010E94A623D0
:10480000CE01DF91CF911F910F91FF90EF9008950E
:104810001D830C83B701888199810E946D2BF0CF95
:10482000FC0111821082138212821582148261159A
:10483000710551F0FB0101900020E9F73197AF01BC
:10484000461B570B0C94EF23089508950E9478207F
:104850000E9425240E945904C2E7D4E20E94FB0B67
:104860002097E1F30E947224F9CFFC01918D228DF3
:10487000892F90E0805C9F4F821B91098F7399274D
:104880000895FC01918D828D981731F0828DE80F8B
:10489000F11D858D90E008958FEF9FEF0895FC0145
:1048A000918D828D981761F0A28DAE0FBF2FB11D33
:1048B0005D968C91928D9F5F9F73928F90E008958B
:1048C0008FEF9FEF0895FC01538D448D252F30E02D
:1048D000842F90E0821B930B541710F0CF9608950D
:1048E0000197089589EA91E2892B49F080E090E0F0
:1048F000892B29F00E94A92181110C9400000895B0
:10490000FC01A48DA80FB92FB11DA35ABF4F2C9144
:10491000848D90E001968F739927848FA689B7893B
:104920002C93A089B1898C9180648C93938D848D14
:10493000981306C00288F389E02D80818F7D8083E3
:104940000895CF93DF93EC01888D8823B9F0AA896D
:10495000BB89E889F9898C9185FD03C0808186FD3A
:104960000DC00FB607FCF7CF8C9185FFF2CF808189
:1049700085FFEDCFCE010E948024E9CFDF91CF915A
:104980000895EF92FF920F931F93CF93DF93EC0163
:1049900081E0888F9B8D8C8D981316C0E889F989EA
:1049A000808185FF11C0EE89FF896083E889F989DC
:1049B00080818064808381E090E0DF91CF911F91BE
:1049C0000F91FF90EF900895F62E0B8D10E00F5F82
:1049D0001F4F0F731127E02E8C8D8E110CC00FB658
:1049E00007FCFACFE889F989808185FFF5CFCE01F0
:1049F0000E948024F1CFEB8DEC0FFD2FF11DE35AC7
:104A0000FF4FF0820B8FEA89FB8980818062D2CFD1
:104A10005058BB27AA270E9420250C945E270E948D
:104A2000252738F00E942C2720F039F49F3F19F4F5
:104A300026F40C94FB260EF4E095E7FB0C94F52687
:104A4000E92F0E94832758F3BA1762077307840778
:104A5000950720F079F4A6F50C94A5270EF4E095BF
:104A60000B2EBA2FA02D0B01B90190010C01CA0128
:104A7000A0011124FF27591B99F0593F50F4503ED3
:104A800068F11A16F040A22F232F342F4427585FC5
:104A9000F3CF469537952795A795F0405395C9F7DD
:104AA0007EF41F16BA0B620B730B840BBAF0915095
:104AB000A1F0FF0FBB1F661F771F881FC2F70EC034
:104AC000BA0F621F731F841F48F487957795679507
:104AD000B795F7959E3F08F0B0CF9395880F08F0F3
:104AE0009927EE0F9795879508950E94252760F0E6
:104AF00080E891E009F49EEF0E942C2728F040E81E
:104B000051E071F45EEF0CC00C94FB260C94A527C9
:104B1000E92FE0780E94832740F3092E052AB1F39C
:104B2000261737074807590738F00E2E07F8E025F3
:104B300069F0E025E0640AC0EF6307F8009407FA23
:104B4000DB01B9019D01DC01CA01AD01EF930E94B7
:104B500003260E945E270E94B8255F91552339F0F5
:104B60002BED3FE049E450FD49EC0C9409250895F4
:104B7000DF93DD27B92FBF7740E85FE316161706EE
:104B800048075B0718F4D92F0E94B1279F938F9392
:104B90007F936F930E942E28E8E6F0E00E94FE26A5
:104BA0000E945E272F913F914F915F910E94CC27E9
:104BB000DD2351F09058A2EA2AED3FE049EC5FE393
:104BC000D0785D270E942025DF910C945E270E94FB
:104BD0003527E3950C946F270E9400260C945E27DE
:104BE0000E942C2758F00E94252740F029F45F3FAF
:104BF00029F00C94F52651110C94A6270C94FB2651
:104C00000E94832768F39923B1F3552391F3951BF1
:104C1000550BBB27AA2762177307840738F09F5FDD
:104C20005F4F220F331F441FAA1FA9F335D00E2E4A
:104C30003AF0E0E832D091505040E695001CCAF7B7
:104C40002BD0FE2F29D0660F771F881FBB1F26177A
:104C500037074807AB07B0E809F0BB0B802DBF0151
:104C6000FF2793585F4F3AF09E3F510578F00C9420
:104C7000F5260C94A6275F3FE4F3983ED4F386957F
:104C800077956795B795F7959F5FC9F7880F911D41
:104C90009695879597F90895E1E0660F771F881F2D
:104CA000BB1F621773078407BA0720F0621B730BE0
:104CB000840BBA0BEE1F88F7E09508950E946526D5
:104CC0006894B1110C94A62708950E948B2788F050
:104CD0009F5798F0B92F9927B751B0F0E1F0660FC0
:104CE000771F881F991F1AF0BA95C9F714C0B13001
:104CF00091F00E94A527B1E008950C94A527672F95
:104D0000782F8827B85F39F0B93FCCF3869577952F
:104D10006795B395D9F73EF4909580957095619518
:104D20007F4F8F4F9F4F0895E89409C097FB3EF443
:104D300090958095709561957F4F8F4F9F4F9923E8
:104D4000A9F0F92F96E9BB279395F6958795779566
:104D50006795B795F111F8CFFAF4BB0F11F460FF26
:104D60001BC06F5F7F4F8F4F9F4F16C0882311F07E
:104D700096E911C0772321F09EE8872F762F05C092
:104D8000662371F096E8862F70E060E02AF09A952D
:104D9000660F771F881FDAF7880F9695879597F922
:104DA0000895990F0008550FAA0BE0E8FEEF1616BC
:104DB0001706E807F907C0F012161306E407F5070F
:104DC00098F0621B730B840B950B39F40A2661F083
:104DD000232B242B252B21F408950A2609F4A14026
:104DE000A6958FEF811D811D089597F99F6780E833
:104DF00070E060E008959FEF80EC0895DF93CF931B
:104E00001F930F93FF92EF92DF927B018C016894C6
:104E100006C0DA2EEF010E94CC27FE01E894A5918E
:104E20002591359145915591A6F3EF010E942025DA
:104E3000FE019701A801DA9469F7DF90EF90FF90E7
:104E40000F911F91CF91DF91089500240A941616B7
:104E5000170618060906089500240A941216130668
:104E60001406050608950C94FB260E948B27D8F3A0
:104E7000E894E0E0BB279F57F0F02AED3FE049ECD3
:104E800006C0EE0FBB0F661F771F881F28F0B23ACF
:104E900062077307840728F0B25A620B730B840B06
:104EA000E3959A9572F7803830F49A95BB0F661F98
:104EB000771F881FD2F790480C943428092E03944A
:104EC000000C11F4882352F0BB0F40F4BF2B11F4F7
:104ED00060FF04C06F5F7F4F8F4F9F4F0895EF9328
:104EE000E0FF07C0A2EA2AED3FE049EC5FEB0E9439
:104EF00020250E945E270F90039401FC9058E5E95D
:104F0000F0E00C94402857FD9058440F551F59F07D
:104F10005F3F71F04795880F97FB991F61F09F3FA6
:104F200079F087950895121613061406551FF2CFCF
:104F30004695F1DF08C0161617061806991FF1CF1F
:104F400086957105610508940895E894BB27662746
:104F50007727CB0197F908950E94D12608F48FEFA7
:104F600008959B01AC0160E070E080E89FE30C9441
:104F7000EC250E94CC270C945E270E94252738F050
:104F80000E942C2720F0952311F00C94F5260C9408
:104F9000FB2611240C94A6270E94832770F3959F6B
:104FA000C1F3950F50E0551F629FF001729FBB2720
:104FB000F00DB11D639FAA27F00DB11DAA1F649FBC
:104FC0006627B00DA11D661F829F2227B00DA11D6F
:104FD000621F739FB00DA11D621F839FA00D611DF5
:104FE000221F749F3327A00D611D231F849F600D16
:104FF000211D822F762F6A2F11249F5750409AF03F
:10500000F1F088234AF0EE0FFF1FBB1F661F771FCA
:10501000881F91505040A9F79E3F510580F00C9495
:10502000F5260C94A6275F3FE4F3983ED4F38695CB
:1050300077956795B795F795E7959F5FC1F7FE2B35
:10504000880F911D9695879597F908959F930E94D3
:1050500035270F9007FCEE5F0C946F279B01AC0186
:105060000C94B9279F3F31F0915020F487957795A4
:105070006795B795880F911D9695879597F908952F
:105080009F938F937F936F93FF93EF939B01AC015B
:105090000E94B927EF91FF910E94FE262F913F9128
:1050A0004F915F910C94B927DB018F939F930E94DE
:1050B000CD28BF91AF91A29F800D911DA39F900D10
:1050C000B29F900D11240895AA1BBB1B51E107C08C
:1050D000AA1FBB1FA617B70710F0A61BB70B881F88
:1050E000991F5A95A9F780959095BC01CD01089517
:1050F00097FB072E16F4009407D077FD09D00E9485
:10510000642807FC05D03EF4909581959F4F089543
:10511000709561957F4F0895A1E21A2EAA1BBB1BC3
:10512000FD010DC0AA1FBB1FEE1FFF1FA217B30773
:10513000E407F50720F0A21BB30BE40BF50B661F89
:10514000771F881F991F1A9469F76095709580954D
:1051500090959B01AC01BD01CF010895052E97FBF1
:105160001EF400940E94C52857FD07D00E948C2889
:1051700007FC03D04EF40C94C5285095409530950B
:1051800021953F4F4F4F5F4F0895909580957095B3
:1051900061957F4F8F4F9F4F08950E941529A59FBE
:1051A000900DB49F900DA49F800D911D1124089522
:1051B0002F923F924F925F926F927F928F929F9227
:1051C000AF92BF92CF92DF92EF92FF920F931F9315
:1051D000CF93DF93CDB7DEB7CA1BDB0B0FB6F894C6
:1051E000DEBF0FBECDBF09942A88398848885F8406
:1051F0006E847D848C849B84AA84B984C884DF8077
:10520000EE80FD800C811B81AA81B981CE0FD11D5A
:105210000FB6F894DEBF0FBECDBFED010895EE0FBF
:10522000FF1F0590F491E02D0994A29FB001B39F58
:10523000C001A39F700D811D1124911DB29F700D9F
:10524000811D1124911D08950F931F93CF93DF9318
:105250008230910510F482E090E0E0912006F09118
:10526000210630E020E0B0E0A0E0309799F421156D
:10527000310509F44AC0281B390B24303105D8F513
:105280008A819B816115710589F1FB01938382837A
:10529000FE0111C0408151810281138148175907D5
:1052A000E0F04817590799F4109761F012960C93A3
:1052B000129713961C933296CF01DF91CF911F91D5
:1052C0000F9108950093200610932106F4CF211525
:1052D000310551F04217530738F0A901DB019A015B
:1052E000BD01DF01F801C1CFEF01F9CF9093210695
:1052F00080932006CDCFFE01E20FF31F819391939F
:105300002250310939832883D7CF20911E0630914E
:105310001F06232B41F420910201309103013093A9
:105320001F0620931E0620910001309101012115D6
:10533000310541F42DB73EB740910401509105016C
:10534000241B350BE0911E06F0911F06E217F307B0
:10535000A0F42E1B3F0B2817390778F0AC014E5FE5
:105360005F4F2417350748F04E0F5F1F50931F06FD
:1053700040931E06819391939FCFF0E0E0E09CCF95
:10538000CF93DF930097E9F0FC01329713821282EA
:10539000A0912006B0912106ED0130E020E01097A9
:1053A000A1F420813181820F931F20911E0630913C
:1053B0001F062817390709F061C0F0931F06E09314
:1053C0001E06DF91CF910895EA01CE17DF07E8F5B9
:1053D0004A815B819E0141155105B1F7E901FB83CB
:1053E000EA8349915991C40FD51FEC17FD0761F469
:1053F000808191810296840F951FE90199838883AA
:10540000828193819B838A83F0E0E0E012968D9104
:105410009C9113970097B9F52D913C911197CD016F
:105420000296820F931F20911E0630911F062817A7
:10543000390739F6309751F510922106109220065F
:10544000B0931F06A0931E06BCCFD383C2834081B6
:105450005181840F951FC817D90761F44E5F5F4FC4
:1054600088819981480F591F518340838A819B818C
:10547000938382832115310509F0B0CFF093210683
:10548000E09320069ECFFD01DC01C0CF1382128283
:10549000D7CFB0E0A0E0EFE4FAE20C94DA288C0178
:1054A000009751F4CB010E9424298C01C801CDB78B
:1054B000DEB7E0E10C94F628FC01E60FF71F9C0133
:1054C00022503109E217F30708F49DC0D901CD91AC
:1054D000DC911197C617D70798F0C530D10530F386
:1054E000CE0104978617970708F3C61BD70B2297A0
:1054F000C193D1936D937C93CF010E94C029D6CFE5
:105500005B01AC1ABD0A4C018C0E9D1EA0912006B9
:10551000B0912106512C412CF12CE12C109731F542
:1055200080911E0690911F068815990509F05CC0B0
:105530004616570608F058C080910001909101016D
:10554000009741F48DB79EB7409104015091050139
:10555000841B950BE817F90708F055C0F0931F0658
:10556000E0931E06F90171836083A0CF8D919C9119
:10557000119712966C90129713967C901397A8151A
:10558000B90559F56C0142E0C40ED11CCA14DB0404
:1055900020F1AC014A195B09DA011296159780F0E7
:1055A0006282738251834083D9016D937C93E114AD
:1055B000F10471F0D7011396FC93EE93129776CF16
:1055C00022968C0F9D1FF90191838083F301EFCF09
:1055D000F0932106E093200669CF4816590608F497
:1055E0002C017D01D3019ACFCB010E9424297C019B
:1055F000009749F0AE01B8010E94502BC8010E94EB
:10560000C029870153CF10E000E050CFFC0188276C
:105610009927E89421912032E9F3293010F02E30B7
:10562000C8F32B3241F02D3239F4689404C00E9443
:10563000832B820F911D219120532A30C0F31EF439
:10564000909581959F4F0895FB01DC018D91059008
:1056500080190110D9F3990B0895FC0105900020E1
:10566000E9F7809590958E0F9F1F0895FB01559146
:105670005523A9F0BF01DC014D9145174111E1F718
:1056800059F4CD010590002049F04D91401541118C
:10569000C9F3FB014111EFCF81E090E0019708953C
:1056A000FB01DC0102C001900D9241505040D8F73F
:1056B0000895FC018191861721F08823D9F7992755
:1056C00008953197CF010895FB01DC018D91019080
:1056D00080190110D9F3990B0895FB01DC010190A9
:1056E0000D920020E1F70895FB01DC01415050408C
:1056F00048F001900D920020C9F701C01D92415061
:105700005040E0F708957AE0979F902D879F802D75
:10571000910D11240895AEE0B0E0E1E9FBE20C94B4
:10572000E6280D891E8986E08C831A8309838FEF12
:105730009FE79E838D83AE01475E5F4F6F89788DB3
:10574000CE0101960E94AE2B2F813885020F131FC8
:10575000F80110822E96E4E00C940229ABE0B0E050
:10576000E4EBFBE20C94D8287C013B018A01FC01AC
:1057700017821682838181FFC8C1CE0101965C0128
:10578000F7019381F30193FD859193FF81913F018F
:10579000882309F453C1853239F493FD859193FF31
:1057A00081913F01853229F4B70190E00E949E2D3E
:1057B000E7CF912C212C312CFFE1F31538F08B32FF
:1057C00011F190F4803209F1833229F137FC3CC0A9
:1057D00020ED280F2A3050F536FE20C08AE0989E32
:1057E000200D1124922E06C08D3291F0803371F776
:1057F000689430F8F30193FD859193FF81913F0107
:105800008111DACF21C0689431F8689432F8F2CF70
:10581000689433F8EFCF689434F8ECCFEAE02E9E2A
:10582000200D1124222E689435F8E4CF8E3229F40D
:1058300036FC04C1689436F8DDCF8C3619F46894D0
:1058400037F8D8CF8836B1F2982F9F7D9554933092
:10585000E0F08336A1F18337C1F1833509F063C0ED
:105860002801F2E04F0E511CF801C080D180692D53
:1058700070E036FC02C06FEF7FEFC6010E94882DFA
:105880004C01689437F882010AC00C5F1F4FFFE398
:10589000F98388248394912C6501E89437F833FECA
:1058A0002DC0522C8114910471F5552009F468CF54
:1058B000B70180E290E00E949E2D5A94F6CFF80145
:1058C000808189830E5F1F4FE4CF2801F2E04F0EE5
:1058D000511CF801C080D180692D70E036FC02C0F7
:1058E0006FEF7FEFC6010E94932D4C018201D5CF4F
:1058F000B70180E290E00E949E2D2A94281419049A
:1059000009F0B0F7CECFF60137FC859137FE8191D3
:105910006F01B70190E00E949E2D51105A94F1E062
:105920008F1A9108BFCF843619F0893609F077C0F5
:10593000F80137FE6BC060817181828193810C5FB9
:105940001F4FF32DFF763F2E97FF09C0909580954E
:10595000709561957F4F8F4F9F4F689437F82AE07D
:1059600030E0A5010E94CE2DC82ECA188C2C432CE5
:1059700036FE0CC0E89440F8C91440F434FE05C06B
:1059800032FC03C0F32DFE7E4F2E892C44FE95C0C1
:10599000FE01EC0DF11D8081803309F087C0242DBC
:1059A000297E422E842D8870582E43FC95C040FEDF
:1059B0008FC09C2C821418F42C0C922C981844FE46
:1059C00091C0B70180E390E00E949E2D42FE09C085
:1059D00088E790E041FE02C088E590E0B7010E94B0
:1059E0009E2DC91408F48AC0CA94D12C9FEFC91AFD
:1059F000D90ACA0CDB1CF60182916F01B70190E055
:105A00000E949E2DAC14BD04B1F74FCF608171810F
:105A1000072E000C880B990B0E5F1F4F92CFD32CD3
:105A2000E894D4F82AE030E0853739F1232D297F36
:105A3000D22E8F3601F148F48835A9F0F70186811E
:105A400097812B96E2E10C94F428803749F088374F
:105A5000A9F7D4FE02C06894D2F820E130E00DC06E
:105A60006894D4F8F6CF34FE03C0822F8660D82E17
:105A700020E132E002C028E030E0F801D7FE0FC09C
:105A800060817181828193810C5F1F4FA5010E940B
:105A9000CE2DC82ECA183D2CE89437F867CF608108
:105AA000718190E080E00E5F1F4FF0CF42FC02C09A
:105AB000839478CF8394839475CF842D867809F46A
:105AC00071CFF6CFB70180E290E00E949E2D8394C3
:105AD0008214C0F3512C73CF522C5818821408F43E
